{
	"contracts/InternalContract.sol": {
		"InternalContract": {
			"abi": [
				{
					"constant": false,
					"inputs": [],
					"name": "testMyFunc",
					"outputs": [
						{
							"name": "reqid",
							"type": "bytes32"
						}
					],
					"payable": false,
					"stateMutability": "nonpayable",
					"type": "function"
				},
				{
					"constant": false,
					"inputs": [],
					"name": "withdrawPli",
					"outputs": [],
					"payable": false,
					"stateMutability": "nonpayable",
					"type": "function"
				},
				{
					"constant": false,
					"inputs": [
						{
							"name": "_requestId",
							"type": "bytes32"
						},
						{
							"name": "_currentval",
							"type": "uint256"
						}
					],
					"name": "fulfill",
					"outputs": [],
					"payable": false,
					"stateMutability": "nonpayable",
					"type": "function"
				},
				{
					"constant": true,
					"inputs": [],
					"name": "currentValue",
					"outputs": [
						{
							"name": "",
							"type": "uint256"
						}
					],
					"payable": false,
					"stateMutability": "view",
					"type": "function"
				},
				{
					"constant": false,
					"inputs": [],
					"name": "renounceOwnership",
					"outputs": [],
					"payable": false,
					"stateMutability": "nonpayable",
					"type": "function"
				},
				{
					"constant": true,
					"inputs": [],
					"name": "oracle",
					"outputs": [
						{
							"name": "",
							"type": "address"
						}
					],
					"payable": false,
					"stateMutability": "view",
					"type": "function"
				},
				{
					"constant": true,
					"inputs": [],
					"name": "owner",
					"outputs": [
						{
							"name": "",
							"type": "address"
						}
					],
					"payable": false,
					"stateMutability": "view",
					"type": "function"
				},
				{
					"constant": true,
					"inputs": [],
					"name": "showPrice",
					"outputs": [
						{
							"name": "",
							"type": "uint256"
						}
					],
					"payable": false,
					"stateMutability": "view",
					"type": "function"
				},
				{
					"constant": false,
					"inputs": [
						{
							"name": "_caller",
							"type": "address"
						}
					],
					"name": "requestData",
					"outputs": [
						{
							"name": "requestId",
							"type": "bytes32"
						}
					],
					"payable": false,
					"stateMutability": "nonpayable",
					"type": "function"
				},
				{
					"constant": true,
					"inputs": [
						{
							"name": "",
							"type": "address"
						}
					],
					"name": "plidbs",
					"outputs": [
						{
							"name": "depositor",
							"type": "address"
						},
						{
							"name": "totalcredits",
							"type": "uint256"
						}
					],
					"payable": false,
					"stateMutability": "view",
					"type": "function"
				},
				{
					"constant": true,
					"inputs": [],
					"name": "getPluginToken",
					"outputs": [
						{
							"name": "",
							"type": "address"
						}
					],
					"payable": false,
					"stateMutability": "view",
					"type": "function"
				},
				{
					"constant": true,
					"inputs": [],
					"name": "jobId",
					"outputs": [
						{
							"name": "",
							"type": "string"
						}
					],
					"payable": false,
					"stateMutability": "view",
					"type": "function"
				},
				{
					"constant": false,
					"inputs": [
						{
							"name": "_value",
							"type": "uint256"
						}
					],
					"name": "depositPLI",
					"outputs": [
						{
							"name": "",
							"type": "bool"
						}
					],
					"payable": false,
					"stateMutability": "nonpayable",
					"type": "function"
				},
				{
					"constant": false,
					"inputs": [
						{
							"name": "_requestId",
							"type": "bytes32"
						},
						{
							"name": "_payment",
							"type": "uint256"
						},
						{
							"name": "_callbackFunctionId",
							"type": "bytes4"
						},
						{
							"name": "_expiration",
							"type": "uint256"
						}
					],
					"name": "cancelRequest",
					"outputs": [],
					"payable": false,
					"stateMutability": "nonpayable",
					"type": "function"
				},
				{
					"constant": false,
					"inputs": [
						{
							"name": "_newOwner",
							"type": "address"
						}
					],
					"name": "transferOwnership",
					"outputs": [],
					"payable": false,
					"stateMutability": "nonpayable",
					"type": "function"
				},
				{
					"inputs": [
						{
							"name": "_pli",
							"type": "address"
						},
						{
							"name": "_oracle",
							"type": "address"
						},
						{
							"name": "_jobid",
							"type": "string"
						}
					],
					"payable": false,
					"stateMutability": "nonpayable",
					"type": "constructor"
				},
				{
					"anonymous": false,
					"inputs": [
						{
							"indexed": true,
							"name": "requestId",
							"type": "bytes32"
						},
						{
							"indexed": true,
							"name": "currentVal",
							"type": "uint256"
						}
					],
					"name": "RequestFulfilled",
					"type": "event"
				},
				{
					"anonymous": false,
					"inputs": [
						{
							"indexed": true,
							"name": "requester",
							"type": "address"
						},
						{
							"indexed": true,
							"name": "jobId",
							"type": "bytes32"
						},
						{
							"indexed": true,
							"name": "requestId",
							"type": "bytes32"
						}
					],
					"name": "requestCreated",
					"type": "event"
				},
				{
					"anonymous": false,
					"inputs": [
						{
							"indexed": true,
							"name": "previousOwner",
							"type": "address"
						}
					],
					"name": "OwnershipRenounced",
					"type": "event"
				},
				{
					"anonymous": false,
					"inputs": [
						{
							"indexed": true,
							"name": "previousOwner",
							"type": "address"
						},
						{
							"indexed": true,
							"name": "newOwner",
							"type": "address"
						}
					],
					"name": "OwnershipTransferred",
					"type": "event"
				},
				{
					"anonymous": false,
					"inputs": [
						{
							"indexed": true,
							"name": "id",
							"type": "bytes32"
						}
					],
					"name": "PluginRequested",
					"type": "event"
				},
				{
					"anonymous": false,
					"inputs": [
						{
							"indexed": true,
							"name": "id",
							"type": "bytes32"
						}
					],
					"name": "PluginFulfilled",
					"type": "event"
				},
				{
					"anonymous": false,
					"inputs": [
						{
							"indexed": true,
							"name": "id",
							"type": "bytes32"
						}
					],
					"name": "PluginCancelled",
					"type": "event"
				}
			],
			"devdoc": {
				"methods": {
					"renounceOwnership()": {
						"details": "Allows the current owner to relinquish control of the contract."
					},
					"transferOwnership(address)": {
						"details": "Allows the current owner to transfer control of the contract to a newOwner.",
						"params": {
							"_newOwner": "The address to transfer ownership to."
						}
					}
				}
			},
			"evm": {
				"assembly": "    /* \"contracts/InternalContract.sol\":140:4462  contract InternalContract is PluginClient, Ownable {... */\n  mstore(0x40, 0x80)\n    /* \"@goplugin/contracts/src/v0.4/PluginClient.sol\":1088:1089  1 */\n  0x1\n    /* \"@goplugin/contracts/src/v0.4/PluginClient.sol\":1061:1089  uint256 private requests = 1 */\n  0x4\n  sstore\n    /* \"contracts/InternalContract.sol\":966:1128  constructor(address _pli,address _oracle,string memory _jobid) public Ownable() {... */\n  callvalue\n    /* \"--CODEGEN--\":8:17   */\n  dup1\n    /* \"--CODEGEN--\":5:7   */\n  iszero\n  tag_1\n  jumpi\n    /* \"--CODEGEN--\":30:31   */\n  0x0\n    /* \"--CODEGEN--\":27:28   */\n  dup1\n    /* \"--CODEGEN--\":20:32   */\n  revert\n    /* \"--CODEGEN--\":5:7   */\ntag_1:\n    /* \"contracts/InternalContract.sol\":966:1128  constructor(address _pli,address _oracle,string memory _jobid) public Ownable() {... */\n  pop\n  mload(0x40)\n  sub(codesize, bytecodeSize)\n  dup1\n  bytecodeSize\n  dup4\n  codecopy\n  dup2\n  add\n  dup1\n  0x40\n  mstore\n  dup2\n  add\n  swap1\n  dup1\n  dup1\n  mload\n  swap1\n  0x20\n  add\n  swap1\n  swap3\n  swap2\n  swap1\n  dup1\n  mload\n  swap1\n  0x20\n  add\n  swap1\n  swap3\n  swap2\n  swap1\n  dup1\n  mload\n  dup3\n  add\n  swap3\n  swap2\n  swap1\n  pop\n  pop\n  pop\n    /* \"@goplugin/contracts/src/v0.4/vendor/Ownable.sol\":575:585  msg.sender */\n  caller\n    /* \"@goplugin/contracts/src/v0.4/vendor/Ownable.sol\":567:572  owner */\n  0x6\n  0x0\n    /* \"@goplugin/contracts/src/v0.4/vendor/Ownable.sol\":567:585  owner = msg.sender */\n  0x100\n  exp\n  dup2\n  sload\n  dup2\n  0xffffffffffffffffffffffffffffffffffffffff\n  mul\n  not\n  and\n  swap1\n  dup4\n  0xffffffffffffffffffffffffffffffffffffffff\n  and\n  mul\n  or\n  swap1\n  sstore\n  pop\n    /* \"contracts/InternalContract.sol\":1052:1072  setPluginToken(_pli) */\n  tag_6\n    /* \"contracts/InternalContract.sol\":1067:1071  _pli */\n  dup4\n    /* \"contracts/InternalContract.sol\":1052:1066  setPluginToken */\n  mul(0x100000000, tag_7)\n    /* \"contracts/InternalContract.sol\":1052:1072  setPluginToken(_pli) */\n  0x100000000\n  swap1\n  div\n  jump\t// in\ntag_6:\n    /* \"contracts/InternalContract.sol\":1095:1102  _oracle */\n  dup2\n    /* \"contracts/InternalContract.sol\":1078:1084  oracle */\n  0x7\n  0x0\n    /* \"contracts/InternalContract.sol\":1078:1103  oracle = address(_oracle) */\n  0x100\n  exp\n  dup2\n  sload\n  dup2\n  0xffffffffffffffffffffffffffffffffffffffff\n  mul\n  not\n  and\n  swap1\n  dup4\n  0xffffffffffffffffffffffffffffffffffffffff\n  and\n  mul\n  or\n  swap1\n  sstore\n  pop\n    /* \"contracts/InternalContract.sol\":1117:1123  _jobid */\n  dup1\n    /* \"contracts/InternalContract.sol\":1109:1114  jobId */\n  0x8\n    /* \"contracts/InternalContract.sol\":1109:1123  jobId = _jobid */\n  swap1\n  dup1\n  mload\n  swap1\n  0x20\n  add\n  swap1\n  tag_8\n  swap3\n  swap2\n  swap1\n  jump\t// in(tag_9)\ntag_8:\n  pop\n    /* \"contracts/InternalContract.sol\":966:1128  constructor(address _pli,address _oracle,string memory _jobid) public Ownable() {... */\n  pop\n  pop\n  pop\n    /* \"contracts/InternalContract.sol\":140:4462  contract InternalContract is PluginClient, Ownable {... */\n  jump(tag_10)\n    /* \"@goplugin/contracts/src/v0.4/PluginClient.sol\":4632:4719  function setPluginToken(address _pli) internal {... */\ntag_7:\n    /* \"@goplugin/contracts/src/v0.4/PluginClient.sol\":4709:4713  _pli */\n  dup1\n    /* \"@goplugin/contracts/src/v0.4/PluginClient.sol\":4685:4688  pli */\n  0x2\n  0x0\n    /* \"@goplugin/contracts/src/v0.4/PluginClient.sol\":4685:4714  pli = PliTokenInterface(_pli) */\n  0x100\n  exp\n  dup2\n  sload\n  dup2\n  0xffffffffffffffffffffffffffffffffffffffff\n  mul\n  not\n  and\n  swap1\n  dup4\n  0xffffffffffffffffffffffffffffffffffffffff\n  and\n  mul\n  or\n  swap1\n  sstore\n  pop\n    /* \"@goplugin/contracts/src/v0.4/PluginClient.sol\":4632:4719  function setPluginToken(address _pli) internal {... */\n  pop\n  jump\t// out\n    /* \"contracts/InternalContract.sol\":140:4462  contract InternalContract is PluginClient, Ownable {... */\ntag_9:\n  dup3\n  dup1\n  sload\n  0x1\n  dup2\n  0x1\n  and\n  iszero\n  0x100\n  mul\n  sub\n  and\n  0x2\n  swap1\n  div\n  swap1\n  0x0\n  mstore\n  keccak256(0x0, 0x20)\n  swap1\n  0x1f\n  add\n  0x20\n  swap1\n  div\n  dup2\n  add\n  swap3\n  dup3\n  0x1f\n  lt\n  tag_13\n  jumpi\n  dup1\n  mload\n  not(0xff)\n  and\n  dup4\n  dup1\n  add\n  or\n  dup6\n  sstore\n  jump(tag_12)\ntag_13:\n  dup3\n  dup1\n  add\n  0x1\n  add\n  dup6\n  sstore\n  dup3\n  iszero\n  tag_12\n  jumpi\n  swap2\n  dup3\n  add\ntag_14:\n  dup3\n  dup2\n  gt\n  iszero\n  tag_15\n  jumpi\n  dup3\n  mload\n  dup3\n  sstore\n  swap2\n  0x20\n  add\n  swap2\n  swap1\n  0x1\n  add\n  swap1\n  jump(tag_14)\ntag_15:\ntag_12:\n  pop\n  swap1\n  pop\n  tag_16\n  swap2\n  swap1\n  jump\t// in(tag_17)\ntag_16:\n  pop\n  swap1\n  jump\t// out\ntag_17:\n  tag_18\n  swap2\n  swap1\ntag_19:\n  dup1\n  dup3\n  gt\n  iszero\n  tag_20\n  jumpi\n  0x0\n  dup2\n  0x0\n  swap1\n  sstore\n  pop\n  0x1\n  add\n  jump(tag_19)\ntag_20:\n  pop\n  swap1\n  jump\ntag_18:\n  swap1\n  jump\t// out\ntag_10:\n  dataSize(sub_0)\n  dup1\n  dataOffset(sub_0)\n  0x0\n  codecopy\n  0x0\n  return\nstop\n\nsub_0: assembly {\n        /* \"contracts/InternalContract.sol\":140:4462  contract InternalContract is PluginClient, Ownable {... */\n      mstore(0x40, 0x80)\n      jumpi(tag_1, lt(calldatasize, 0x4))\n      calldataload(0x0)\n      0x100000000000000000000000000000000000000000000000000000000\n      swap1\n      div\n      0xffffffff\n      and\n      dup1\n      0x2d8c762c\n      eq\n      tag_2\n      jumpi\n      dup1\n      0x37fccd30\n      eq\n      tag_3\n      jumpi\n      dup1\n      0x4357855e\n      eq\n      tag_4\n      jumpi\n      dup1\n      0x698996f8\n      eq\n      tag_5\n      jumpi\n      dup1\n      0x715018a6\n      eq\n      tag_6\n      jumpi\n      dup1\n      0x7dc0d1d0\n      eq\n      tag_7\n      jumpi\n      dup1\n      0x8da5cb5b\n      eq\n      tag_8\n      jumpi\n      dup1\n      0x8e0e0abb\n      eq\n      tag_9\n      jumpi\n      dup1\n      0x9dd4cc5d\n      eq\n      tag_10\n      jumpi\n      dup1\n      0xa2e36c5f\n      eq\n      tag_11\n      jumpi\n      dup1\n      0xa4b6f67e\n      eq\n      tag_12\n      jumpi\n      dup1\n      0xc2939d97\n      eq\n      tag_13\n      jumpi\n      dup1\n      0xd378d5eb\n      eq\n      tag_14\n      jumpi\n      dup1\n      0xec65d0f8\n      eq\n      tag_15\n      jumpi\n      dup1\n      0xf2fde38b\n      eq\n      tag_16\n      jumpi\n    tag_1:\n      0x0\n      dup1\n      revert\n        /* \"contracts/InternalContract.sol\":2807:3203  function testMyFunc()... */\n    tag_2:\n      callvalue\n        /* \"--CODEGEN--\":8:17   */\n      dup1\n        /* \"--CODEGEN--\":5:7   */\n      iszero\n      tag_17\n      jumpi\n        /* \"--CODEGEN--\":30:31   */\n      0x0\n        /* \"--CODEGEN--\":27:28   */\n      dup1\n        /* \"--CODEGEN--\":20:32   */\n      revert\n        /* \"--CODEGEN--\":5:7   */\n    tag_17:\n        /* \"contracts/InternalContract.sol\":2807:3203  function testMyFunc()... */\n      pop\n      tag_18\n      jump(tag_19)\n    tag_18:\n      mload(0x40)\n      dup1\n      dup3\n      not(0x0)\n      and\n      not(0x0)\n      and\n      dup2\n      mstore\n      0x20\n      add\n      swap2\n      pop\n      pop\n      mload(0x40)\n      dup1\n      swap2\n      sub\n      swap1\n      return\n        /* \"contracts/InternalContract.sol\":3650:3855  function withdrawPli() public onlyOwner {... */\n    tag_3:\n      callvalue\n        /* \"--CODEGEN--\":8:17   */\n      dup1\n        /* \"--CODEGEN--\":5:7   */\n      iszero\n      tag_20\n      jumpi\n        /* \"--CODEGEN--\":30:31   */\n      0x0\n        /* \"--CODEGEN--\":27:28   */\n      dup1\n        /* \"--CODEGEN--\":20:32   */\n      revert\n        /* \"--CODEGEN--\":5:7   */\n    tag_20:\n        /* \"contracts/InternalContract.sol\":3650:3855  function withdrawPli() public onlyOwner {... */\n      pop\n      tag_21\n      jump(tag_22)\n    tag_21:\n      stop\n        /* \"contracts/InternalContract.sol\":3230:3501  function fulfill(bytes32 _requestId, uint256 _currentval)... */\n    tag_4:\n      callvalue\n        /* \"--CODEGEN--\":8:17   */\n      dup1\n        /* \"--CODEGEN--\":5:7   */\n      iszero\n      tag_23\n      jumpi\n        /* \"--CODEGEN--\":30:31   */\n      0x0\n        /* \"--CODEGEN--\":27:28   */\n      dup1\n        /* \"--CODEGEN--\":20:32   */\n      revert\n        /* \"--CODEGEN--\":5:7   */\n    tag_23:\n        /* \"contracts/InternalContract.sol\":3230:3501  function fulfill(bytes32 _requestId, uint256 _currentval)... */\n      pop\n      tag_24\n      0x4\n      dup1\n      calldatasize\n      sub\n      dup2\n      add\n      swap1\n      dup1\n      dup1\n      calldataload\n      not(0x0)\n      and\n      swap1\n      0x20\n      add\n      swap1\n      swap3\n      swap2\n      swap1\n      dup1\n      calldataload\n      swap1\n      0x20\n      add\n      swap1\n      swap3\n      swap2\n      swap1\n      pop\n      pop\n      pop\n      jump(tag_25)\n    tag_24:\n      stop\n        /* \"contracts/InternalContract.sol\":432:459  uint256 public currentValue */\n    tag_5:\n      callvalue\n        /* \"--CODEGEN--\":8:17   */\n      dup1\n        /* \"--CODEGEN--\":5:7   */\n      iszero\n      tag_26\n      jumpi\n        /* \"--CODEGEN--\":30:31   */\n      0x0\n        /* \"--CODEGEN--\":27:28   */\n      dup1\n        /* \"--CODEGEN--\":20:32   */\n      revert\n        /* \"--CODEGEN--\":5:7   */\n    tag_26:\n        /* \"contracts/InternalContract.sol\":432:459  uint256 public currentValue */\n      pop\n      tag_27\n      jump(tag_28)\n    tag_27:\n      mload(0x40)\n      dup1\n      dup3\n      dup2\n      mstore\n      0x20\n      add\n      swap2\n      pop\n      pop\n      mload(0x40)\n      dup1\n      swap2\n      sub\n      swap1\n      return\n        /* \"@goplugin/contracts/src/v0.4/vendor/Ownable.sol\":1001:1112  function renounceOwnership() public onlyOwner {... */\n    tag_6:\n      callvalue\n        /* \"--CODEGEN--\":8:17   */\n      dup1\n        /* \"--CODEGEN--\":5:7   */\n      iszero\n      tag_29\n      jumpi\n        /* \"--CODEGEN--\":30:31   */\n      0x0\n        /* \"--CODEGEN--\":27:28   */\n      dup1\n        /* \"--CODEGEN--\":20:32   */\n      revert\n        /* \"--CODEGEN--\":5:7   */\n    tag_29:\n        /* \"@goplugin/contracts/src/v0.4/vendor/Ownable.sol\":1001:1112  function renounceOwnership() public onlyOwner {... */\n      pop\n      tag_30\n      jump(tag_31)\n    tag_30:\n      stop\n        /* \"contracts/InternalContract.sol\":294:315  address public oracle */\n    tag_7:\n      callvalue\n        /* \"--CODEGEN--\":8:17   */\n      dup1\n        /* \"--CODEGEN--\":5:7   */\n      iszero\n      tag_32\n      jumpi\n        /* \"--CODEGEN--\":30:31   */\n      0x0\n        /* \"--CODEGEN--\":27:28   */\n      dup1\n        /* \"--CODEGEN--\":20:32   */\n      revert\n        /* \"--CODEGEN--\":5:7   */\n    tag_32:\n        /* \"contracts/InternalContract.sol\":294:315  address public oracle */\n      pop\n      tag_33\n      jump(tag_34)\n    tag_33:\n      mload(0x40)\n      dup1\n      dup3\n      0xffffffffffffffffffffffffffffffffffffffff\n      and\n      0xffffffffffffffffffffffffffffffffffffffff\n      and\n      dup2\n      mstore\n      0x20\n      add\n      swap2\n      pop\n      pop\n      mload(0x40)\n      dup1\n      swap2\n      sub\n      swap1\n      return\n        /* \"@goplugin/contracts/src/v0.4/vendor/Ownable.sol\":238:258  address public owner */\n    tag_8:\n      callvalue\n        /* \"--CODEGEN--\":8:17   */\n      dup1\n        /* \"--CODEGEN--\":5:7   */\n      iszero\n      tag_35\n      jumpi\n        /* \"--CODEGEN--\":30:31   */\n      0x0\n        /* \"--CODEGEN--\":27:28   */\n      dup1\n        /* \"--CODEGEN--\":20:32   */\n      revert\n        /* \"--CODEGEN--\":5:7   */\n    tag_35:\n        /* \"@goplugin/contracts/src/v0.4/vendor/Ownable.sol\":238:258  address public owner */\n      pop\n      tag_36\n      jump(tag_37)\n    tag_36:\n      mload(0x40)\n      dup1\n      dup3\n      0xffffffffffffffffffffffffffffffffffffffff\n      and\n      0xffffffffffffffffffffffffffffffffffffffff\n      and\n      dup2\n      mstore\n      0x20\n      add\n      swap2\n      pop\n      pop\n      mload(0x40)\n      dup1\n      swap2\n      sub\n      swap1\n      return\n        /* \"contracts/InternalContract.sol\":1691:1770  function showPrice() public view returns(uint256){... */\n    tag_9:\n      callvalue\n        /* \"--CODEGEN--\":8:17   */\n      dup1\n        /* \"--CODEGEN--\":5:7   */\n      iszero\n      tag_38\n      jumpi\n        /* \"--CODEGEN--\":30:31   */\n      0x0\n        /* \"--CODEGEN--\":27:28   */\n      dup1\n        /* \"--CODEGEN--\":20:32   */\n      revert\n        /* \"--CODEGEN--\":5:7   */\n    tag_38:\n        /* \"contracts/InternalContract.sol\":1691:1770  function showPrice() public view returns(uint256){... */\n      pop\n      tag_39\n      jump(tag_40)\n    tag_39:\n      mload(0x40)\n      dup1\n      dup3\n      dup2\n      mstore\n      0x20\n      add\n      swap2\n      pop\n      pop\n      mload(0x40)\n      dup1\n      swap2\n      sub\n      swap1\n      return\n        /* \"contracts/InternalContract.sol\":2049:2804  function requestData(address _caller)... */\n    tag_10:\n      callvalue\n        /* \"--CODEGEN--\":8:17   */\n      dup1\n        /* \"--CODEGEN--\":5:7   */\n      iszero\n      tag_41\n      jumpi\n        /* \"--CODEGEN--\":30:31   */\n      0x0\n        /* \"--CODEGEN--\":27:28   */\n      dup1\n        /* \"--CODEGEN--\":20:32   */\n      revert\n        /* \"--CODEGEN--\":5:7   */\n    tag_41:\n        /* \"contracts/InternalContract.sol\":2049:2804  function requestData(address _caller)... */\n      pop\n      tag_42\n      0x4\n      dup1\n      calldatasize\n      sub\n      dup2\n      add\n      swap1\n      dup1\n      dup1\n      calldataload\n      0xffffffffffffffffffffffffffffffffffffffff\n      and\n      swap1\n      0x20\n      add\n      swap1\n      swap3\n      swap2\n      swap1\n      pop\n      pop\n      pop\n      jump(tag_43)\n    tag_42:\n      mload(0x40)\n      dup1\n      dup3\n      not(0x0)\n      and\n      not(0x0)\n      and\n      dup2\n      mstore\n      0x20\n      add\n      swap2\n      pop\n      pop\n      mload(0x40)\n      dup1\n      swap2\n      sub\n      swap1\n      return\n        /* \"contracts/InternalContract.sol\":581:626  mapping(address => PLIDatabase) public plidbs */\n    tag_11:\n      callvalue\n        /* \"--CODEGEN--\":8:17   */\n      dup1\n        /* \"--CODEGEN--\":5:7   */\n      iszero\n      tag_44\n      jumpi\n        /* \"--CODEGEN--\":30:31   */\n      0x0\n        /* \"--CODEGEN--\":27:28   */\n      dup1\n        /* \"--CODEGEN--\":20:32   */\n      revert\n        /* \"--CODEGEN--\":5:7   */\n    tag_44:\n        /* \"contracts/InternalContract.sol\":581:626  mapping(address => PLIDatabase) public plidbs */\n      pop\n      tag_45\n      0x4\n      dup1\n      calldatasize\n      sub\n      dup2\n      add\n      swap1\n      dup1\n      dup1\n      calldataload\n      0xffffffffffffffffffffffffffffffffffffffff\n      and\n      swap1\n      0x20\n      add\n      swap1\n      swap3\n      swap2\n      swap1\n      pop\n      pop\n      pop\n      jump(tag_46)\n    tag_45:\n      mload(0x40)\n      dup1\n      dup4\n      0xffffffffffffffffffffffffffffffffffffffff\n      and\n      0xffffffffffffffffffffffffffffffffffffffff\n      and\n      dup2\n      mstore\n      0x20\n      add\n      dup3\n      dup2\n      mstore\n      0x20\n      add\n      swap3\n      pop\n      pop\n      pop\n      mload(0x40)\n      dup1\n      swap2\n      sub\n      swap1\n      return\n        /* \"contracts/InternalContract.sol\":3505:3599  function getPluginToken() public view returns (address) {... */\n    tag_12:\n      callvalue\n        /* \"--CODEGEN--\":8:17   */\n      dup1\n        /* \"--CODEGEN--\":5:7   */\n      iszero\n      tag_47\n      jumpi\n        /* \"--CODEGEN--\":30:31   */\n      0x0\n        /* \"--CODEGEN--\":27:28   */\n      dup1\n        /* \"--CODEGEN--\":20:32   */\n      revert\n        /* \"--CODEGEN--\":5:7   */\n    tag_47:\n        /* \"contracts/InternalContract.sol\":3505:3599  function getPluginToken() public view returns (address) {... */\n      pop\n      tag_48\n      jump(tag_49)\n    tag_48:\n      mload(0x40)\n      dup1\n      dup3\n      0xffffffffffffffffffffffffffffffffffffffff\n      and\n      0xffffffffffffffffffffffffffffffffffffffff\n      and\n      dup2\n      mstore\n      0x20\n      add\n      swap2\n      pop\n      pop\n      mload(0x40)\n      dup1\n      swap2\n      sub\n      swap1\n      return\n        /* \"contracts/InternalContract.sol\":368:388  string  public jobId */\n    tag_13:\n      callvalue\n        /* \"--CODEGEN--\":8:17   */\n      dup1\n        /* \"--CODEGEN--\":5:7   */\n      iszero\n      tag_50\n      jumpi\n        /* \"--CODEGEN--\":30:31   */\n      0x0\n        /* \"--CODEGEN--\":27:28   */\n      dup1\n        /* \"--CODEGEN--\":20:32   */\n      revert\n        /* \"--CODEGEN--\":5:7   */\n    tag_50:\n        /* \"contracts/InternalContract.sol\":368:388  string  public jobId */\n      pop\n      tag_51\n      jump(tag_52)\n    tag_51:\n      mload(0x40)\n      dup1\n      dup1\n      0x20\n      add\n      dup3\n      dup2\n      sub\n      dup3\n      mstore\n      dup4\n      dup2\n      dup2\n      mload\n      dup2\n      mstore\n      0x20\n      add\n      swap2\n      pop\n      dup1\n      mload\n      swap1\n      0x20\n      add\n      swap1\n      dup1\n      dup4\n      dup4\n        /* \"--CODEGEN--\":23:24   */\n      0x0\n        /* \"--CODEGEN--\":8:108   */\n    tag_53:\n        /* \"--CODEGEN--\":33:36   */\n      dup4\n        /* \"--CODEGEN--\":30:31   */\n      dup2\n        /* \"--CODEGEN--\":27:37   */\n      lt\n        /* \"--CODEGEN--\":8:108   */\n      iszero\n      tag_54\n      jumpi\n        /* \"--CODEGEN--\":99:100   */\n      dup1\n        /* \"--CODEGEN--\":94:97   */\n      dup3\n        /* \"--CODEGEN--\":90:101   */\n      add\n        /* \"--CODEGEN--\":84:102   */\n      mload\n        /* \"--CODEGEN--\":80:81   */\n      dup2\n        /* \"--CODEGEN--\":75:78   */\n      dup5\n        /* \"--CODEGEN--\":71:82   */\n      add\n        /* \"--CODEGEN--\":64:103   */\n      mstore\n        /* \"--CODEGEN--\":52:54   */\n      0x20\n        /* \"--CODEGEN--\":49:50   */\n      dup2\n        /* \"--CODEGEN--\":45:55   */\n      add\n        /* \"--CODEGEN--\":40:55   */\n      swap1\n      pop\n        /* \"--CODEGEN--\":8:108   */\n      jump(tag_53)\n    tag_54:\n        /* \"--CODEGEN--\":12:26   */\n      pop\n        /* \"contracts/InternalContract.sol\":368:388  string  public jobId */\n      pop\n      pop\n      pop\n      swap1\n      pop\n      swap1\n      dup2\n      add\n      swap1\n      0x1f\n      and\n      dup1\n      iszero\n      tag_56\n      jumpi\n      dup1\n      dup3\n      sub\n      dup1\n      mload\n      0x1\n      dup4\n      0x20\n      sub\n      0x100\n      exp\n      sub\n      not\n      and\n      dup2\n      mstore\n      0x20\n      add\n      swap2\n      pop\n    tag_56:\n      pop\n      swap3\n      pop\n      pop\n      pop\n      mload(0x40)\n      dup1\n      swap2\n      sub\n      swap1\n      return\n        /* \"contracts/InternalContract.sol\":1132:1687  function depositPLI(uint256 _value) public returns(bool) {... */\n    tag_14:\n      callvalue\n        /* \"--CODEGEN--\":8:17   */\n      dup1\n        /* \"--CODEGEN--\":5:7   */\n      iszero\n      tag_57\n      jumpi\n        /* \"--CODEGEN--\":30:31   */\n      0x0\n        /* \"--CODEGEN--\":27:28   */\n      dup1\n        /* \"--CODEGEN--\":20:32   */\n      revert\n        /* \"--CODEGEN--\":5:7   */\n    tag_57:\n        /* \"contracts/InternalContract.sol\":1132:1687  function depositPLI(uint256 _value) public returns(bool) {... */\n      pop\n      tag_58\n      0x4\n      dup1\n      calldatasize\n      sub\n      dup2\n      add\n      swap1\n      dup1\n      dup1\n      calldataload\n      swap1\n      0x20\n      add\n      swap1\n      swap3\n      swap2\n      swap1\n      pop\n      pop\n      pop\n      jump(tag_59)\n    tag_58:\n      mload(0x40)\n      dup1\n      dup3\n      iszero\n      iszero\n      iszero\n      iszero\n      dup2\n      mstore\n      0x20\n      add\n      swap2\n      pop\n      pop\n      mload(0x40)\n      dup1\n      swap2\n      sub\n      swap1\n      return\n        /* \"contracts/InternalContract.sol\":3891:4134  function cancelRequest(... */\n    tag_15:\n      callvalue\n        /* \"--CODEGEN--\":8:17   */\n      dup1\n        /* \"--CODEGEN--\":5:7   */\n      iszero\n      tag_60\n      jumpi\n        /* \"--CODEGEN--\":30:31   */\n      0x0\n        /* \"--CODEGEN--\":27:28   */\n      dup1\n        /* \"--CODEGEN--\":20:32   */\n      revert\n        /* \"--CODEGEN--\":5:7   */\n    tag_60:\n        /* \"contracts/InternalContract.sol\":3891:4134  function cancelRequest(... */\n      pop\n      tag_61\n      0x4\n      dup1\n      calldatasize\n      sub\n      dup2\n      add\n      swap1\n      dup1\n      dup1\n      calldataload\n      not(0x0)\n      and\n      swap1\n      0x20\n      add\n      swap1\n      swap3\n      swap2\n      swap1\n      dup1\n      calldataload\n      swap1\n      0x20\n      add\n      swap1\n      swap3\n      swap2\n      swap1\n      dup1\n      calldataload\n      not(0xffffffffffffffffffffffffffffffffffffffffffffffffffffffff)\n      and\n      swap1\n      0x20\n      add\n      swap1\n      swap3\n      swap2\n      swap1\n      dup1\n      calldataload\n      swap1\n      0x20\n      add\n      swap1\n      swap3\n      swap2\n      swap1\n      pop\n      pop\n      pop\n      jump(tag_62)\n    tag_61:\n      stop\n        /* \"@goplugin/contracts/src/v0.4/vendor/Ownable.sol\":1274:1377  function transferOwnership(address _newOwner) public onlyOwner {... */\n    tag_16:\n      callvalue\n        /* \"--CODEGEN--\":8:17   */\n      dup1\n        /* \"--CODEGEN--\":5:7   */\n      iszero\n      tag_63\n      jumpi\n        /* \"--CODEGEN--\":30:31   */\n      0x0\n        /* \"--CODEGEN--\":27:28   */\n      dup1\n        /* \"--CODEGEN--\":20:32   */\n      revert\n        /* \"--CODEGEN--\":5:7   */\n    tag_63:\n        /* \"@goplugin/contracts/src/v0.4/vendor/Ownable.sol\":1274:1377  function transferOwnership(address _newOwner) public onlyOwner {... */\n      pop\n      tag_64\n      0x4\n      dup1\n      calldatasize\n      sub\n      dup2\n      add\n      swap1\n      dup1\n      dup1\n      calldataload\n      0xffffffffffffffffffffffffffffffffffffffff\n      and\n      swap1\n      0x20\n      add\n      swap1\n      swap3\n      swap2\n      swap1\n      pop\n      pop\n      pop\n      jump(tag_65)\n    tag_64:\n      stop\n        /* \"contracts/InternalContract.sol\":2807:3203  function testMyFunc()... */\n    tag_19:\n        /* \"contracts/InternalContract.sol\":2867:2880  bytes32 reqid */\n      0x0\n        /* \"contracts/InternalContract.sol\":2949:2974  Plugin.Request memory req */\n      tag_66\n      jump\t// in(tag_67)\n    tag_66:\n        /* \"@goplugin/contracts/src/v0.4/vendor/Ownable.sol\":719:724  owner */\n      0x6\n      0x0\n      swap1\n      sload\n      swap1\n      0x100\n      exp\n      swap1\n      div\n      0xffffffffffffffffffffffffffffffffffffffff\n      and\n        /* \"@goplugin/contracts/src/v0.4/vendor/Ownable.sol\":705:724  msg.sender == owner */\n      0xffffffffffffffffffffffffffffffffffffffff\n      and\n        /* \"@goplugin/contracts/src/v0.4/vendor/Ownable.sol\":705:715  msg.sender */\n      caller\n        /* \"@goplugin/contracts/src/v0.4/vendor/Ownable.sol\":705:724  msg.sender == owner */\n      0xffffffffffffffffffffffffffffffffffffffff\n      and\n      eq\n        /* \"@goplugin/contracts/src/v0.4/vendor/Ownable.sol\":697:725  require(msg.sender == owner) */\n      iszero\n      iszero\n      tag_69\n      jumpi\n      0x0\n      dup1\n      revert\n    tag_69:\n        /* \"contracts/InternalContract.sol\":2977:3048  buildPluginRequest(stringToBytes32(jobId), this, this.fulfill.selector) */\n      tag_71\n        /* \"contracts/InternalContract.sol\":2996:3018  stringToBytes32(jobId) */\n      tag_72\n        /* \"contracts/InternalContract.sol\":3012:3017  jobId */\n      0x8\n        /* \"contracts/InternalContract.sol\":2996:3018  stringToBytes32(jobId) */\n      dup1\n      sload\n      0x1\n      dup2\n      0x1\n      and\n      iszero\n      0x100\n      mul\n      sub\n      and\n      0x2\n      swap1\n      div\n      dup1\n      0x1f\n      add\n      0x20\n      dup1\n      swap2\n      div\n      mul\n      0x20\n      add\n      mload(0x40)\n      swap1\n      dup2\n      add\n      0x40\n      mstore\n      dup1\n      swap3\n      swap2\n      swap1\n      dup2\n      dup2\n      mstore\n      0x20\n      add\n      dup3\n      dup1\n      sload\n      0x1\n      dup2\n      0x1\n      and\n      iszero\n      0x100\n      mul\n      sub\n      and\n      0x2\n      swap1\n      div\n      dup1\n      iszero\n      tag_73\n      jumpi\n      dup1\n      0x1f\n      lt\n      tag_74\n      jumpi\n      0x100\n      dup1\n      dup4\n      sload\n      div\n      mul\n      dup4\n      mstore\n      swap2\n      0x20\n      add\n      swap2\n      jump(tag_73)\n    tag_74:\n      dup3\n      add\n      swap2\n      swap1\n      0x0\n      mstore\n      keccak256(0x0, 0x20)\n      swap1\n    tag_75:\n      dup2\n      sload\n      dup2\n      mstore\n      swap1\n      0x1\n      add\n      swap1\n      0x20\n      add\n      dup1\n      dup4\n      gt\n      tag_75\n      jumpi\n      dup3\n      swap1\n      sub\n      0x1f\n      and\n      dup3\n      add\n      swap2\n    tag_73:\n      pop\n      pop\n      pop\n      pop\n      pop\n        /* \"contracts/InternalContract.sol\":2996:3011  stringToBytes32 */\n      tag_76\n        /* \"contracts/InternalContract.sol\":2996:3018  stringToBytes32(jobId) */\n      jump\t// in\n    tag_72:\n        /* \"contracts/InternalContract.sol\":3020:3024  this */\n      address\n        /* \"contracts/InternalContract.sol\":3026:3047  this.fulfill.selector */\n      mul(0x100000000000000000000000000000000000000000000000000000000, 0x4357855e)\n        /* \"contracts/InternalContract.sol\":2977:2995  buildPluginRequest */\n      tag_77\n        /* \"contracts/InternalContract.sol\":2977:3048  buildPluginRequest(stringToBytes32(jobId), this, this.fulfill.selector) */\n      jump\t// in\n    tag_71:\n        /* \"contracts/InternalContract.sol\":2949:3048  Plugin.Request memory req = buildPluginRequest(stringToBytes32(jobId), this, this.fulfill.selector) */\n      swap1\n      pop\n        /* \"contracts/InternalContract.sol\":3054:3076  req.add(\"_fsym\",\"XDC\") */\n      tag_78\n      0x40\n      dup1\n      mload\n      swap1\n      dup2\n      add\n      0x40\n      mstore\n      dup1\n      0x5\n      dup2\n      mstore\n      0x20\n      add\n      0x5f6673796d000000000000000000000000000000000000000000000000000000\n      dup2\n      mstore\n      pop\n      0x40\n      dup1\n      mload\n      swap1\n      dup2\n      add\n      0x40\n      mstore\n      dup1\n      0x3\n      dup2\n      mstore\n      0x20\n      add\n      0x5844430000000000000000000000000000000000000000000000000000000000\n      dup2\n      mstore\n      pop\n        /* \"contracts/InternalContract.sol\":3054:3057  req */\n      dup4\n        /* \"contracts/InternalContract.sol\":3054:3061  req.add */\n      tag_79\n      swap1\n        /* \"contracts/InternalContract.sol\":3054:3076  req.add(\"_fsym\",\"XDC\") */\n      swap3\n      swap2\n      swap1\n      0xffffffff\n      and\n      jump\t// in\n    tag_78:\n        /* \"contracts/InternalContract.sol\":3082:3106  req.add(\"_tsysm\",\"USDT\") */\n      tag_80\n      0x40\n      dup1\n      mload\n      swap1\n      dup2\n      add\n      0x40\n      mstore\n      dup1\n      0x6\n      dup2\n      mstore\n      0x20\n      add\n      0x5f747379736d0000000000000000000000000000000000000000000000000000\n      dup2\n      mstore\n      pop\n      0x40\n      dup1\n      mload\n      swap1\n      dup2\n      add\n      0x40\n      mstore\n      dup1\n      0x4\n      dup2\n      mstore\n      0x20\n      add\n      0x5553445400000000000000000000000000000000000000000000000000000000\n      dup2\n      mstore\n      pop\n        /* \"contracts/InternalContract.sol\":3082:3085  req */\n      dup4\n        /* \"contracts/InternalContract.sol\":3082:3089  req.add */\n      tag_79\n      swap1\n        /* \"contracts/InternalContract.sol\":3082:3106  req.add(\"_tsysm\",\"USDT\") */\n      swap3\n      swap2\n      swap1\n      0xffffffff\n      and\n      jump\t// in\n    tag_80:\n        /* \"contracts/InternalContract.sol\":3112:3136  req.addInt(\"times\", 100) */\n      tag_81\n      0x40\n      dup1\n      mload\n      swap1\n      dup2\n      add\n      0x40\n      mstore\n      dup1\n      0x5\n      dup2\n      mstore\n      0x20\n      add\n      0x74696d6573000000000000000000000000000000000000000000000000000000\n      dup2\n      mstore\n      pop\n        /* \"contracts/InternalContract.sol\":3132:3135  100 */\n      0x64\n        /* \"contracts/InternalContract.sol\":3112:3115  req */\n      dup4\n        /* \"contracts/InternalContract.sol\":3112:3122  req.addInt */\n      tag_82\n      swap1\n        /* \"contracts/InternalContract.sol\":3112:3136  req.addInt(\"times\", 100) */\n      swap3\n      swap2\n      swap1\n      0xffffffff\n      and\n      jump\t// in\n    tag_81:\n        /* \"contracts/InternalContract.sol\":3150:3198  sendPluginRequestTo(oracle, req, ORACLE_PAYMENT) */\n      tag_83\n        /* \"contracts/InternalContract.sol\":3170:3176  oracle */\n      0x7\n      0x0\n      swap1\n      sload\n      swap1\n      0x100\n      exp\n      swap1\n      div\n      0xffffffffffffffffffffffffffffffffffffffff\n      and\n        /* \"contracts/InternalContract.sol\":3178:3181  req */\n      dup3\n        /* \"contracts/InternalContract.sol\":277:290  0.01 * 10**18 */\n      0x2386f26fc10000\n        /* \"contracts/InternalContract.sol\":3150:3169  sendPluginRequestTo */\n      tag_84\n        /* \"contracts/InternalContract.sol\":3150:3198  sendPluginRequestTo(oracle, req, ORACLE_PAYMENT) */\n      jump\t// in\n    tag_83:\n        /* \"contracts/InternalContract.sol\":3142:3198  reqid = sendPluginRequestTo(oracle, req, ORACLE_PAYMENT) */\n      swap2\n      pop\n        /* \"contracts/InternalContract.sol\":2807:3203  function testMyFunc()... */\n      pop\n      swap1\n      jump\t// out\n        /* \"contracts/InternalContract.sol\":3650:3855  function withdrawPli() public onlyOwner {... */\n    tag_22:\n        /* \"contracts/InternalContract.sol\":3696:3717  PliTokenInterface pli */\n      0x0\n        /* \"@goplugin/contracts/src/v0.4/vendor/Ownable.sol\":719:724  owner */\n      0x6\n      0x0\n      swap1\n      sload\n      swap1\n      0x100\n      exp\n      swap1\n      div\n      0xffffffffffffffffffffffffffffffffffffffff\n      and\n        /* \"@goplugin/contracts/src/v0.4/vendor/Ownable.sol\":705:724  msg.sender == owner */\n      0xffffffffffffffffffffffffffffffffffffffff\n      and\n        /* \"@goplugin/contracts/src/v0.4/vendor/Ownable.sol\":705:715  msg.sender */\n      caller\n        /* \"@goplugin/contracts/src/v0.4/vendor/Ownable.sol\":705:724  msg.sender == owner */\n      0xffffffffffffffffffffffffffffffffffffffff\n      and\n      eq\n        /* \"@goplugin/contracts/src/v0.4/vendor/Ownable.sol\":697:725  require(msg.sender == owner) */\n      iszero\n      iszero\n      tag_86\n      jumpi\n      0x0\n      dup1\n      revert\n    tag_86:\n        /* \"contracts/InternalContract.sol\":3738:3758  pluginTokenAddress() */\n      tag_88\n        /* \"contracts/InternalContract.sol\":3738:3756  pluginTokenAddress */\n      tag_89\n        /* \"contracts/InternalContract.sol\":3738:3758  pluginTokenAddress() */\n      jump\t// in\n    tag_88:\n        /* \"contracts/InternalContract.sol\":3696:3759  PliTokenInterface pli = PliTokenInterface(pluginTokenAddress()) */\n      swap1\n      pop\n        /* \"contracts/InternalContract.sol\":3773:3776  pli */\n      dup1\n        /* \"contracts/InternalContract.sol\":3773:3785  pli.transfer */\n      0xffffffffffffffffffffffffffffffffffffffff\n      and\n      0xa9059cbb\n        /* \"contracts/InternalContract.sol\":3786:3796  msg.sender */\n      caller\n        /* \"contracts/InternalContract.sol\":3798:3801  pli */\n      dup4\n        /* \"contracts/InternalContract.sol\":3798:3811  pli.balanceOf */\n      0xffffffffffffffffffffffffffffffffffffffff\n      and\n      0x70a08231\n        /* \"contracts/InternalContract.sol\":3820:3824  this */\n      address\n        /* \"contracts/InternalContract.sol\":3798:3826  pli.balanceOf(address(this)) */\n      mload(0x40)\n      dup3\n      0xffffffff\n      and\n      0x100000000000000000000000000000000000000000000000000000000\n      mul\n      dup2\n      mstore\n      0x4\n      add\n      dup1\n      dup3\n      0xffffffffffffffffffffffffffffffffffffffff\n      and\n      0xffffffffffffffffffffffffffffffffffffffff\n      and\n      dup2\n      mstore\n      0x20\n      add\n      swap2\n      pop\n      pop\n      0x20\n      mload(0x40)\n      dup1\n      dup4\n      sub\n      dup2\n      0x0\n      dup8\n      dup1\n      extcodesize\n      iszero\n        /* \"--CODEGEN--\":8:17   */\n      dup1\n        /* \"--CODEGEN--\":5:7   */\n      iszero\n      tag_90\n      jumpi\n        /* \"--CODEGEN--\":30:31   */\n      0x0\n        /* \"--CODEGEN--\":27:28   */\n      dup1\n        /* \"--CODEGEN--\":20:32   */\n      revert\n        /* \"--CODEGEN--\":5:7   */\n    tag_90:\n        /* \"contracts/InternalContract.sol\":3798:3826  pli.balanceOf(address(this)) */\n      pop\n      gas\n      call\n      iszero\n        /* \"--CODEGEN--\":8:17   */\n      dup1\n        /* \"--CODEGEN--\":5:7   */\n      iszero\n      tag_91\n      jumpi\n        /* \"--CODEGEN--\":45:61   */\n      returndatasize\n        /* \"--CODEGEN--\":42:43   */\n      0x0\n        /* \"--CODEGEN--\":39:40   */\n      dup1\n        /* \"--CODEGEN--\":24:62   */\n      returndatacopy\n        /* \"--CODEGEN--\":77:93   */\n      returndatasize\n        /* \"--CODEGEN--\":74:75   */\n      0x0\n        /* \"--CODEGEN--\":67:94   */\n      revert\n        /* \"--CODEGEN--\":5:7   */\n    tag_91:\n        /* \"contracts/InternalContract.sol\":3798:3826  pli.balanceOf(address(this)) */\n      pop\n      pop\n      pop\n      pop\n      mload(0x40)\n      returndatasize\n        /* \"--CODEGEN--\":13:15   */\n      0x20\n        /* \"--CODEGEN--\":8:11   */\n      dup2\n        /* \"--CODEGEN--\":5:16   */\n      lt\n        /* \"--CODEGEN--\":2:4   */\n      iszero\n      tag_92\n      jumpi\n        /* \"--CODEGEN--\":29:30   */\n      0x0\n        /* \"--CODEGEN--\":26:27   */\n      dup1\n        /* \"--CODEGEN--\":19:31   */\n      revert\n        /* \"--CODEGEN--\":2:4   */\n    tag_92:\n        /* \"contracts/InternalContract.sol\":3798:3826  pli.balanceOf(address(this)) */\n      dup2\n      add\n      swap1\n      dup1\n      dup1\n      mload\n      swap1\n      0x20\n      add\n      swap1\n      swap3\n      swap2\n      swap1\n      pop\n      pop\n      pop\n        /* \"contracts/InternalContract.sol\":3773:3827  pli.transfer(msg.sender, pli.balanceOf(address(this))) */\n      mload(0x40)\n      dup4\n      0xffffffff\n      and\n      0x100000000000000000000000000000000000000000000000000000000\n      mul\n      dup2\n      mstore\n      0x4\n      add\n      dup1\n      dup4\n      0xffffffffffffffffffffffffffffffffffffffff\n      and\n      0xffffffffffffffffffffffffffffffffffffffff\n      and\n      dup2\n      mstore\n      0x20\n      add\n      dup3\n      dup2\n      mstore\n      0x20\n      add\n      swap3\n      pop\n      pop\n      pop\n      0x20\n      mload(0x40)\n      dup1\n      dup4\n      sub\n      dup2\n      0x0\n      dup8\n      dup1\n      extcodesize\n      iszero\n        /* \"--CODEGEN--\":8:17   */\n      dup1\n        /* \"--CODEGEN--\":5:7   */\n      iszero\n      tag_93\n      jumpi\n        /* \"--CODEGEN--\":30:31   */\n      0x0\n        /* \"--CODEGEN--\":27:28   */\n      dup1\n        /* \"--CODEGEN--\":20:32   */\n      revert\n        /* \"--CODEGEN--\":5:7   */\n    tag_93:\n        /* \"contracts/InternalContract.sol\":3773:3827  pli.transfer(msg.sender, pli.balanceOf(address(this))) */\n      pop\n      gas\n      call\n      iszero\n        /* \"--CODEGEN--\":8:17   */\n      dup1\n        /* \"--CODEGEN--\":5:7   */\n      iszero\n      tag_94\n      jumpi\n        /* \"--CODEGEN--\":45:61   */\n      returndatasize\n        /* \"--CODEGEN--\":42:43   */\n      0x0\n        /* \"--CODEGEN--\":39:40   */\n      dup1\n        /* \"--CODEGEN--\":24:62   */\n      returndatacopy\n        /* \"--CODEGEN--\":77:93   */\n      returndatasize\n        /* \"--CODEGEN--\":74:75   */\n      0x0\n        /* \"--CODEGEN--\":67:94   */\n      revert\n        /* \"--CODEGEN--\":5:7   */\n    tag_94:\n        /* \"contracts/InternalContract.sol\":3773:3827  pli.transfer(msg.sender, pli.balanceOf(address(this))) */\n      pop\n      pop\n      pop\n      pop\n      mload(0x40)\n      returndatasize\n        /* \"--CODEGEN--\":13:15   */\n      0x20\n        /* \"--CODEGEN--\":8:11   */\n      dup2\n        /* \"--CODEGEN--\":5:16   */\n      lt\n        /* \"--CODEGEN--\":2:4   */\n      iszero\n      tag_95\n      jumpi\n        /* \"--CODEGEN--\":29:30   */\n      0x0\n        /* \"--CODEGEN--\":26:27   */\n      dup1\n        /* \"--CODEGEN--\":19:31   */\n      revert\n        /* \"--CODEGEN--\":2:4   */\n    tag_95:\n        /* \"contracts/InternalContract.sol\":3773:3827  pli.transfer(msg.sender, pli.balanceOf(address(this))) */\n      dup2\n      add\n      swap1\n      dup1\n      dup1\n      mload\n      swap1\n      0x20\n      add\n      swap1\n      swap3\n      swap2\n      swap1\n      pop\n      pop\n      pop\n        /* \"contracts/InternalContract.sol\":3765:3850  require(pli.transfer(msg.sender, pli.balanceOf(address(this))), \"Unable to transfer\") */\n      iszero\n      iszero\n      tag_96\n      jumpi\n      mload(0x40)\n      0x8c379a000000000000000000000000000000000000000000000000000000000\n      dup2\n      mstore\n      0x4\n      add\n      dup1\n      dup1\n      0x20\n      add\n      dup3\n      dup2\n      sub\n      dup3\n      mstore\n      0x12\n      dup2\n      mstore\n      0x20\n      add\n      dup1\n      0x556e61626c6520746f207472616e736665720000000000000000000000000000\n      dup2\n      mstore\n      pop\n      0x20\n      add\n      swap2\n      pop\n      pop\n      mload(0x40)\n      dup1\n      swap2\n      sub\n      swap1\n      revert\n    tag_96:\n        /* \"contracts/InternalContract.sol\":3650:3855  function withdrawPli() public onlyOwner {... */\n      pop\n      jump\t// out\n        /* \"contracts/InternalContract.sol\":3230:3501  function fulfill(bytes32 _requestId, uint256 _currentval)... */\n    tag_25:\n        /* \"contracts/InternalContract.sol\":3327:3337  _requestId */\n      dup2\n        /* \"@goplugin/contracts/src/v0.4/PluginClient.sol\":8456:8471  pendingRequests */\n      0x5\n        /* \"@goplugin/contracts/src/v0.4/PluginClient.sol\":8456:8483  pendingRequests[_requestId] */\n      0x0\n        /* \"@goplugin/contracts/src/v0.4/PluginClient.sol\":8472:8482  _requestId */\n      dup3\n        /* \"@goplugin/contracts/src/v0.4/PluginClient.sol\":8456:8483  pendingRequests[_requestId] */\n      not(0x0)\n      and\n      not(0x0)\n      and\n      dup2\n      mstore\n      0x20\n      add\n      swap1\n      dup2\n      mstore\n      0x20\n      add\n      0x0\n      keccak256\n      0x0\n      swap1\n      sload\n      swap1\n      0x100\n      exp\n      swap1\n      div\n      0xffffffffffffffffffffffffffffffffffffffff\n      and\n        /* \"@goplugin/contracts/src/v0.4/PluginClient.sol\":8442:8483  msg.sender == pendingRequests[_requestId] */\n      0xffffffffffffffffffffffffffffffffffffffff\n      and\n        /* \"@goplugin/contracts/src/v0.4/PluginClient.sol\":8442:8452  msg.sender */\n      caller\n        /* \"@goplugin/contracts/src/v0.4/PluginClient.sol\":8442:8483  msg.sender == pendingRequests[_requestId] */\n      0xffffffffffffffffffffffffffffffffffffffff\n      and\n      eq\n        /* \"@goplugin/contracts/src/v0.4/PluginClient.sol\":8434:8528  require(msg.sender == pendingRequests[_requestId], \"Source must be the oracle of the request\") */\n      iszero\n      iszero\n      tag_98\n      jumpi\n      mload(0x40)\n      0x8c379a000000000000000000000000000000000000000000000000000000000\n      dup2\n      mstore\n      0x4\n      add\n      dup1\n      dup1\n      0x20\n      add\n      dup3\n      dup2\n      sub\n      dup3\n      mstore\n      0x28\n      dup2\n      mstore\n      0x20\n      add\n      dup1\n      0x536f75726365206d75737420626520746865206f7261636c65206f6620746865\n      dup2\n      mstore\n      0x20\n      add\n      0x2072657175657374000000000000000000000000000000000000000000000000\n      dup2\n      mstore\n      pop\n      0x40\n      add\n      swap2\n      pop\n      pop\n      mload(0x40)\n      dup1\n      swap2\n      sub\n      swap1\n      revert\n    tag_98:\n        /* \"@goplugin/contracts/src/v0.4/PluginClient.sol\":8541:8556  pendingRequests */\n      0x5\n        /* \"@goplugin/contracts/src/v0.4/PluginClient.sol\":8541:8568  pendingRequests[_requestId] */\n      0x0\n        /* \"@goplugin/contracts/src/v0.4/PluginClient.sol\":8557:8567  _requestId */\n      dup3\n        /* \"@goplugin/contracts/src/v0.4/PluginClient.sol\":8541:8568  pendingRequests[_requestId] */\n      not(0x0)\n      and\n      not(0x0)\n      and\n      dup2\n      mstore\n      0x20\n      add\n      swap1\n      dup2\n      mstore\n      0x20\n      add\n      0x0\n      keccak256\n      0x0\n        /* \"@goplugin/contracts/src/v0.4/PluginClient.sol\":8534:8568  delete pendingRequests[_requestId] */\n      0x100\n      exp\n      dup2\n      sload\n      swap1\n      0xffffffffffffffffffffffffffffffffffffffff\n      mul\n      not\n      and\n      swap1\n      sstore\n        /* \"@goplugin/contracts/src/v0.4/PluginClient.sol\":8595:8605  _requestId */\n      dup1\n        /* \"@goplugin/contracts/src/v0.4/PluginClient.sol\":8579:8606  PluginFulfilled(_requestId) */\n      not(0x0)\n      and\n      0xa40ad10b942505047c532a7399bf5eac2768b11b7155b40ec80309aea567f998\n      mload(0x40)\n      mload(0x40)\n      dup1\n      swap2\n      sub\n      swap1\n      log2\n        /* \"contracts/InternalContract.sol\":3452:3463  _currentval */\n      dup2\n        /* \"contracts/InternalContract.sol\":3440:3450  _requestId */\n      dup4\n        /* \"contracts/InternalContract.sol\":3423:3464  RequestFulfilled(_requestId, _currentval) */\n      not(0x0)\n      and\n      0x1ca8663227a7fe9919713a01d344afbb434e234f35a3e540a6ad924f88771f38\n      mload(0x40)\n      mload(0x40)\n      dup1\n      swap2\n      sub\n      swap1\n      log3\n        /* \"contracts/InternalContract.sol\":3485:3496  _currentval */\n      dup2\n        /* \"contracts/InternalContract.sol\":3470:3482  currentValue */\n      0x9\n        /* \"contracts/InternalContract.sol\":3470:3496  currentValue = _currentval */\n      dup2\n      swap1\n      sstore\n      pop\n        /* \"contracts/InternalContract.sol\":3230:3501  function fulfill(bytes32 _requestId, uint256 _currentval)... */\n      pop\n      pop\n      pop\n      jump\t// out\n        /* \"contracts/InternalContract.sol\":432:459  uint256 public currentValue */\n    tag_28:\n      sload(0x9)\n      dup2\n      jump\t// out\n        /* \"@goplugin/contracts/src/v0.4/vendor/Ownable.sol\":1001:1112  function renounceOwnership() public onlyOwner {... */\n    tag_31:\n        /* \"@goplugin/contracts/src/v0.4/vendor/Ownable.sol\":719:724  owner */\n      0x6\n      0x0\n      swap1\n      sload\n      swap1\n      0x100\n      exp\n      swap1\n      div\n      0xffffffffffffffffffffffffffffffffffffffff\n      and\n        /* \"@goplugin/contracts/src/v0.4/vendor/Ownable.sol\":705:724  msg.sender == owner */\n      0xffffffffffffffffffffffffffffffffffffffff\n      and\n        /* \"@goplugin/contracts/src/v0.4/vendor/Ownable.sol\":705:715  msg.sender */\n      caller\n        /* \"@goplugin/contracts/src/v0.4/vendor/Ownable.sol\":705:724  msg.sender == owner */\n      0xffffffffffffffffffffffffffffffffffffffff\n      and\n      eq\n        /* \"@goplugin/contracts/src/v0.4/vendor/Ownable.sol\":697:725  require(msg.sender == owner) */\n      iszero\n      iszero\n      tag_101\n      jumpi\n      0x0\n      dup1\n      revert\n    tag_101:\n        /* \"@goplugin/contracts/src/v0.4/vendor/Ownable.sol\":1077:1082  owner */\n      0x6\n      0x0\n      swap1\n      sload\n      swap1\n      0x100\n      exp\n      swap1\n      div\n      0xffffffffffffffffffffffffffffffffffffffff\n      and\n        /* \"@goplugin/contracts/src/v0.4/vendor/Ownable.sol\":1058:1083  OwnershipRenounced(owner) */\n      0xffffffffffffffffffffffffffffffffffffffff\n      and\n      0xf8df31144d9c2f0f6b59d69b8b98abd5459d07f2742c4df920b25aae33c64820\n      mload(0x40)\n      mload(0x40)\n      dup1\n      swap2\n      sub\n      swap1\n      log2\n        /* \"@goplugin/contracts/src/v0.4/vendor/Ownable.sol\":1105:1106  0 */\n      0x0\n        /* \"@goplugin/contracts/src/v0.4/vendor/Ownable.sol\":1089:1094  owner */\n      0x6\n      0x0\n        /* \"@goplugin/contracts/src/v0.4/vendor/Ownable.sol\":1089:1107  owner = address(0) */\n      0x100\n      exp\n      dup2\n      sload\n      dup2\n      0xffffffffffffffffffffffffffffffffffffffff\n      mul\n      not\n      and\n      swap1\n      dup4\n      0xffffffffffffffffffffffffffffffffffffffff\n      and\n      mul\n      or\n      swap1\n      sstore\n      pop\n        /* \"@goplugin/contracts/src/v0.4/vendor/Ownable.sol\":1001:1112  function renounceOwnership() public onlyOwner {... */\n      jump\t// out\n        /* \"contracts/InternalContract.sol\":294:315  address public oracle */\n    tag_34:\n      0x7\n      0x0\n      swap1\n      sload\n      swap1\n      0x100\n      exp\n      swap1\n      div\n      0xffffffffffffffffffffffffffffffffffffffff\n      and\n      dup2\n      jump\t// out\n        /* \"@goplugin/contracts/src/v0.4/vendor/Ownable.sol\":238:258  address public owner */\n    tag_37:\n      0x6\n      0x0\n      swap1\n      sload\n      swap1\n      0x100\n      exp\n      swap1\n      div\n      0xffffffffffffffffffffffffffffffffffffffff\n      and\n      dup2\n      jump\t// out\n        /* \"contracts/InternalContract.sol\":1691:1770  function showPrice() public view returns(uint256){... */\n    tag_40:\n        /* \"contracts/InternalContract.sol\":1732:1739  uint256 */\n      0x0\n        /* \"contracts/InternalContract.sol\":1753:1765  currentValue */\n      sload(0x9)\n        /* \"contracts/InternalContract.sol\":1746:1765  return currentValue */\n      swap1\n      pop\n        /* \"contracts/InternalContract.sol\":1691:1770  function showPrice() public view returns(uint256){... */\n      swap1\n      jump\t// out\n        /* \"contracts/InternalContract.sol\":2049:2804  function requestData(address _caller)... */\n    tag_43:\n        /* \"contracts/InternalContract.sol\":2111:2128  bytes32 requestId */\n      0x0\n        /* \"contracts/InternalContract.sol\":2218:2241  uint256 _a_totalCredits */\n      dup1\n        /* \"contracts/InternalContract.sol\":2476:2501  Plugin.Request memory req */\n      tag_104\n      jump\t// in(tag_67)\n    tag_104:\n        /* \"contracts/InternalContract.sol\":2244:2250  plidbs */\n      0xa\n        /* \"contracts/InternalContract.sol\":2244:2259  plidbs[_caller] */\n      0x0\n        /* \"contracts/InternalContract.sol\":2251:2258  _caller */\n      dup6\n        /* \"contracts/InternalContract.sol\":2244:2259  plidbs[_caller] */\n      0xffffffffffffffffffffffffffffffffffffffff\n      and\n      0xffffffffffffffffffffffffffffffffffffffff\n      and\n      dup2\n      mstore\n      0x20\n      add\n      swap1\n      dup2\n      mstore\n      0x20\n      add\n      0x0\n      keccak256\n        /* \"contracts/InternalContract.sol\":2244:2272  plidbs[_caller].totalcredits */\n      0x1\n      add\n      sload\n        /* \"contracts/InternalContract.sol\":2218:2272  uint256 _a_totalCredits = plidbs[_caller].totalcredits */\n      swap2\n      pop\n        /* \"contracts/InternalContract.sol\":277:290  0.01 * 10**18 */\n      0x2386f26fc10000\n        /* \"contracts/InternalContract.sol\":2286:2301  _a_totalCredits */\n      dup3\n        /* \"contracts/InternalContract.sol\":2286:2316  _a_totalCredits>ORACLE_PAYMENT */\n      gt\n        /* \"contracts/InternalContract.sol\":2278:2341  require(_a_totalCredits>ORACLE_PAYMENT,\"NO_SUFFICIENT_CREDITS\") */\n      iszero\n      iszero\n      tag_106\n      jumpi\n      mload(0x40)\n      0x8c379a000000000000000000000000000000000000000000000000000000000\n      dup2\n      mstore\n      0x4\n      add\n      dup1\n      dup1\n      0x20\n      add\n      dup3\n      dup2\n      sub\n      dup3\n      mstore\n      0x15\n      dup2\n      mstore\n      0x20\n      add\n      dup1\n      0x4e4f5f53554646494349454e545f435245444954530000000000000000000000\n      dup2\n      mstore\n      pop\n      0x20\n      add\n      swap2\n      pop\n      pop\n      mload(0x40)\n      dup1\n      swap2\n      sub\n      swap1\n      revert\n    tag_106:\n        /* \"contracts/InternalContract.sol\":277:290  0.01 * 10**18 */\n      0x2386f26fc10000\n        /* \"contracts/InternalContract.sol\":2378:2393  _a_totalCredits */\n      dup3\n        /* \"contracts/InternalContract.sol\":2378:2410  _a_totalCredits - ORACLE_PAYMENT */\n      sub\n        /* \"contracts/InternalContract.sol\":2347:2353  plidbs */\n      0xa\n        /* \"contracts/InternalContract.sol\":2347:2362  plidbs[_caller] */\n      0x0\n        /* \"contracts/InternalContract.sol\":2354:2361  _caller */\n      dup7\n        /* \"contracts/InternalContract.sol\":2347:2362  plidbs[_caller] */\n      0xffffffffffffffffffffffffffffffffffffffff\n      and\n      0xffffffffffffffffffffffffffffffffffffffff\n      and\n      dup2\n      mstore\n      0x20\n      add\n      swap1\n      dup2\n      mstore\n      0x20\n      add\n      0x0\n      keccak256\n        /* \"contracts/InternalContract.sol\":2347:2375  plidbs[_caller].totalcredits */\n      0x1\n      add\n        /* \"contracts/InternalContract.sol\":2347:2410  plidbs[_caller].totalcredits = _a_totalCredits - ORACLE_PAYMENT */\n      dup2\n      swap1\n      sstore\n      pop\n        /* \"contracts/InternalContract.sol\":2504:2575  buildPluginRequest(stringToBytes32(jobId), this, this.fulfill.selector) */\n      tag_107\n        /* \"contracts/InternalContract.sol\":2523:2545  stringToBytes32(jobId) */\n      tag_108\n        /* \"contracts/InternalContract.sol\":2539:2544  jobId */\n      0x8\n        /* \"contracts/InternalContract.sol\":2523:2545  stringToBytes32(jobId) */\n      dup1\n      sload\n      0x1\n      dup2\n      0x1\n      and\n      iszero\n      0x100\n      mul\n      sub\n      and\n      0x2\n      swap1\n      div\n      dup1\n      0x1f\n      add\n      0x20\n      dup1\n      swap2\n      div\n      mul\n      0x20\n      add\n      mload(0x40)\n      swap1\n      dup2\n      add\n      0x40\n      mstore\n      dup1\n      swap3\n      swap2\n      swap1\n      dup2\n      dup2\n      mstore\n      0x20\n      add\n      dup3\n      dup1\n      sload\n      0x1\n      dup2\n      0x1\n      and\n      iszero\n      0x100\n      mul\n      sub\n      and\n      0x2\n      swap1\n      div\n      dup1\n      iszero\n      tag_109\n      jumpi\n      dup1\n      0x1f\n      lt\n      tag_110\n      jumpi\n      0x100\n      dup1\n      dup4\n      sload\n      div\n      mul\n      dup4\n      mstore\n      swap2\n      0x20\n      add\n      swap2\n      jump(tag_109)\n    tag_110:\n      dup3\n      add\n      swap2\n      swap1\n      0x0\n      mstore\n      keccak256(0x0, 0x20)\n      swap1\n    tag_111:\n      dup2\n      sload\n      dup2\n      mstore\n      swap1\n      0x1\n      add\n      swap1\n      0x20\n      add\n      dup1\n      dup4\n      gt\n      tag_111\n      jumpi\n      dup3\n      swap1\n      sub\n      0x1f\n      and\n      dup3\n      add\n      swap2\n    tag_109:\n      pop\n      pop\n      pop\n      pop\n      pop\n        /* \"contracts/InternalContract.sol\":2523:2538  stringToBytes32 */\n      tag_76\n        /* \"contracts/InternalContract.sol\":2523:2545  stringToBytes32(jobId) */\n      jump\t// in\n    tag_108:\n        /* \"contracts/InternalContract.sol\":2547:2551  this */\n      address\n        /* \"contracts/InternalContract.sol\":2553:2574  this.fulfill.selector */\n      mul(0x100000000000000000000000000000000000000000000000000000000, 0x4357855e)\n        /* \"contracts/InternalContract.sol\":2504:2522  buildPluginRequest */\n      tag_77\n        /* \"contracts/InternalContract.sol\":2504:2575  buildPluginRequest(stringToBytes32(jobId), this, this.fulfill.selector) */\n      jump\t// in\n    tag_107:\n        /* \"contracts/InternalContract.sol\":2476:2575  Plugin.Request memory req = buildPluginRequest(stringToBytes32(jobId), this, this.fulfill.selector) */\n      swap1\n      pop\n        /* \"contracts/InternalContract.sol\":2581:2604  req.add(\"_fsysm\",\"XDC\") */\n      tag_112\n      0x40\n      dup1\n      mload\n      swap1\n      dup2\n      add\n      0x40\n      mstore\n      dup1\n      0x6\n      dup2\n      mstore\n      0x20\n      add\n      0x5f667379736d0000000000000000000000000000000000000000000000000000\n      dup2\n      mstore\n      pop\n      0x40\n      dup1\n      mload\n      swap1\n      dup2\n      add\n      0x40\n      mstore\n      dup1\n      0x3\n      dup2\n      mstore\n      0x20\n      add\n      0x5844430000000000000000000000000000000000000000000000000000000000\n      dup2\n      mstore\n      pop\n        /* \"contracts/InternalContract.sol\":2581:2584  req */\n      dup4\n        /* \"contracts/InternalContract.sol\":2581:2588  req.add */\n      tag_79\n      swap1\n        /* \"contracts/InternalContract.sol\":2581:2604  req.add(\"_fsysm\",\"XDC\") */\n      swap3\n      swap2\n      swap1\n      0xffffffff\n      and\n      jump\t// in\n    tag_112:\n        /* \"contracts/InternalContract.sol\":2610:2634  req.add(\"_tsysm\",\"USDT\") */\n      tag_113\n      0x40\n      dup1\n      mload\n      swap1\n      dup2\n      add\n      0x40\n      mstore\n      dup1\n      0x6\n      dup2\n      mstore\n      0x20\n      add\n      0x5f747379736d0000000000000000000000000000000000000000000000000000\n      dup2\n      mstore\n      pop\n      0x40\n      dup1\n      mload\n      swap1\n      dup2\n      add\n      0x40\n      mstore\n      dup1\n      0x4\n      dup2\n      mstore\n      0x20\n      add\n      0x5553445400000000000000000000000000000000000000000000000000000000\n      dup2\n      mstore\n      pop\n        /* \"contracts/InternalContract.sol\":2610:2613  req */\n      dup4\n        /* \"contracts/InternalContract.sol\":2610:2617  req.add */\n      tag_79\n      swap1\n        /* \"contracts/InternalContract.sol\":2610:2634  req.add(\"_tsysm\",\"USDT\") */\n      swap3\n      swap2\n      swap1\n      0xffffffff\n      and\n      jump\t// in\n    tag_113:\n        /* \"contracts/InternalContract.sol\":2640:2664  req.addInt(\"times\", 100) */\n      tag_114\n      0x40\n      dup1\n      mload\n      swap1\n      dup2\n      add\n      0x40\n      mstore\n      dup1\n      0x5\n      dup2\n      mstore\n      0x20\n      add\n      0x74696d6573000000000000000000000000000000000000000000000000000000\n      dup2\n      mstore\n      pop\n        /* \"contracts/InternalContract.sol\":2660:2663  100 */\n      0x64\n        /* \"contracts/InternalContract.sol\":2640:2643  req */\n      dup4\n        /* \"contracts/InternalContract.sol\":2640:2650  req.addInt */\n      tag_82\n      swap1\n        /* \"contracts/InternalContract.sol\":2640:2664  req.addInt(\"times\", 100) */\n      swap3\n      swap2\n      swap1\n      0xffffffff\n      and\n      jump\t// in\n    tag_114:\n        /* \"contracts/InternalContract.sol\":2682:2730  sendPluginRequestTo(oracle, req, ORACLE_PAYMENT) */\n      tag_115\n        /* \"contracts/InternalContract.sol\":2702:2708  oracle */\n      0x7\n      0x0\n      swap1\n      sload\n      swap1\n      0x100\n      exp\n      swap1\n      div\n      0xffffffffffffffffffffffffffffffffffffffff\n      and\n        /* \"contracts/InternalContract.sol\":2710:2713  req */\n      dup3\n        /* \"contracts/InternalContract.sol\":277:290  0.01 * 10**18 */\n      0x2386f26fc10000\n        /* \"contracts/InternalContract.sol\":2682:2701  sendPluginRequestTo */\n      tag_84\n        /* \"contracts/InternalContract.sol\":2682:2730  sendPluginRequestTo(oracle, req, ORACLE_PAYMENT) */\n      jump\t// in\n    tag_115:\n        /* \"contracts/InternalContract.sol\":2670:2730  requestId = sendPluginRequestTo(oracle, req, ORACLE_PAYMENT) */\n      swap3\n      pop\n        /* \"contracts/InternalContract.sol\":2789:2798  requestId */\n      dup3\n        /* \"contracts/InternalContract.sol\":2741:2799  requestCreated(_caller, stringToBytes32(jobId), requestId) */\n      not(0x0)\n      and\n        /* \"contracts/InternalContract.sol\":2765:2787  stringToBytes32(jobId) */\n      tag_116\n        /* \"contracts/InternalContract.sol\":2781:2786  jobId */\n      0x8\n        /* \"contracts/InternalContract.sol\":2765:2787  stringToBytes32(jobId) */\n      dup1\n      sload\n      0x1\n      dup2\n      0x1\n      and\n      iszero\n      0x100\n      mul\n      sub\n      and\n      0x2\n      swap1\n      div\n      dup1\n      0x1f\n      add\n      0x20\n      dup1\n      swap2\n      div\n      mul\n      0x20\n      add\n      mload(0x40)\n      swap1\n      dup2\n      add\n      0x40\n      mstore\n      dup1\n      swap3\n      swap2\n      swap1\n      dup2\n      dup2\n      mstore\n      0x20\n      add\n      dup3\n      dup1\n      sload\n      0x1\n      dup2\n      0x1\n      and\n      iszero\n      0x100\n      mul\n      sub\n      and\n      0x2\n      swap1\n      div\n      dup1\n      iszero\n      tag_117\n      jumpi\n      dup1\n      0x1f\n      lt\n      tag_118\n      jumpi\n      0x100\n      dup1\n      dup4\n      sload\n      div\n      mul\n      dup4\n      mstore\n      swap2\n      0x20\n      add\n      swap2\n      jump(tag_117)\n    tag_118:\n      dup3\n      add\n      swap2\n      swap1\n      0x0\n      mstore\n      keccak256(0x0, 0x20)\n      swap1\n    tag_119:\n      dup2\n      sload\n      dup2\n      mstore\n      swap1\n      0x1\n      add\n      swap1\n      0x20\n      add\n      dup1\n      dup4\n      gt\n      tag_119\n      jumpi\n      dup3\n      swap1\n      sub\n      0x1f\n      and\n      dup3\n      add\n      swap2\n    tag_117:\n      pop\n      pop\n      pop\n      pop\n      pop\n        /* \"contracts/InternalContract.sol\":2765:2780  stringToBytes32 */\n      tag_76\n        /* \"contracts/InternalContract.sol\":2765:2787  stringToBytes32(jobId) */\n      jump\t// in\n    tag_116:\n        /* \"contracts/InternalContract.sol\":2741:2799  requestCreated(_caller, stringToBytes32(jobId), requestId) */\n      not(0x0)\n      and\n        /* \"contracts/InternalContract.sol\":2756:2763  _caller */\n      dup6\n        /* \"contracts/InternalContract.sol\":2741:2799  requestCreated(_caller, stringToBytes32(jobId), requestId) */\n      0xffffffffffffffffffffffffffffffffffffffff\n      and\n      0x7f3df4038a13e7b83557e5a0ebf67fec07391a522319ab42e81255e88de18ffb\n      mload(0x40)\n      mload(0x40)\n      dup1\n      swap2\n      sub\n      swap1\n      log4\n        /* \"contracts/InternalContract.sol\":2049:2804  function requestData(address _caller)... */\n      pop\n      pop\n      swap2\n      swap1\n      pop\n      jump\t// out\n        /* \"contracts/InternalContract.sol\":581:626  mapping(address => PLIDatabase) public plidbs */\n    tag_46:\n      mstore(0x20, 0xa)\n      dup1\n      0x0\n      mstore\n      keccak256(0x0, 0x40)\n      0x0\n      swap2\n      pop\n      swap1\n      pop\n      dup1\n      0x0\n      add\n      0x0\n      swap1\n      sload\n      swap1\n      0x100\n      exp\n      swap1\n      div\n      0xffffffffffffffffffffffffffffffffffffffff\n      and\n      swap1\n      dup1\n      0x1\n      add\n      sload\n      swap1\n      pop\n      dup3\n      jump\t// out\n        /* \"contracts/InternalContract.sol\":3505:3599  function getPluginToken() public view returns (address) {... */\n    tag_49:\n        /* \"contracts/InternalContract.sol\":3552:3559  address */\n      0x0\n        /* \"contracts/InternalContract.sol\":3574:3594  pluginTokenAddress() */\n      tag_121\n        /* \"contracts/InternalContract.sol\":3574:3592  pluginTokenAddress */\n      tag_89\n        /* \"contracts/InternalContract.sol\":3574:3594  pluginTokenAddress() */\n      jump\t// in\n    tag_121:\n        /* \"contracts/InternalContract.sol\":3567:3594  return pluginTokenAddress() */\n      swap1\n      pop\n        /* \"contracts/InternalContract.sol\":3505:3599  function getPluginToken() public view returns (address) {... */\n      swap1\n      jump\t// out\n        /* \"contracts/InternalContract.sol\":368:388  string  public jobId */\n    tag_52:\n      0x8\n      dup1\n      sload\n      0x1\n      dup2\n      0x1\n      and\n      iszero\n      0x100\n      mul\n      sub\n      and\n      0x2\n      swap1\n      div\n      dup1\n      0x1f\n      add\n      0x20\n      dup1\n      swap2\n      div\n      mul\n      0x20\n      add\n      mload(0x40)\n      swap1\n      dup2\n      add\n      0x40\n      mstore\n      dup1\n      swap3\n      swap2\n      swap1\n      dup2\n      dup2\n      mstore\n      0x20\n      add\n      dup3\n      dup1\n      sload\n      0x1\n      dup2\n      0x1\n      and\n      iszero\n      0x100\n      mul\n      sub\n      and\n      0x2\n      swap1\n      div\n      dup1\n      iszero\n      tag_122\n      jumpi\n      dup1\n      0x1f\n      lt\n      tag_123\n      jumpi\n      0x100\n      dup1\n      dup4\n      sload\n      div\n      mul\n      dup4\n      mstore\n      swap2\n      0x20\n      add\n      swap2\n      jump(tag_122)\n    tag_123:\n      dup3\n      add\n      swap2\n      swap1\n      0x0\n      mstore\n      keccak256(0x0, 0x20)\n      swap1\n    tag_124:\n      dup2\n      sload\n      dup2\n      mstore\n      swap1\n      0x1\n      add\n      swap1\n      0x20\n      add\n      dup1\n      dup4\n      gt\n      tag_124\n      jumpi\n      dup3\n      swap1\n      sub\n      0x1f\n      and\n      dup3\n      add\n      swap2\n    tag_122:\n      pop\n      pop\n      pop\n      pop\n      pop\n      dup2\n      jump\t// out\n        /* \"contracts/InternalContract.sol\":1132:1687  function depositPLI(uint256 _value) public returns(bool) {... */\n    tag_59:\n        /* \"contracts/InternalContract.sol\":1183:1187  bool */\n      0x0\n        /* \"contracts/InternalContract.sol\":1293:1314  PliTokenInterface pli */\n      dup1\n        /* \"contracts/InternalContract.sol\":1466:1491  PLIDatabase memory _plidb */\n      tag_125\n      jump\t// in(tag_126)\n    tag_125:\n        /* \"contracts/InternalContract.sol\":1520:1541  uint256 _totalCredits */\n      0x0\n        /* \"contracts/InternalContract.sol\":1213:1223  100*10**18 */\n      0x56bc75e2d63100000\n        /* \"contracts/InternalContract.sol\":1205:1211  _value */\n      dup6\n        /* \"contracts/InternalContract.sol\":1205:1223  _value<=100*10**18 */\n      gt\n      iszero\n        /* \"contracts/InternalContract.sol\":1197:1252  require(_value<=100*10**18,\"NOT_MORE_THAN_100_ALLOWED\") */\n      iszero\n      iszero\n      tag_128\n      jumpi\n      mload(0x40)\n      0x8c379a000000000000000000000000000000000000000000000000000000000\n      dup2\n      mstore\n      0x4\n      add\n      dup1\n      dup1\n      0x20\n      add\n      dup3\n      dup2\n      sub\n      dup3\n      mstore\n      0x19\n      dup2\n      mstore\n      0x20\n      add\n      dup1\n      0x4e4f545f4d4f52455f5448414e5f3130305f414c4c4f57454400000000000000\n      dup2\n      mstore\n      pop\n      0x20\n      add\n      swap2\n      pop\n      pop\n      mload(0x40)\n      dup1\n      swap2\n      sub\n      swap1\n      revert\n    tag_128:\n        /* \"contracts/InternalContract.sol\":1335:1355  pluginTokenAddress() */\n      tag_129\n        /* \"contracts/InternalContract.sol\":1335:1353  pluginTokenAddress */\n      tag_89\n        /* \"contracts/InternalContract.sol\":1335:1355  pluginTokenAddress() */\n      jump\t// in\n    tag_129:\n        /* \"contracts/InternalContract.sol\":1293:1356  PliTokenInterface pli = PliTokenInterface(pluginTokenAddress()) */\n      swap3\n      pop\n        /* \"contracts/InternalContract.sol\":1364:1367  pli */\n      dup3\n        /* \"contracts/InternalContract.sol\":1364:1380  pli.transferFrom */\n      0xffffffffffffffffffffffffffffffffffffffff\n      and\n      0x23b872dd\n        /* \"contracts/InternalContract.sol\":1381:1391  msg.sender */\n      caller\n        /* \"contracts/InternalContract.sol\":1400:1404  this */\n      address\n        /* \"contracts/InternalContract.sol\":1406:1412  _value */\n      dup9\n        /* \"contracts/InternalContract.sol\":1364:1413  pli.transferFrom(msg.sender,address(this),_value) */\n      mload(0x40)\n      dup5\n      0xffffffff\n      and\n      0x100000000000000000000000000000000000000000000000000000000\n      mul\n      dup2\n      mstore\n      0x4\n      add\n      dup1\n      dup5\n      0xffffffffffffffffffffffffffffffffffffffff\n      and\n      0xffffffffffffffffffffffffffffffffffffffff\n      and\n      dup2\n      mstore\n      0x20\n      add\n      dup4\n      0xffffffffffffffffffffffffffffffffffffffff\n      and\n      0xffffffffffffffffffffffffffffffffffffffff\n      and\n      dup2\n      mstore\n      0x20\n      add\n      dup3\n      dup2\n      mstore\n      0x20\n      add\n      swap4\n      pop\n      pop\n      pop\n      pop\n      0x20\n      mload(0x40)\n      dup1\n      dup4\n      sub\n      dup2\n      0x0\n      dup8\n      dup1\n      extcodesize\n      iszero\n        /* \"--CODEGEN--\":8:17   */\n      dup1\n        /* \"--CODEGEN--\":5:7   */\n      iszero\n      tag_130\n      jumpi\n        /* \"--CODEGEN--\":30:31   */\n      0x0\n        /* \"--CODEGEN--\":27:28   */\n      dup1\n        /* \"--CODEGEN--\":20:32   */\n      revert\n        /* \"--CODEGEN--\":5:7   */\n    tag_130:\n        /* \"contracts/InternalContract.sol\":1364:1413  pli.transferFrom(msg.sender,address(this),_value) */\n      pop\n      gas\n      call\n      iszero\n        /* \"--CODEGEN--\":8:17   */\n      dup1\n        /* \"--CODEGEN--\":5:7   */\n      iszero\n      tag_131\n      jumpi\n        /* \"--CODEGEN--\":45:61   */\n      returndatasize\n        /* \"--CODEGEN--\":42:43   */\n      0x0\n        /* \"--CODEGEN--\":39:40   */\n      dup1\n        /* \"--CODEGEN--\":24:62   */\n      returndatacopy\n        /* \"--CODEGEN--\":77:93   */\n      returndatasize\n        /* \"--CODEGEN--\":74:75   */\n      0x0\n        /* \"--CODEGEN--\":67:94   */\n      revert\n        /* \"--CODEGEN--\":5:7   */\n    tag_131:\n        /* \"contracts/InternalContract.sol\":1364:1413  pli.transferFrom(msg.sender,address(this),_value) */\n      pop\n      pop\n      pop\n      pop\n      mload(0x40)\n      returndatasize\n        /* \"--CODEGEN--\":13:15   */\n      0x20\n        /* \"--CODEGEN--\":8:11   */\n      dup2\n        /* \"--CODEGEN--\":5:16   */\n      lt\n        /* \"--CODEGEN--\":2:4   */\n      iszero\n      tag_132\n      jumpi\n        /* \"--CODEGEN--\":29:30   */\n      0x0\n        /* \"--CODEGEN--\":26:27   */\n      dup1\n        /* \"--CODEGEN--\":19:31   */\n      revert\n        /* \"--CODEGEN--\":2:4   */\n    tag_132:\n        /* \"contracts/InternalContract.sol\":1364:1413  pli.transferFrom(msg.sender,address(this),_value) */\n      dup2\n      add\n      swap1\n      dup1\n      dup1\n      mload\n      swap1\n      0x20\n      add\n      swap1\n      swap3\n      swap2\n      swap1\n      pop\n      pop\n      pop\n      pop\n        /* \"contracts/InternalContract.sol\":1494:1500  plidbs */\n      0xa\n        /* \"contracts/InternalContract.sol\":1494:1512  plidbs[msg.sender] */\n      0x0\n        /* \"contracts/InternalContract.sol\":1501:1511  msg.sender */\n      caller\n        /* \"contracts/InternalContract.sol\":1494:1512  plidbs[msg.sender] */\n      0xffffffffffffffffffffffffffffffffffffffff\n      and\n      0xffffffffffffffffffffffffffffffffffffffff\n      and\n      dup2\n      mstore\n      0x20\n      add\n      swap1\n      dup2\n      mstore\n      0x20\n      add\n      0x0\n      keccak256\n        /* \"contracts/InternalContract.sol\":1466:1512  PLIDatabase memory _plidb = plidbs[msg.sender] */\n      0x40\n      dup1\n      mload\n      swap1\n      dup2\n      add\n      0x40\n      mstore\n      swap1\n      dup2\n      0x0\n      dup3\n      add\n      0x0\n      swap1\n      sload\n      swap1\n      0x100\n      exp\n      swap1\n      div\n      0xffffffffffffffffffffffffffffffffffffffff\n      and\n      0xffffffffffffffffffffffffffffffffffffffff\n      and\n      0xffffffffffffffffffffffffffffffffffffffff\n      and\n      dup2\n      mstore\n      0x20\n      add\n      0x1\n      dup3\n      add\n      sload\n      dup2\n      mstore\n      pop\n      pop\n      swap2\n      pop\n        /* \"contracts/InternalContract.sol\":1566:1572  _value */\n      dup5\n        /* \"contracts/InternalContract.sol\":1544:1550  _plidb */\n      dup3\n        /* \"contracts/InternalContract.sol\":1544:1563  _plidb.totalcredits */\n      0x20\n      add\n      mload\n        /* \"contracts/InternalContract.sol\":1544:1572  _plidb.totalcredits + _value */\n      add\n        /* \"contracts/InternalContract.sol\":1520:1572  uint256 _totalCredits = _plidb.totalcredits + _value */\n      swap1\n      pop\n        /* \"contracts/InternalContract.sol\":1601:1663  PLIDatabase(... */\n      0x40\n      dup1\n      mload\n      swap1\n      dup2\n      add\n      0x40\n      mstore\n      dup1\n        /* \"contracts/InternalContract.sol\":1622:1632  msg.sender */\n      caller\n        /* \"contracts/InternalContract.sol\":1601:1663  PLIDatabase(... */\n      0xffffffffffffffffffffffffffffffffffffffff\n      and\n      dup2\n      mstore\n      0x20\n      add\n        /* \"contracts/InternalContract.sol\":1642:1655  _totalCredits */\n      dup3\n        /* \"contracts/InternalContract.sol\":1601:1663  PLIDatabase(... */\n      dup2\n      mstore\n      pop\n        /* \"contracts/InternalContract.sol\":1580:1586  plidbs */\n      0xa\n        /* \"contracts/InternalContract.sol\":1580:1598  plidbs[msg.sender] */\n      0x0\n        /* \"contracts/InternalContract.sol\":1587:1597  msg.sender */\n      caller\n        /* \"contracts/InternalContract.sol\":1580:1598  plidbs[msg.sender] */\n      0xffffffffffffffffffffffffffffffffffffffff\n      and\n      0xffffffffffffffffffffffffffffffffffffffff\n      and\n      dup2\n      mstore\n      0x20\n      add\n      swap1\n      dup2\n      mstore\n      0x20\n      add\n      0x0\n      keccak256\n        /* \"contracts/InternalContract.sol\":1580:1663  plidbs[msg.sender] = PLIDatabase(... */\n      0x0\n      dup3\n      add\n      mload\n      dup2\n      0x0\n      add\n      exp(0x100, 0x0)\n      dup2\n      sload\n      dup2\n      0xffffffffffffffffffffffffffffffffffffffff\n      mul\n      not\n      and\n      swap1\n      dup4\n      0xffffffffffffffffffffffffffffffffffffffff\n      and\n      mul\n      or\n      swap1\n      sstore\n      pop\n      0x20\n      dup3\n      add\n      mload\n      dup2\n      0x1\n      add\n      sstore\n      swap1\n      pop\n      pop\n        /* \"contracts/InternalContract.sol\":1678:1682  true */\n      0x1\n        /* \"contracts/InternalContract.sol\":1671:1682  return true */\n      swap4\n      pop\n        /* \"contracts/InternalContract.sol\":1132:1687  function depositPLI(uint256 _value) public returns(bool) {... */\n      pop\n      pop\n      pop\n      swap2\n      swap1\n      pop\n      jump\t// out\n        /* \"contracts/InternalContract.sol\":3891:4134  function cancelRequest(... */\n    tag_62:\n        /* \"@goplugin/contracts/src/v0.4/vendor/Ownable.sol\":719:724  owner */\n      0x6\n      0x0\n      swap1\n      sload\n      swap1\n      0x100\n      exp\n      swap1\n      div\n      0xffffffffffffffffffffffffffffffffffffffff\n      and\n        /* \"@goplugin/contracts/src/v0.4/vendor/Ownable.sol\":705:724  msg.sender == owner */\n      0xffffffffffffffffffffffffffffffffffffffff\n      and\n        /* \"@goplugin/contracts/src/v0.4/vendor/Ownable.sol\":705:715  msg.sender */\n      caller\n        /* \"@goplugin/contracts/src/v0.4/vendor/Ownable.sol\":705:724  msg.sender == owner */\n      0xffffffffffffffffffffffffffffffffffffffff\n      and\n      eq\n        /* \"@goplugin/contracts/src/v0.4/vendor/Ownable.sol\":697:725  require(msg.sender == owner) */\n      iszero\n      iszero\n      tag_134\n      jumpi\n      0x0\n      dup1\n      revert\n    tag_134:\n        /* \"contracts/InternalContract.sol\":4054:4129  cancelPluginRequest(_requestId, _payment, _callbackFunctionId, _expiration) */\n      tag_136\n        /* \"contracts/InternalContract.sol\":4074:4084  _requestId */\n      dup5\n        /* \"contracts/InternalContract.sol\":4086:4094  _payment */\n      dup5\n        /* \"contracts/InternalContract.sol\":4096:4115  _callbackFunctionId */\n      dup5\n        /* \"contracts/InternalContract.sol\":4117:4128  _expiration */\n      dup5\n        /* \"contracts/InternalContract.sol\":4054:4073  cancelPluginRequest */\n      tag_137\n        /* \"contracts/InternalContract.sol\":4054:4129  cancelPluginRequest(_requestId, _payment, _callbackFunctionId, _expiration) */\n      jump\t// in\n    tag_136:\n        /* \"contracts/InternalContract.sol\":3891:4134  function cancelRequest(... */\n      pop\n      pop\n      pop\n      pop\n      jump\t// out\n        /* \"@goplugin/contracts/src/v0.4/vendor/Ownable.sol\":1274:1377  function transferOwnership(address _newOwner) public onlyOwner {... */\n    tag_65:\n        /* \"@goplugin/contracts/src/v0.4/vendor/Ownable.sol\":719:724  owner */\n      0x6\n      0x0\n      swap1\n      sload\n      swap1\n      0x100\n      exp\n      swap1\n      div\n      0xffffffffffffffffffffffffffffffffffffffff\n      and\n        /* \"@goplugin/contracts/src/v0.4/vendor/Ownable.sol\":705:724  msg.sender == owner */\n      0xffffffffffffffffffffffffffffffffffffffff\n      and\n        /* \"@goplugin/contracts/src/v0.4/vendor/Ownable.sol\":705:715  msg.sender */\n      caller\n        /* \"@goplugin/contracts/src/v0.4/vendor/Ownable.sol\":705:724  msg.sender == owner */\n      0xffffffffffffffffffffffffffffffffffffffff\n      and\n      eq\n        /* \"@goplugin/contracts/src/v0.4/vendor/Ownable.sol\":697:725  require(msg.sender == owner) */\n      iszero\n      iszero\n      tag_139\n      jumpi\n      0x0\n      dup1\n      revert\n    tag_139:\n        /* \"@goplugin/contracts/src/v0.4/vendor/Ownable.sol\":1343:1372  _transferOwnership(_newOwner) */\n      tag_141\n        /* \"@goplugin/contracts/src/v0.4/vendor/Ownable.sol\":1362:1371  _newOwner */\n      dup2\n        /* \"@goplugin/contracts/src/v0.4/vendor/Ownable.sol\":1343:1361  _transferOwnership */\n      tag_142\n        /* \"@goplugin/contracts/src/v0.4/vendor/Ownable.sol\":1343:1372  _transferOwnership(_newOwner) */\n      jump\t// in\n    tag_141:\n        /* \"@goplugin/contracts/src/v0.4/vendor/Ownable.sol\":1274:1377  function transferOwnership(address _newOwner) public onlyOwner {... */\n      pop\n      jump\t// out\n        /* \"contracts/InternalContract.sol\":4187:4459  function stringToBytes32(string memory source) private pure returns (bytes32 result) {... */\n    tag_76:\n        /* \"contracts/InternalContract.sol\":4256:4270  bytes32 result */\n      0x0\n        /* \"contracts/InternalContract.sol\":4278:4310  bytes memory tempEmptyStringTest */\n      0x60\n        /* \"contracts/InternalContract.sol\":4319:4325  source */\n      dup3\n        /* \"contracts/InternalContract.sol\":4278:4326  bytes memory tempEmptyStringTest = bytes(source) */\n      swap1\n      pop\n        /* \"contracts/InternalContract.sol\":4366:4367  0 */\n      0x0\n        /* \"contracts/InternalContract.sol\":4336:4355  tempEmptyStringTest */\n      dup2\n        /* \"contracts/InternalContract.sol\":4336:4362  tempEmptyStringTest.length */\n      mload\n        /* \"contracts/InternalContract.sol\":4336:4367  tempEmptyStringTest.length == 0 */\n      eq\n        /* \"contracts/InternalContract.sol\":4332:4394  if (tempEmptyStringTest.length == 0) {... */\n      iszero\n      tag_144\n      jumpi\n        /* \"contracts/InternalContract.sol\":4384:4387  0x0 */\n      0x0\n        /* \"contracts/InternalContract.sol\":4377:4387  return 0x0 */\n      0x1\n      mul\n      swap2\n      pop\n      jump(tag_143)\n        /* \"contracts/InternalContract.sol\":4332:4394  if (tempEmptyStringTest.length == 0) {... */\n    tag_144:\n        /* \"contracts/InternalContract.sol\":4445:4447  32 */\n      0x20\n        /* \"contracts/InternalContract.sol\":4437:4443  source */\n      dup4\n        /* \"contracts/InternalContract.sol\":4433:4448  add(source, 32) */\n      add\n        /* \"contracts/InternalContract.sol\":4427:4449  mload(add(source, 32)) */\n      mload\n        /* \"contracts/InternalContract.sol\":4417:4449  result := mload(add(source, 32)) */\n      swap2\n      pop\n        /* \"contracts/InternalContract.sol\":4408:4455  { ... */\n    tag_143:\n      pop\n      swap2\n      swap1\n      pop\n      jump\t// out\n        /* \"@goplugin/contracts/src/v0.4/PluginClient.sol\":1680:1966  function buildPluginRequest(... */\n    tag_77:\n        /* \"@goplugin/contracts/src/v0.4/PluginClient.sol\":1825:1839  Plugin.Request */\n      tag_145\n      jump\t// in(tag_67)\n    tag_145:\n        /* \"@goplugin/contracts/src/v0.4/PluginClient.sol\":1854:1879  Plugin.Request memory req */\n      tag_146\n      jump\t// in(tag_67)\n    tag_146:\n        /* \"@goplugin/contracts/src/v0.4/PluginClient.sol\":1892:1961  req.initialize(_specId, _callbackAddress, _callbackFunctionSignature) */\n      tag_148\n        /* \"@goplugin/contracts/src/v0.4/PluginClient.sol\":1907:1914  _specId */\n      dup6\n        /* \"@goplugin/contracts/src/v0.4/PluginClient.sol\":1916:1932  _callbackAddress */\n      dup6\n        /* \"@goplugin/contracts/src/v0.4/PluginClient.sol\":1934:1960  _callbackFunctionSignature */\n      dup6\n        /* \"@goplugin/contracts/src/v0.4/PluginClient.sol\":1892:1895  req */\n      dup5\n        /* \"@goplugin/contracts/src/v0.4/PluginClient.sol\":1892:1906  req.initialize */\n      tag_149\n      swap1\n        /* \"@goplugin/contracts/src/v0.4/PluginClient.sol\":1892:1961  req.initialize(_specId, _callbackAddress, _callbackFunctionSignature) */\n      swap4\n      swap3\n      swap2\n      swap1\n      0xffffffff\n      and\n      jump\t// in\n    tag_148:\n        /* \"@goplugin/contracts/src/v0.4/PluginClient.sol\":1885:1961  return req.initialize(_specId, _callbackAddress, _callbackFunctionSignature) */\n      swap2\n      pop\n        /* \"@goplugin/contracts/src/v0.4/PluginClient.sol\":1680:1966  function buildPluginRequest(... */\n      pop\n      swap4\n      swap3\n      pop\n      pop\n      pop\n      jump\t// out\n        /* \"@goplugin/contracts/src/v0.4/Plugin.sol\":1922:2077  function add(Request memory self, string _key, string _value)... */\n    tag_79:\n        /* \"@goplugin/contracts/src/v0.4/Plugin.sol\":2010:2037  self.buf.encodeString(_key) */\n      tag_151\n        /* \"@goplugin/contracts/src/v0.4/Plugin.sol\":2032:2036  _key */\n      dup3\n        /* \"@goplugin/contracts/src/v0.4/Plugin.sol\":2010:2014  self */\n      dup5\n        /* \"@goplugin/contracts/src/v0.4/Plugin.sol\":2010:2018  self.buf */\n      0x80\n      add\n      mload\n        /* \"@goplugin/contracts/src/v0.4/Plugin.sol\":2010:2031  self.buf.encodeString */\n      tag_152\n      swap1\n        /* \"@goplugin/contracts/src/v0.4/Plugin.sol\":2010:2037  self.buf.encodeString(_key) */\n      swap2\n      swap1\n      0xffffffff\n      and\n      jump\t// in\n    tag_151:\n        /* \"@goplugin/contracts/src/v0.4/Plugin.sol\":2043:2072  self.buf.encodeString(_value) */\n      tag_153\n        /* \"@goplugin/contracts/src/v0.4/Plugin.sol\":2065:2071  _value */\n      dup2\n        /* \"@goplugin/contracts/src/v0.4/Plugin.sol\":2043:2047  self */\n      dup5\n        /* \"@goplugin/contracts/src/v0.4/Plugin.sol\":2043:2051  self.buf */\n      0x80\n      add\n      mload\n        /* \"@goplugin/contracts/src/v0.4/Plugin.sol\":2043:2064  self.buf.encodeString */\n      tag_152\n      swap1\n        /* \"@goplugin/contracts/src/v0.4/Plugin.sol\":2043:2072  self.buf.encodeString(_value) */\n      swap2\n      swap1\n      0xffffffff\n      and\n      jump\t// in\n    tag_153:\n        /* \"@goplugin/contracts/src/v0.4/Plugin.sol\":1922:2077  function add(Request memory self, string _key, string _value)... */\n      pop\n      pop\n      pop\n      jump\t// out\n        /* \"@goplugin/contracts/src/v0.4/Plugin.sol\":2647:2802  function addInt(Request memory self, string _key, int256 _value)... */\n    tag_82:\n        /* \"@goplugin/contracts/src/v0.4/Plugin.sol\":2738:2765  self.buf.encodeString(_key) */\n      tag_155\n        /* \"@goplugin/contracts/src/v0.4/Plugin.sol\":2760:2764  _key */\n      dup3\n        /* \"@goplugin/contracts/src/v0.4/Plugin.sol\":2738:2742  self */\n      dup5\n        /* \"@goplugin/contracts/src/v0.4/Plugin.sol\":2738:2746  self.buf */\n      0x80\n      add\n      mload\n        /* \"@goplugin/contracts/src/v0.4/Plugin.sol\":2738:2759  self.buf.encodeString */\n      tag_152\n      swap1\n        /* \"@goplugin/contracts/src/v0.4/Plugin.sol\":2738:2765  self.buf.encodeString(_key) */\n      swap2\n      swap1\n      0xffffffff\n      and\n      jump\t// in\n    tag_155:\n        /* \"@goplugin/contracts/src/v0.4/Plugin.sol\":2771:2797  self.buf.encodeInt(_value) */\n      tag_156\n        /* \"@goplugin/contracts/src/v0.4/Plugin.sol\":2790:2796  _value */\n      dup2\n        /* \"@goplugin/contracts/src/v0.4/Plugin.sol\":2771:2775  self */\n      dup5\n        /* \"@goplugin/contracts/src/v0.4/Plugin.sol\":2771:2779  self.buf */\n      0x80\n      add\n      mload\n        /* \"@goplugin/contracts/src/v0.4/Plugin.sol\":2771:2789  self.buf.encodeInt */\n      tag_157\n      swap1\n        /* \"@goplugin/contracts/src/v0.4/Plugin.sol\":2771:2797  self.buf.encodeInt(_value) */\n      swap2\n      swap1\n      0xffffffff\n      and\n      jump\t// in\n    tag_156:\n        /* \"@goplugin/contracts/src/v0.4/Plugin.sol\":2647:2802  function addInt(Request memory self, string _key, int256 _value)... */\n      pop\n      pop\n      pop\n      jump\t// out\n        /* \"@goplugin/contracts/src/v0.4/PluginClient.sol\":2917:3383  function sendPluginRequestTo(address _oracle, Plugin.Request memory _req, uint256 _payment)... */\n    tag_84:\n        /* \"@goplugin/contracts/src/v0.4/PluginClient.sol\":3035:3052  bytes32 requestId */\n      0x0\n        /* \"@goplugin/contracts/src/v0.4/PluginClient.sol\":3101:3105  this */\n      address\n        /* \"@goplugin/contracts/src/v0.4/PluginClient.sol\":3107:3115  requests */\n      sload(0x4)\n        /* \"@goplugin/contracts/src/v0.4/PluginClient.sol\":3084:3116  abi.encodePacked(this, requests) */\n      add(0x20, mload(0x40))\n      dup1\n      dup4\n      0xffffffffffffffffffffffffffffffffffffffff\n      and\n      0xffffffffffffffffffffffffffffffffffffffff\n      and\n      0x1000000000000000000000000\n      mul\n      dup2\n      mstore\n      0x14\n      add\n      dup3\n      dup2\n      mstore\n      0x20\n      add\n      swap3\n      pop\n      pop\n      pop\n      mload(0x40)\n        /* \"--CODEGEN--\":49:53   */\n      0x20\n        /* \"--CODEGEN--\":39:46   */\n      dup2\n        /* \"--CODEGEN--\":30:37   */\n      dup4\n        /* \"--CODEGEN--\":26:47   */\n      sub\n        /* \"--CODEGEN--\":22:54   */\n      sub\n        /* \"--CODEGEN--\":13:20   */\n      dup2\n        /* \"--CODEGEN--\":6:55   */\n      mstore\n        /* \"@goplugin/contracts/src/v0.4/PluginClient.sol\":3084:3116  abi.encodePacked(this, requests) */\n      swap1\n      0x40\n      mstore\n        /* \"@goplugin/contracts/src/v0.4/PluginClient.sol\":3074:3117  keccak256(abi.encodePacked(this, requests)) */\n      mload(0x40)\n      dup1\n      dup3\n      dup1\n      mload\n      swap1\n      0x20\n      add\n      swap1\n      dup1\n      dup4\n      dup4\n        /* \"--CODEGEN--\":36:189   */\n    tag_159:\n        /* \"--CODEGEN--\":66:68   */\n      0x20\n        /* \"--CODEGEN--\":61:64   */\n      dup4\n        /* \"--CODEGEN--\":58:69   */\n      lt\n        /* \"--CODEGEN--\":51:70   */\n      iszero\n        /* \"--CODEGEN--\":36:189   */\n      iszero\n      tag_160\n      jumpi\n        /* \"--CODEGEN--\":182:185   */\n      dup1\n        /* \"--CODEGEN--\":176:186   */\n      mload\n        /* \"--CODEGEN--\":171:174   */\n      dup3\n        /* \"--CODEGEN--\":164:187   */\n      mstore\n        /* \"--CODEGEN--\":98:100   */\n      0x20\n        /* \"--CODEGEN--\":93:96   */\n      dup3\n        /* \"--CODEGEN--\":89:101   */\n      add\n        /* \"--CODEGEN--\":82:101   */\n      swap2\n      pop\n        /* \"--CODEGEN--\":123:125   */\n      0x20\n        /* \"--CODEGEN--\":118:121   */\n      dup2\n        /* \"--CODEGEN--\":114:126   */\n      add\n        /* \"--CODEGEN--\":107:126   */\n      swap1\n      pop\n        /* \"--CODEGEN--\":148:150   */\n      0x20\n        /* \"--CODEGEN--\":143:146   */\n      dup4\n        /* \"--CODEGEN--\":139:151   */\n      sub\n        /* \"--CODEGEN--\":132:151   */\n      swap3\n      pop\n        /* \"--CODEGEN--\":36:189   */\n      jump(tag_159)\n    tag_160:\n        /* \"--CODEGEN--\":274:275   */\n      0x1\n        /* \"--CODEGEN--\":267:270   */\n      dup4\n        /* \"--CODEGEN--\":263:265   */\n      0x20\n        /* \"--CODEGEN--\":259:271   */\n      sub\n        /* \"--CODEGEN--\":254:257   */\n      0x100\n        /* \"--CODEGEN--\":250:272   */\n      exp\n        /* \"--CODEGEN--\":246:276   */\n      sub\n        /* \"--CODEGEN--\":315:319   */\n      dup1\n        /* \"--CODEGEN--\":311:320   */\n      not\n        /* \"--CODEGEN--\":305:308   */\n      dup3\n        /* \"--CODEGEN--\":299:309   */\n      mload\n        /* \"--CODEGEN--\":295:321   */\n      and\n        /* \"--CODEGEN--\":356:360   */\n      dup2\n        /* \"--CODEGEN--\":350:353   */\n      dup5\n        /* \"--CODEGEN--\":344:354   */\n      mload\n        /* \"--CODEGEN--\":340:361   */\n      and\n        /* \"--CODEGEN--\":389:396   */\n      dup1\n        /* \"--CODEGEN--\":380:387   */\n      dup3\n        /* \"--CODEGEN--\":377:397   */\n      or\n        /* \"--CODEGEN--\":372:375   */\n      dup6\n        /* \"--CODEGEN--\":365:398   */\n      mstore\n        /* \"--CODEGEN--\":3:402   */\n      pop\n      pop\n      pop\n        /* \"@goplugin/contracts/src/v0.4/PluginClient.sol\":3074:3117  keccak256(abi.encodePacked(this, requests)) */\n      pop\n      pop\n      pop\n      swap1\n      pop\n      add\n      swap2\n      pop\n      pop\n      mload(0x40)\n      dup1\n      swap2\n      sub\n      swap1\n      keccak256\n        /* \"@goplugin/contracts/src/v0.4/PluginClient.sol\":3062:3117  requestId = keccak256(abi.encodePacked(this, requests)) */\n      swap1\n      pop\n        /* \"@goplugin/contracts/src/v0.4/PluginClient.sol\":3136:3144  requests */\n      sload(0x4)\n        /* \"@goplugin/contracts/src/v0.4/PluginClient.sol\":3123:3127  _req */\n      dup4\n        /* \"@goplugin/contracts/src/v0.4/PluginClient.sol\":3123:3133  _req.nonce */\n      0x60\n      add\n        /* \"@goplugin/contracts/src/v0.4/PluginClient.sol\":3123:3144  _req.nonce = requests */\n      dup2\n      dup2\n      mstore\n      pop\n      pop\n        /* \"@goplugin/contracts/src/v0.4/PluginClient.sol\":3179:3186  _oracle */\n      dup4\n        /* \"@goplugin/contracts/src/v0.4/PluginClient.sol\":3150:3165  pendingRequests */\n      0x5\n        /* \"@goplugin/contracts/src/v0.4/PluginClient.sol\":3150:3176  pendingRequests[requestId] */\n      0x0\n        /* \"@goplugin/contracts/src/v0.4/PluginClient.sol\":3166:3175  requestId */\n      dup4\n        /* \"@goplugin/contracts/src/v0.4/PluginClient.sol\":3150:3176  pendingRequests[requestId] */\n      not(0x0)\n      and\n      not(0x0)\n      and\n      dup2\n      mstore\n      0x20\n      add\n      swap1\n      dup2\n      mstore\n      0x20\n      add\n      0x0\n      keccak256\n      0x0\n        /* \"@goplugin/contracts/src/v0.4/PluginClient.sol\":3150:3186  pendingRequests[requestId] = _oracle */\n      0x100\n      exp\n      dup2\n      sload\n      dup2\n      0xffffffffffffffffffffffffffffffffffffffff\n      mul\n      not\n      and\n      swap1\n      dup4\n      0xffffffffffffffffffffffffffffffffffffffff\n      and\n      mul\n      or\n      swap1\n      sstore\n      pop\n        /* \"@goplugin/contracts/src/v0.4/PluginClient.sol\":3213:3222  requestId */\n      dup1\n        /* \"@goplugin/contracts/src/v0.4/PluginClient.sol\":3197:3223  PluginRequested(requestId) */\n      not(0x0)\n      and\n      0xa6745906207afb96a5801b8e5711fd7b74c5780ce893a973806e179d675bbe24\n      mload(0x40)\n      mload(0x40)\n      dup1\n      swap2\n      sub\n      swap1\n      log2\n        /* \"@goplugin/contracts/src/v0.4/PluginClient.sol\":3237:3240  pli */\n      0x2\n      0x0\n      swap1\n      sload\n      swap1\n      0x100\n      exp\n      swap1\n      div\n      0xffffffffffffffffffffffffffffffffffffffff\n      and\n        /* \"@goplugin/contracts/src/v0.4/PluginClient.sol\":3237:3256  pli.transferAndCall */\n      0xffffffffffffffffffffffffffffffffffffffff\n      and\n      0x4000aea0\n        /* \"@goplugin/contracts/src/v0.4/PluginClient.sol\":3257:3264  _oracle */\n      dup6\n        /* \"@goplugin/contracts/src/v0.4/PluginClient.sol\":3266:3274  _payment */\n      dup5\n        /* \"@goplugin/contracts/src/v0.4/PluginClient.sol\":3276:3295  encodeRequest(_req) */\n      tag_162\n        /* \"@goplugin/contracts/src/v0.4/PluginClient.sol\":3290:3294  _req */\n      dup8\n        /* \"@goplugin/contracts/src/v0.4/PluginClient.sol\":3276:3289  encodeRequest */\n      tag_163\n        /* \"@goplugin/contracts/src/v0.4/PluginClient.sol\":3276:3295  encodeRequest(_req) */\n      jump\t// in\n    tag_162:\n        /* \"@goplugin/contracts/src/v0.4/PluginClient.sol\":3237:3296  pli.transferAndCall(_oracle, _payment, encodeRequest(_req)) */\n      mload(0x40)\n      dup5\n      0xffffffff\n      and\n      0x100000000000000000000000000000000000000000000000000000000\n      mul\n      dup2\n      mstore\n      0x4\n      add\n      dup1\n      dup5\n      0xffffffffffffffffffffffffffffffffffffffff\n      and\n      0xffffffffffffffffffffffffffffffffffffffff\n      and\n      dup2\n      mstore\n      0x20\n      add\n      dup4\n      dup2\n      mstore\n      0x20\n      add\n      dup1\n      0x20\n      add\n      dup3\n      dup2\n      sub\n      dup3\n      mstore\n      dup4\n      dup2\n      dup2\n      mload\n      dup2\n      mstore\n      0x20\n      add\n      swap2\n      pop\n      dup1\n      mload\n      swap1\n      0x20\n      add\n      swap1\n      dup1\n      dup4\n      dup4\n        /* \"--CODEGEN--\":23:24   */\n      0x0\n        /* \"--CODEGEN--\":8:108   */\n    tag_164:\n        /* \"--CODEGEN--\":33:36   */\n      dup4\n        /* \"--CODEGEN--\":30:31   */\n      dup2\n        /* \"--CODEGEN--\":27:37   */\n      lt\n        /* \"--CODEGEN--\":8:108   */\n      iszero\n      tag_165\n      jumpi\n        /* \"--CODEGEN--\":99:100   */\n      dup1\n        /* \"--CODEGEN--\":94:97   */\n      dup3\n        /* \"--CODEGEN--\":90:101   */\n      add\n        /* \"--CODEGEN--\":84:102   */\n      mload\n        /* \"--CODEGEN--\":80:81   */\n      dup2\n        /* \"--CODEGEN--\":75:78   */\n      dup5\n        /* \"--CODEGEN--\":71:82   */\n      add\n        /* \"--CODEGEN--\":64:103   */\n      mstore\n        /* \"--CODEGEN--\":52:54   */\n      0x20\n        /* \"--CODEGEN--\":49:50   */\n      dup2\n        /* \"--CODEGEN--\":45:55   */\n      add\n        /* \"--CODEGEN--\":40:55   */\n      swap1\n      pop\n        /* \"--CODEGEN--\":8:108   */\n      jump(tag_164)\n    tag_165:\n        /* \"--CODEGEN--\":12:26   */\n      pop\n        /* \"@goplugin/contracts/src/v0.4/PluginClient.sol\":3237:3296  pli.transferAndCall(_oracle, _payment, encodeRequest(_req)) */\n      pop\n      pop\n      pop\n      swap1\n      pop\n      swap1\n      dup2\n      add\n      swap1\n      0x1f\n      and\n      dup1\n      iszero\n      tag_167\n      jumpi\n      dup1\n      dup3\n      sub\n      dup1\n      mload\n      0x1\n      dup4\n      0x20\n      sub\n      0x100\n      exp\n      sub\n      not\n      and\n      dup2\n      mstore\n      0x20\n      add\n      swap2\n      pop\n    tag_167:\n      pop\n      swap5\n      pop\n      pop\n      pop\n      pop\n      pop\n      0x20\n      mload(0x40)\n      dup1\n      dup4\n      sub\n      dup2\n      0x0\n      dup8\n      dup1\n      extcodesize\n      iszero\n        /* \"--CODEGEN--\":8:17   */\n      dup1\n        /* \"--CODEGEN--\":5:7   */\n      iszero\n      tag_168\n      jumpi\n        /* \"--CODEGEN--\":30:31   */\n      0x0\n        /* \"--CODEGEN--\":27:28   */\n      dup1\n        /* \"--CODEGEN--\":20:32   */\n      revert\n        /* \"--CODEGEN--\":5:7   */\n    tag_168:\n        /* \"@goplugin/contracts/src/v0.4/PluginClient.sol\":3237:3296  pli.transferAndCall(_oracle, _payment, encodeRequest(_req)) */\n      pop\n      gas\n      call\n      iszero\n        /* \"--CODEGEN--\":8:17   */\n      dup1\n        /* \"--CODEGEN--\":5:7   */\n      iszero\n      tag_169\n      jumpi\n        /* \"--CODEGEN--\":45:61   */\n      returndatasize\n        /* \"--CODEGEN--\":42:43   */\n      0x0\n        /* \"--CODEGEN--\":39:40   */\n      dup1\n        /* \"--CODEGEN--\":24:62   */\n      returndatacopy\n        /* \"--CODEGEN--\":77:93   */\n      returndatasize\n        /* \"--CODEGEN--\":74:75   */\n      0x0\n        /* \"--CODEGEN--\":67:94   */\n      revert\n        /* \"--CODEGEN--\":5:7   */\n    tag_169:\n        /* \"@goplugin/contracts/src/v0.4/PluginClient.sol\":3237:3296  pli.transferAndCall(_oracle, _payment, encodeRequest(_req)) */\n      pop\n      pop\n      pop\n      pop\n      mload(0x40)\n      returndatasize\n        /* \"--CODEGEN--\":13:15   */\n      0x20\n        /* \"--CODEGEN--\":8:11   */\n      dup2\n        /* \"--CODEGEN--\":5:16   */\n      lt\n        /* \"--CODEGEN--\":2:4   */\n      iszero\n      tag_170\n      jumpi\n        /* \"--CODEGEN--\":29:30   */\n      0x0\n        /* \"--CODEGEN--\":26:27   */\n      dup1\n        /* \"--CODEGEN--\":19:31   */\n      revert\n        /* \"--CODEGEN--\":2:4   */\n    tag_170:\n        /* \"@goplugin/contracts/src/v0.4/PluginClient.sol\":3237:3296  pli.transferAndCall(_oracle, _payment, encodeRequest(_req)) */\n      dup2\n      add\n      swap1\n      dup1\n      dup1\n      mload\n      swap1\n      0x20\n      add\n      swap1\n      swap3\n      swap2\n      swap1\n      pop\n      pop\n      pop\n        /* \"@goplugin/contracts/src/v0.4/PluginClient.sol\":3229:3336  require(pli.transferAndCall(_oracle, _payment, encodeRequest(_req)), \"unable to transferAndCall to oracle\") */\n      iszero\n      iszero\n      tag_171\n      jumpi\n      mload(0x40)\n      0x8c379a000000000000000000000000000000000000000000000000000000000\n      dup2\n      mstore\n      0x4\n      add\n      dup1\n      dup1\n      0x20\n      add\n      dup3\n      dup2\n      sub\n      dup3\n      mstore\n      0x23\n      dup2\n      mstore\n      0x20\n      add\n      dup1\n      0x756e61626c6520746f207472616e73666572416e6443616c6c20746f206f7261\n      dup2\n      mstore\n      0x20\n      add\n      0x636c650000000000000000000000000000000000000000000000000000000000\n      dup2\n      mstore\n      pop\n      0x40\n      add\n      swap2\n      pop\n      pop\n      mload(0x40)\n      dup1\n      swap2\n      sub\n      swap1\n      revert\n    tag_171:\n        /* \"@goplugin/contracts/src/v0.4/PluginClient.sol\":3354:3355  1 */\n      0x1\n        /* \"@goplugin/contracts/src/v0.4/PluginClient.sol\":3342:3350  requests */\n      0x4\n      0x0\n        /* \"@goplugin/contracts/src/v0.4/PluginClient.sol\":3342:3355  requests += 1 */\n      dup3\n      dup3\n      sload\n      add\n      swap3\n      pop\n      pop\n      dup2\n      swap1\n      sstore\n      pop\n        /* \"@goplugin/contracts/src/v0.4/PluginClient.sol\":3369:3378  requestId */\n      dup1\n        /* \"@goplugin/contracts/src/v0.4/PluginClient.sol\":3362:3378  return requestId */\n      swap1\n      pop\n        /* \"@goplugin/contracts/src/v0.4/PluginClient.sol\":2917:3383  function sendPluginRequestTo(address _oracle, Plugin.Request memory _req, uint256 _payment)... */\n      swap4\n      swap3\n      pop\n      pop\n      pop\n      jump\t// out\n        /* \"@goplugin/contracts/src/v0.4/PluginClient.sol\":5072:5178  function pluginTokenAddress()... */\n    tag_89:\n        /* \"@goplugin/contracts/src/v0.4/PluginClient.sol\":5137:5144  address */\n      0x0\n        /* \"@goplugin/contracts/src/v0.4/PluginClient.sol\":5169:5172  pli */\n      0x2\n      0x0\n      swap1\n      sload\n      swap1\n      0x100\n      exp\n      swap1\n      div\n      0xffffffffffffffffffffffffffffffffffffffff\n      and\n        /* \"@goplugin/contracts/src/v0.4/PluginClient.sol\":5154:5173  return address(pli) */\n      swap1\n      pop\n        /* \"@goplugin/contracts/src/v0.4/PluginClient.sol\":5072:5178  function pluginTokenAddress()... */\n      swap1\n      jump\t// out\n        /* \"@goplugin/contracts/src/v0.4/PluginClient.sol\":3899:4304  function cancelPluginRequest(... */\n    tag_137:\n        /* \"@goplugin/contracts/src/v0.4/PluginClient.sol\":4050:4082  PluginRequestInterface requested */\n      0x0\n        /* \"@goplugin/contracts/src/v0.4/PluginClient.sol\":4108:4123  pendingRequests */\n      0x5\n        /* \"@goplugin/contracts/src/v0.4/PluginClient.sol\":4108:4135  pendingRequests[_requestId] */\n      0x0\n        /* \"@goplugin/contracts/src/v0.4/PluginClient.sol\":4124:4134  _requestId */\n      dup7\n        /* \"@goplugin/contracts/src/v0.4/PluginClient.sol\":4108:4135  pendingRequests[_requestId] */\n      not(0x0)\n      and\n      not(0x0)\n      and\n      dup2\n      mstore\n      0x20\n      add\n      swap1\n      dup2\n      mstore\n      0x20\n      add\n      0x0\n      keccak256\n      0x0\n      swap1\n      sload\n      swap1\n      0x100\n      exp\n      swap1\n      div\n      0xffffffffffffffffffffffffffffffffffffffff\n      and\n        /* \"@goplugin/contracts/src/v0.4/PluginClient.sol\":4050:4136  PluginRequestInterface requested = PluginRequestInterface(pendingRequests[_requestId]) */\n      swap1\n      pop\n        /* \"@goplugin/contracts/src/v0.4/PluginClient.sol\":4149:4164  pendingRequests */\n      0x5\n        /* \"@goplugin/contracts/src/v0.4/PluginClient.sol\":4149:4176  pendingRequests[_requestId] */\n      0x0\n        /* \"@goplugin/contracts/src/v0.4/PluginClient.sol\":4165:4175  _requestId */\n      dup7\n        /* \"@goplugin/contracts/src/v0.4/PluginClient.sol\":4149:4176  pendingRequests[_requestId] */\n      not(0x0)\n      and\n      not(0x0)\n      and\n      dup2\n      mstore\n      0x20\n      add\n      swap1\n      dup2\n      mstore\n      0x20\n      add\n      0x0\n      keccak256\n      0x0\n        /* \"@goplugin/contracts/src/v0.4/PluginClient.sol\":4142:4176  delete pendingRequests[_requestId] */\n      0x100\n      exp\n      dup2\n      sload\n      swap1\n      0xffffffffffffffffffffffffffffffffffffffff\n      mul\n      not\n      and\n      swap1\n      sstore\n        /* \"@goplugin/contracts/src/v0.4/PluginClient.sol\":4203:4213  _requestId */\n      dup5\n        /* \"@goplugin/contracts/src/v0.4/PluginClient.sol\":4187:4214  PluginCancelled(_requestId) */\n      not(0x0)\n      and\n      0x715822738dad692e521ebc0193d189bf23153eb1d4420173d6b30cd8add9f9a6\n      mload(0x40)\n      mload(0x40)\n      dup1\n      swap2\n      sub\n      swap1\n      log2\n        /* \"@goplugin/contracts/src/v0.4/PluginClient.sol\":4220:4229  requested */\n      dup1\n        /* \"@goplugin/contracts/src/v0.4/PluginClient.sol\":4220:4249  requested.cancelOracleRequest */\n      0xffffffffffffffffffffffffffffffffffffffff\n      and\n      0x6ee4d553\n        /* \"@goplugin/contracts/src/v0.4/PluginClient.sol\":4250:4260  _requestId */\n      dup7\n        /* \"@goplugin/contracts/src/v0.4/PluginClient.sol\":4262:4270  _payment */\n      dup7\n        /* \"@goplugin/contracts/src/v0.4/PluginClient.sol\":4272:4285  _callbackFunc */\n      dup7\n        /* \"@goplugin/contracts/src/v0.4/PluginClient.sol\":4287:4298  _expiration */\n      dup7\n        /* \"@goplugin/contracts/src/v0.4/PluginClient.sol\":4220:4299  requested.cancelOracleRequest(_requestId, _payment, _callbackFunc, _expiration) */\n      mload(0x40)\n      dup6\n      0xffffffff\n      and\n      0x100000000000000000000000000000000000000000000000000000000\n      mul\n      dup2\n      mstore\n      0x4\n      add\n      dup1\n      dup6\n      not(0x0)\n      and\n      not(0x0)\n      and\n      dup2\n      mstore\n      0x20\n      add\n      dup5\n      dup2\n      mstore\n      0x20\n      add\n      dup4\n      not(0xffffffffffffffffffffffffffffffffffffffffffffffffffffffff)\n      and\n      not(0xffffffffffffffffffffffffffffffffffffffffffffffffffffffff)\n      and\n      dup2\n      mstore\n      0x20\n      add\n      dup3\n      dup2\n      mstore\n      0x20\n      add\n      swap5\n      pop\n      pop\n      pop\n      pop\n      pop\n      0x0\n      mload(0x40)\n      dup1\n      dup4\n      sub\n      dup2\n      0x0\n      dup8\n      dup1\n      extcodesize\n      iszero\n        /* \"--CODEGEN--\":8:17   */\n      dup1\n        /* \"--CODEGEN--\":5:7   */\n      iszero\n      tag_174\n      jumpi\n        /* \"--CODEGEN--\":30:31   */\n      0x0\n        /* \"--CODEGEN--\":27:28   */\n      dup1\n        /* \"--CODEGEN--\":20:32   */\n      revert\n        /* \"--CODEGEN--\":5:7   */\n    tag_174:\n        /* \"@goplugin/contracts/src/v0.4/PluginClient.sol\":4220:4299  requested.cancelOracleRequest(_requestId, _payment, _callbackFunc, _expiration) */\n      pop\n      gas\n      call\n      iszero\n        /* \"--CODEGEN--\":8:17   */\n      dup1\n        /* \"--CODEGEN--\":5:7   */\n      iszero\n      tag_175\n      jumpi\n        /* \"--CODEGEN--\":45:61   */\n      returndatasize\n        /* \"--CODEGEN--\":42:43   */\n      0x0\n        /* \"--CODEGEN--\":39:40   */\n      dup1\n        /* \"--CODEGEN--\":24:62   */\n      returndatacopy\n        /* \"--CODEGEN--\":77:93   */\n      returndatasize\n        /* \"--CODEGEN--\":74:75   */\n      0x0\n        /* \"--CODEGEN--\":67:94   */\n      revert\n        /* \"--CODEGEN--\":5:7   */\n    tag_175:\n        /* \"@goplugin/contracts/src/v0.4/PluginClient.sol\":4220:4299  requested.cancelOracleRequest(_requestId, _payment, _callbackFunc, _expiration) */\n      pop\n      pop\n      pop\n      pop\n        /* \"@goplugin/contracts/src/v0.4/PluginClient.sol\":3899:4304  function cancelPluginRequest(... */\n      pop\n      pop\n      pop\n      pop\n      pop\n      jump\t// out\n        /* \"@goplugin/contracts/src/v0.4/vendor/Ownable.sol\":1512:1683  function _transferOwnership(address _newOwner) internal {... */\n    tag_142:\n        /* \"@goplugin/contracts/src/v0.4/vendor/Ownable.sol\":1603:1604  0 */\n      0x0\n        /* \"@goplugin/contracts/src/v0.4/vendor/Ownable.sol\":1582:1605  _newOwner != address(0) */\n      0xffffffffffffffffffffffffffffffffffffffff\n      and\n        /* \"@goplugin/contracts/src/v0.4/vendor/Ownable.sol\":1582:1591  _newOwner */\n      dup2\n        /* \"@goplugin/contracts/src/v0.4/vendor/Ownable.sol\":1582:1605  _newOwner != address(0) */\n      0xffffffffffffffffffffffffffffffffffffffff\n      and\n      eq\n      iszero\n        /* \"@goplugin/contracts/src/v0.4/vendor/Ownable.sol\":1574:1606  require(_newOwner != address(0)) */\n      iszero\n      iszero\n      tag_177\n      jumpi\n      0x0\n      dup1\n      revert\n    tag_177:\n        /* \"@goplugin/contracts/src/v0.4/vendor/Ownable.sol\":1645:1654  _newOwner */\n      dup1\n        /* \"@goplugin/contracts/src/v0.4/vendor/Ownable.sol\":1617:1655  OwnershipTransferred(owner, _newOwner) */\n      0xffffffffffffffffffffffffffffffffffffffff\n      and\n        /* \"@goplugin/contracts/src/v0.4/vendor/Ownable.sol\":1638:1643  owner */\n      0x6\n      0x0\n      swap1\n      sload\n      swap1\n      0x100\n      exp\n      swap1\n      div\n      0xffffffffffffffffffffffffffffffffffffffff\n      and\n        /* \"@goplugin/contracts/src/v0.4/vendor/Ownable.sol\":1617:1655  OwnershipTransferred(owner, _newOwner) */\n      0xffffffffffffffffffffffffffffffffffffffff\n      and\n      0x8be0079c531659141344cd1fd0a4f28419497f9722a3daafe3b4186f6b6457e0\n      mload(0x40)\n      mload(0x40)\n      dup1\n      swap2\n      sub\n      swap1\n      log3\n        /* \"@goplugin/contracts/src/v0.4/vendor/Ownable.sol\":1669:1678  _newOwner */\n      dup1\n        /* \"@goplugin/contracts/src/v0.4/vendor/Ownable.sol\":1661:1666  owner */\n      0x6\n      0x0\n        /* \"@goplugin/contracts/src/v0.4/vendor/Ownable.sol\":1661:1678  owner = _newOwner */\n      0x100\n      exp\n      dup2\n      sload\n      dup2\n      0xffffffffffffffffffffffffffffffffffffffff\n      mul\n      not\n      and\n      swap1\n      dup4\n      0xffffffffffffffffffffffffffffffffffffffff\n      and\n      mul\n      or\n      swap1\n      sstore\n      pop\n        /* \"@goplugin/contracts/src/v0.4/vendor/Ownable.sol\":1512:1683  function _transferOwnership(address _newOwner) internal {... */\n      pop\n      jump\t// out\n        /* \"@goplugin/contracts/src/v0.4/Plugin.sol\":948:1308  function initialize(... */\n    tag_149:\n        /* \"@goplugin/contracts/src/v0.4/Plugin.sol\":1097:1111  Plugin.Request */\n      tag_178\n      jump\t// in(tag_67)\n    tag_178:\n        /* \"@goplugin/contracts/src/v0.4/Plugin.sol\":1126:1173  Buffer_Plugin.init(self.buf, defaultBufferSize) */\n      tag_180\n        /* \"@goplugin/contracts/src/v0.4/Plugin.sol\":1145:1149  self */\n      dup6\n        /* \"@goplugin/contracts/src/v0.4/Plugin.sol\":1145:1153  self.buf */\n      0x80\n      add\n      mload\n        /* \"@goplugin/contracts/src/v0.4/Plugin.sol\":324:327  256 */\n      0x100\n        /* \"@goplugin/contracts/src/v0.4/Plugin.sol\":1126:1144  Buffer_Plugin.init */\n      tag_181\n        /* \"@goplugin/contracts/src/v0.4/Plugin.sol\":1126:1173  Buffer_Plugin.init(self.buf, defaultBufferSize) */\n      jump\t// in\n    tag_180:\n      pop\n        /* \"@goplugin/contracts/src/v0.4/Plugin.sol\":1189:1192  _id */\n      dup4\n        /* \"@goplugin/contracts/src/v0.4/Plugin.sol\":1179:1183  self */\n      dup6\n        /* \"@goplugin/contracts/src/v0.4/Plugin.sol\":1179:1186  self.id */\n      0x0\n      add\n        /* \"@goplugin/contracts/src/v0.4/Plugin.sol\":1179:1192  self.id = _id */\n      swap1\n      not(0x0)\n      and\n      swap1\n      dup2\n      not(0x0)\n      and\n      dup2\n      mstore\n      pop\n      pop\n        /* \"@goplugin/contracts/src/v0.4/Plugin.sol\":1221:1237  _callbackAddress */\n      dup3\n        /* \"@goplugin/contracts/src/v0.4/Plugin.sol\":1198:1202  self */\n      dup6\n        /* \"@goplugin/contracts/src/v0.4/Plugin.sol\":1198:1218  self.callbackAddress */\n      0x20\n      add\n        /* \"@goplugin/contracts/src/v0.4/Plugin.sol\":1198:1237  self.callbackAddress = _callbackAddress */\n      swap1\n      0xffffffffffffffffffffffffffffffffffffffff\n      and\n      swap1\n      dup2\n      0xffffffffffffffffffffffffffffffffffffffff\n      and\n      dup2\n      mstore\n      pop\n      pop\n        /* \"@goplugin/contracts/src/v0.4/Plugin.sol\":1269:1286  _callbackFunction */\n      dup2\n        /* \"@goplugin/contracts/src/v0.4/Plugin.sol\":1243:1247  self */\n      dup6\n        /* \"@goplugin/contracts/src/v0.4/Plugin.sol\":1243:1266  self.callbackFunctionId */\n      0x40\n      add\n        /* \"@goplugin/contracts/src/v0.4/Plugin.sol\":1243:1286  self.callbackFunctionId = _callbackFunction */\n      swap1\n      not(0xffffffffffffffffffffffffffffffffffffffffffffffffffffffff)\n      and\n      swap1\n      dup2\n      not(0xffffffffffffffffffffffffffffffffffffffffffffffffffffffff)\n      and\n      dup2\n      mstore\n      pop\n      pop\n        /* \"@goplugin/contracts/src/v0.4/Plugin.sol\":1299:1303  self */\n      dup5\n        /* \"@goplugin/contracts/src/v0.4/Plugin.sol\":1292:1303  return self */\n      swap1\n      pop\n        /* \"@goplugin/contracts/src/v0.4/Plugin.sol\":948:1308  function initialize(... */\n      swap5\n      swap4\n      pop\n      pop\n      pop\n      pop\n      jump\t// out\n        /* \"@goplugin/contracts/src/v0.4/vendor/CBOR.sol\":2803:2998  function encodeString(BufferPlugin.buffer memory buf, string memory value) internal pure {... */\n    tag_152:\n        /* \"@goplugin/contracts/src/v0.4/vendor/CBOR.sol\":2902:2957  encodeType(buf, MAJOR_TYPE_STRING, bytes(value).length) */\n      tag_183\n        /* \"@goplugin/contracts/src/v0.4/vendor/CBOR.sol\":2913:2916  buf */\n      dup3\n        /* \"@goplugin/contracts/src/v0.4/vendor/CBOR.sol\":387:388  3 */\n      0x3\n        /* \"@goplugin/contracts/src/v0.4/vendor/CBOR.sol\":2943:2948  value */\n      dup4\n        /* \"@goplugin/contracts/src/v0.4/vendor/CBOR.sol\":2937:2956  bytes(value).length */\n      mload\n        /* \"@goplugin/contracts/src/v0.4/vendor/CBOR.sol\":2902:2912  encodeType */\n      tag_184\n        /* \"@goplugin/contracts/src/v0.4/vendor/CBOR.sol\":2902:2957  encodeType(buf, MAJOR_TYPE_STRING, bytes(value).length) */\n      jump\t// in\n    tag_183:\n        /* \"@goplugin/contracts/src/v0.4/vendor/CBOR.sol\":2967:2991  buf.append(bytes(value)) */\n      tag_185\n        /* \"@goplugin/contracts/src/v0.4/vendor/CBOR.sol\":2984:2989  value */\n      dup2\n        /* \"@goplugin/contracts/src/v0.4/vendor/CBOR.sol\":2967:2970  buf */\n      dup4\n        /* \"@goplugin/contracts/src/v0.4/vendor/CBOR.sol\":2967:2977  buf.append */\n      tag_186\n      swap1\n        /* \"@goplugin/contracts/src/v0.4/vendor/CBOR.sol\":2967:2991  buf.append(bytes(value)) */\n      swap2\n      swap1\n      0xffffffff\n      and\n      jump\t// in\n    tag_185:\n      pop\n        /* \"@goplugin/contracts/src/v0.4/vendor/CBOR.sol\":2803:2998  function encodeString(BufferPlugin.buffer memory buf, string memory value) internal pure {... */\n      pop\n      pop\n      jump\t// out\n        /* \"@goplugin/contracts/src/v0.4/vendor/CBOR.sol\":1724:2169  function encodeInt(BufferPlugin.buffer memory buf, int value) internal pure {... */\n    tag_157:\n        /* \"@goplugin/contracts/src/v0.4/vendor/CBOR.sol\":1821:1841  -0x10000000000000000 */\n      0xffffffffffffffffffffffffffffffffffffffffffffffff0000000000000000\n        /* \"@goplugin/contracts/src/v0.4/vendor/CBOR.sol\":1813:1818  value */\n      dup2\n        /* \"@goplugin/contracts/src/v0.4/vendor/CBOR.sol\":1813:1841  value < -0x10000000000000000 */\n      slt\n        /* \"@goplugin/contracts/src/v0.4/vendor/CBOR.sol\":1810:2163  if(value < -0x10000000000000000) {... */\n      iszero\n      tag_188\n      jumpi\n        /* \"@goplugin/contracts/src/v0.4/vendor/CBOR.sol\":1857:1887  encodeSignedBigNum(buf, value) */\n      tag_189\n        /* \"@goplugin/contracts/src/v0.4/vendor/CBOR.sol\":1876:1879  buf */\n      dup3\n        /* \"@goplugin/contracts/src/v0.4/vendor/CBOR.sol\":1881:1886  value */\n      dup3\n        /* \"@goplugin/contracts/src/v0.4/vendor/CBOR.sol\":1857:1875  encodeSignedBigNum */\n      tag_190\n        /* \"@goplugin/contracts/src/v0.4/vendor/CBOR.sol\":1857:1887  encodeSignedBigNum(buf, value) */\n      jump\t// in\n    tag_189:\n        /* \"@goplugin/contracts/src/v0.4/vendor/CBOR.sol\":1810:2163  if(value < -0x10000000000000000) {... */\n      jump(tag_191)\n    tag_188:\n        /* \"@goplugin/contracts/src/v0.4/vendor/CBOR.sol\":1915:1933  0xFFFFFFFFFFFFFFFF */\n      0xffffffffffffffff\n        /* \"@goplugin/contracts/src/v0.4/vendor/CBOR.sol\":1907:1912  value */\n      dup2\n        /* \"@goplugin/contracts/src/v0.4/vendor/CBOR.sol\":1907:1933  value > 0xFFFFFFFFFFFFFFFF */\n      sgt\n        /* \"@goplugin/contracts/src/v0.4/vendor/CBOR.sol\":1904:2163  if(value > 0xFFFFFFFFFFFFFFFF) {... */\n      iszero\n      tag_192\n      jumpi\n        /* \"@goplugin/contracts/src/v0.4/vendor/CBOR.sol\":1949:1973  encodeBigNum(buf, value) */\n      tag_193\n        /* \"@goplugin/contracts/src/v0.4/vendor/CBOR.sol\":1962:1965  buf */\n      dup3\n        /* \"@goplugin/contracts/src/v0.4/vendor/CBOR.sol\":1967:1972  value */\n      dup3\n        /* \"@goplugin/contracts/src/v0.4/vendor/CBOR.sol\":1949:1961  encodeBigNum */\n      tag_194\n        /* \"@goplugin/contracts/src/v0.4/vendor/CBOR.sol\":1949:1973  encodeBigNum(buf, value) */\n      jump\t// in\n    tag_193:\n        /* \"@goplugin/contracts/src/v0.4/vendor/CBOR.sol\":1904:2163  if(value > 0xFFFFFFFFFFFFFFFF) {... */\n      jump(tag_195)\n    tag_192:\n        /* \"@goplugin/contracts/src/v0.4/vendor/CBOR.sol\":2002:2003  0 */\n      0x0\n        /* \"@goplugin/contracts/src/v0.4/vendor/CBOR.sol\":1993:1998  value */\n      dup2\n        /* \"@goplugin/contracts/src/v0.4/vendor/CBOR.sol\":1993:2003  value >= 0 */\n      slt\n      iszero\n        /* \"@goplugin/contracts/src/v0.4/vendor/CBOR.sol\":1990:2163  if(value >= 0) {... */\n      iszero\n      tag_196\n      jumpi\n        /* \"@goplugin/contracts/src/v0.4/vendor/CBOR.sol\":2019:2063  encodeType(buf, MAJOR_TYPE_INT, uint(value)) */\n      tag_197\n        /* \"@goplugin/contracts/src/v0.4/vendor/CBOR.sol\":2030:2033  buf */\n      dup3\n        /* \"@goplugin/contracts/src/v0.4/vendor/CBOR.sol\":232:233  0 */\n      0x0\n        /* \"@goplugin/contracts/src/v0.4/vendor/CBOR.sol\":2056:2061  value */\n      dup4\n        /* \"@goplugin/contracts/src/v0.4/vendor/CBOR.sol\":2019:2029  encodeType */\n      tag_184\n        /* \"@goplugin/contracts/src/v0.4/vendor/CBOR.sol\":2019:2063  encodeType(buf, MAJOR_TYPE_INT, uint(value)) */\n      jump\t// in\n    tag_197:\n        /* \"@goplugin/contracts/src/v0.4/vendor/CBOR.sol\":1990:2163  if(value >= 0) {... */\n      jump(tag_198)\n    tag_196:\n        /* \"@goplugin/contracts/src/v0.4/vendor/CBOR.sol\":2094:2152  encodeType(buf, MAJOR_TYPE_NEGATIVE_INT, uint(-1 - value)) */\n      tag_199\n        /* \"@goplugin/contracts/src/v0.4/vendor/CBOR.sol\":2105:2108  buf */\n      dup3\n        /* \"@goplugin/contracts/src/v0.4/vendor/CBOR.sol\":288:289  1 */\n      0x1\n        /* \"@goplugin/contracts/src/v0.4/vendor/CBOR.sol\":2145:2150  value */\n      dup4\n        /* \"@goplugin/contracts/src/v0.4/vendor/CBOR.sol\":2140:2142  -1 */\n      0xffffffffffffffffffffffffffffffffffffffffffffffffffffffffffffffff\n        /* \"@goplugin/contracts/src/v0.4/vendor/CBOR.sol\":2140:2150  -1 - value */\n      sub\n        /* \"@goplugin/contracts/src/v0.4/vendor/CBOR.sol\":2094:2104  encodeType */\n      tag_184\n        /* \"@goplugin/contracts/src/v0.4/vendor/CBOR.sol\":2094:2152  encodeType(buf, MAJOR_TYPE_NEGATIVE_INT, uint(-1 - value)) */\n      jump\t// in\n    tag_199:\n        /* \"@goplugin/contracts/src/v0.4/vendor/CBOR.sol\":1990:2163  if(value >= 0) {... */\n    tag_198:\n        /* \"@goplugin/contracts/src/v0.4/vendor/CBOR.sol\":1904:2163  if(value > 0xFFFFFFFFFFFFFFFF) {... */\n    tag_195:\n        /* \"@goplugin/contracts/src/v0.4/vendor/CBOR.sol\":1810:2163  if(value < -0x10000000000000000) {... */\n    tag_191:\n        /* \"@goplugin/contracts/src/v0.4/vendor/CBOR.sol\":1724:2169  function encodeInt(BufferPlugin.buffer memory buf, int value) internal pure {... */\n      pop\n      pop\n      jump\t// out\n        /* \"@goplugin/contracts/src/v0.4/PluginClient.sol\":7293:7816  function encodeRequest(Plugin.Request memory _req)... */\n    tag_163:\n        /* \"@goplugin/contracts/src/v0.4/PluginClient.sol\":7378:7383  bytes */\n      0x60\n        /* \"@goplugin/contracts/src/v0.4/PluginClient.sol\":7437:7443  oracle */\n      0x3\n      0x0\n      swap1\n      sload\n      swap1\n      0x100\n      exp\n      swap1\n      div\n      0xffffffffffffffffffffffffffffffffffffffff\n      and\n        /* \"@goplugin/contracts/src/v0.4/PluginClient.sol\":7437:7457  oracle.oracleRequest */\n      0xffffffffffffffffffffffffffffffffffffffff\n      and\n      0x40429946\n        /* \"@goplugin/contracts/src/v0.4/PluginClient.sol\":7437:7466  oracle.oracleRequest.selector */\n      swap1\n      pop\n      0x100000000000000000000000000000000000000000000000000000000\n      mul\n        /* \"@goplugin/contracts/src/v0.4/PluginClient.sol\":654:657  0x0 */\n      0x0\n        /* \"@goplugin/contracts/src/v0.4/PluginClient.sol\":606:607  0 */\n      dup1\n        /* \"@goplugin/contracts/src/v0.4/PluginClient.sol\":7686:7690  _req */\n      dup5\n        /* \"@goplugin/contracts/src/v0.4/PluginClient.sol\":7686:7693  _req.id */\n      0x0\n      add\n      mload\n        /* \"@goplugin/contracts/src/v0.4/PluginClient.sol\":7701:7705  _req */\n      dup6\n        /* \"@goplugin/contracts/src/v0.4/PluginClient.sol\":7701:7721  _req.callbackAddress */\n      0x20\n      add\n      mload\n        /* \"@goplugin/contracts/src/v0.4/PluginClient.sol\":7729:7733  _req */\n      dup7\n        /* \"@goplugin/contracts/src/v0.4/PluginClient.sol\":7729:7752  _req.callbackFunctionId */\n      0x40\n      add\n      mload\n        /* \"@goplugin/contracts/src/v0.4/PluginClient.sol\":7760:7764  _req */\n      dup8\n        /* \"@goplugin/contracts/src/v0.4/PluginClient.sol\":7760:7770  _req.nonce */\n      0x60\n      add\n      mload\n        /* \"@goplugin/contracts/src/v0.4/PluginClient.sol\":701:702  1 */\n      0x1\n        /* \"@goplugin/contracts/src/v0.4/PluginClient.sol\":7798:7802  _req */\n      dup10\n        /* \"@goplugin/contracts/src/v0.4/PluginClient.sol\":7798:7806  _req.buf */\n      0x80\n      add\n      mload\n        /* \"@goplugin/contracts/src/v0.4/PluginClient.sol\":7798:7810  _req.buf.buf */\n      0x0\n      add\n      mload\n        /* \"@goplugin/contracts/src/v0.4/PluginClient.sol\":7407:7811  abi.encodeWithSelector(... */\n      add(0x24, mload(0x40))\n      dup1\n      dup10\n      0xffffffffffffffffffffffffffffffffffffffff\n      and\n      0xffffffffffffffffffffffffffffffffffffffff\n      and\n      dup2\n      mstore\n      0x20\n      add\n      dup9\n      dup2\n      mstore\n      0x20\n      add\n      dup8\n      not(0x0)\n      and\n      not(0x0)\n      and\n      dup2\n      mstore\n      0x20\n      add\n      dup7\n      0xffffffffffffffffffffffffffffffffffffffff\n      and\n      0xffffffffffffffffffffffffffffffffffffffff\n      and\n      dup2\n      mstore\n      0x20\n      add\n      dup6\n      not(0xffffffffffffffffffffffffffffffffffffffffffffffffffffffff)\n      and\n      not(0xffffffffffffffffffffffffffffffffffffffffffffffffffffffff)\n      and\n      dup2\n      mstore\n      0x20\n      add\n      dup5\n      dup2\n      mstore\n      0x20\n      add\n      dup4\n      dup2\n      mstore\n      0x20\n      add\n      dup1\n      0x20\n      add\n      dup3\n      dup2\n      sub\n      dup3\n      mstore\n      dup4\n      dup2\n      dup2\n      mload\n      dup2\n      mstore\n      0x20\n      add\n      swap2\n      pop\n      dup1\n      mload\n      swap1\n      0x20\n      add\n      swap1\n      dup1\n      dup4\n      dup4\n        /* \"--CODEGEN--\":23:24   */\n      0x0\n        /* \"--CODEGEN--\":8:108   */\n    tag_201:\n        /* \"--CODEGEN--\":33:36   */\n      dup4\n        /* \"--CODEGEN--\":30:31   */\n      dup2\n        /* \"--CODEGEN--\":27:37   */\n      lt\n        /* \"--CODEGEN--\":8:108   */\n      iszero\n      tag_202\n      jumpi\n        /* \"--CODEGEN--\":99:100   */\n      dup1\n        /* \"--CODEGEN--\":94:97   */\n      dup3\n        /* \"--CODEGEN--\":90:101   */\n      add\n        /* \"--CODEGEN--\":84:102   */\n      mload\n        /* \"--CODEGEN--\":80:81   */\n      dup2\n        /* \"--CODEGEN--\":75:78   */\n      dup5\n        /* \"--CODEGEN--\":71:82   */\n      add\n        /* \"--CODEGEN--\":64:103   */\n      mstore\n        /* \"--CODEGEN--\":52:54   */\n      0x20\n        /* \"--CODEGEN--\":49:50   */\n      dup2\n        /* \"--CODEGEN--\":45:55   */\n      add\n        /* \"--CODEGEN--\":40:55   */\n      swap1\n      pop\n        /* \"--CODEGEN--\":8:108   */\n      jump(tag_201)\n    tag_202:\n        /* \"--CODEGEN--\":12:26   */\n      pop\n        /* \"@goplugin/contracts/src/v0.4/PluginClient.sol\":7407:7811  abi.encodeWithSelector(... */\n      pop\n      pop\n      pop\n      swap1\n      pop\n      swap1\n      dup2\n      add\n      swap1\n      0x1f\n      and\n      dup1\n      iszero\n      tag_204\n      jumpi\n      dup1\n      dup3\n      sub\n      dup1\n      mload\n      0x1\n      dup4\n      0x20\n      sub\n      0x100\n      exp\n      sub\n      not\n      and\n      dup2\n      mstore\n      0x20\n      add\n      swap2\n      pop\n    tag_204:\n      pop\n      swap10\n      pop\n      pop\n      pop\n      pop\n      pop\n      pop\n      pop\n      pop\n      pop\n      pop\n      mload(0x40)\n        /* \"--CODEGEN--\":49:53   */\n      0x20\n        /* \"--CODEGEN--\":39:46   */\n      dup2\n        /* \"--CODEGEN--\":30:37   */\n      dup4\n        /* \"--CODEGEN--\":26:47   */\n      sub\n        /* \"--CODEGEN--\":22:54   */\n      sub\n        /* \"--CODEGEN--\":13:20   */\n      dup2\n        /* \"--CODEGEN--\":6:55   */\n      mstore\n        /* \"@goplugin/contracts/src/v0.4/PluginClient.sol\":7407:7811  abi.encodeWithSelector(... */\n      swap1\n      0x40\n      mstore\n      swap1\n      not(0xffffffffffffffffffffffffffffffffffffffffffffffffffffffff)\n      and\n        /* \"--CODEGEN--\":38:42   */\n      0x20\n        /* \"--CODEGEN--\":29:36   */\n      dup3\n        /* \"--CODEGEN--\":25:43   */\n      add\n        /* \"--CODEGEN--\":67:77   */\n      dup1\n        /* \"--CODEGEN--\":61:78   */\n      mload\n        /* \"--CODEGEN--\":96:154   */\n      0xffffffffffffffffffffffffffffffffffffffffffffffffffffffff\n        /* \"--CODEGEN--\":199:207   */\n      dup4\n        /* \"--CODEGEN--\":192:196   */\n      dup2\n        /* \"--CODEGEN--\":186:190   */\n      dup4\n        /* \"--CODEGEN--\":182:197   */\n      and\n        /* \"--CODEGEN--\":179:208   */\n      or\n        /* \"--CODEGEN--\":167:177   */\n      dup4\n        /* \"--CODEGEN--\":160:209   */\n      mstore\n        /* \"--CODEGEN--\":0:215   */\n      pop\n      pop\n      pop\n        /* \"@goplugin/contracts/src/v0.4/PluginClient.sol\":7407:7811  abi.encodeWithSelector(... */\n      pop\n        /* \"@goplugin/contracts/src/v0.4/PluginClient.sol\":7400:7811  return abi.encodeWithSelector(... */\n      swap1\n      pop\n        /* \"@goplugin/contracts/src/v0.4/PluginClient.sol\":7293:7816  function encodeRequest(Plugin.Request memory _req)... */\n      swap2\n      swap1\n      pop\n      jump\t// out\n        /* \"@goplugin/contracts/src/v0.4/vendor/Buffer.sol\":942:1337  function init(buffer memory buf, uint capacity) internal pure returns(buffer memory) {... */\n    tag_181:\n        /* \"@goplugin/contracts/src/v0.4/vendor/Buffer.sol\":1012:1018  buffer */\n      tag_205\n      jump\t// in(tag_206)\n    tag_205:\n        /* \"@goplugin/contracts/src/v0.4/vendor/Buffer.sol\":1054:1055  0 */\n      0x0\n        /* \"@goplugin/contracts/src/v0.4/vendor/Buffer.sol\":1048:1050  32 */\n      0x20\n        /* \"@goplugin/contracts/src/v0.4/vendor/Buffer.sol\":1037:1045  capacity */\n      dup4\n        /* \"@goplugin/contracts/src/v0.4/vendor/Buffer.sol\":1037:1050  capacity % 32 */\n      dup2\n      iszero\n      iszero\n      tag_208\n      jumpi\n      invalid\n    tag_208:\n      mod\n        /* \"@goplugin/contracts/src/v0.4/vendor/Buffer.sol\":1037:1055  capacity % 32 != 0 */\n      eq\n      iszero\n        /* \"@goplugin/contracts/src/v0.4/vendor/Buffer.sol\":1033:1104  if (capacity % 32 != 0) {... */\n      iszero\n      tag_209\n      jumpi\n        /* \"@goplugin/contracts/src/v0.4/vendor/Buffer.sol\":1094:1096  32 */\n      0x20\n        /* \"@goplugin/contracts/src/v0.4/vendor/Buffer.sol\":1083:1091  capacity */\n      dup3\n        /* \"@goplugin/contracts/src/v0.4/vendor/Buffer.sol\":1083:1096  capacity % 32 */\n      dup2\n      iszero\n      iszero\n      tag_210\n      jumpi\n      invalid\n    tag_210:\n      mod\n        /* \"@goplugin/contracts/src/v0.4/vendor/Buffer.sol\":1077:1079  32 */\n      0x20\n        /* \"@goplugin/contracts/src/v0.4/vendor/Buffer.sol\":1077:1097  32 - (capacity % 32) */\n      sub\n        /* \"@goplugin/contracts/src/v0.4/vendor/Buffer.sol\":1065:1097  capacity += 32 - (capacity % 32) */\n      dup3\n      add\n      swap2\n      pop\n        /* \"@goplugin/contracts/src/v0.4/vendor/Buffer.sol\":1033:1104  if (capacity % 32 != 0) {... */\n    tag_209:\n        /* \"@goplugin/contracts/src/v0.4/vendor/Buffer.sol\":1166:1174  capacity */\n      dup2\n        /* \"@goplugin/contracts/src/v0.4/vendor/Buffer.sol\":1151:1154  buf */\n      dup4\n        /* \"@goplugin/contracts/src/v0.4/vendor/Buffer.sol\":1151:1163  buf.capacity */\n      0x20\n      add\n        /* \"@goplugin/contracts/src/v0.4/vendor/Buffer.sol\":1151:1174  buf.capacity = capacity */\n      dup2\n      dup2\n      mstore\n      pop\n      pop\n        /* \"@goplugin/contracts/src/v0.4/vendor/Buffer.sol\":1214:1218  0x40 */\n      0x40\n        /* \"@goplugin/contracts/src/v0.4/vendor/Buffer.sol\":1208:1219  mload(0x40) */\n      mload\n        /* \"@goplugin/contracts/src/v0.4/vendor/Buffer.sol\":1238:1241  ptr */\n      dup1\n        /* \"@goplugin/contracts/src/v0.4/vendor/Buffer.sol\":1233:1236  buf */\n      dup5\n        /* \"@goplugin/contracts/src/v0.4/vendor/Buffer.sol\":1226:1242  mstore(buf, ptr) */\n      mstore\n        /* \"@goplugin/contracts/src/v0.4/vendor/Buffer.sol\":1261:1262  0 */\n      0x0\n        /* \"@goplugin/contracts/src/v0.4/vendor/Buffer.sol\":1256:1259  ptr */\n      dup2\n        /* \"@goplugin/contracts/src/v0.4/vendor/Buffer.sol\":1249:1263  mstore(ptr, 0) */\n      mstore\n        /* \"@goplugin/contracts/src/v0.4/vendor/Buffer.sol\":1300:1308  capacity */\n      dup3\n        /* \"@goplugin/contracts/src/v0.4/vendor/Buffer.sol\":1295:1298  ptr */\n      dup2\n        /* \"@goplugin/contracts/src/v0.4/vendor/Buffer.sol\":1291:1309  add(ptr, capacity) */\n      add\n        /* \"@goplugin/contracts/src/v0.4/vendor/Buffer.sol\":1287:1289  32 */\n      0x20\n        /* \"@goplugin/contracts/src/v0.4/vendor/Buffer.sol\":1283:1310  add(32, add(ptr, capacity)) */\n      add\n        /* \"@goplugin/contracts/src/v0.4/vendor/Buffer.sol\":1277:1281  0x40 */\n      0x40\n        /* \"@goplugin/contracts/src/v0.4/vendor/Buffer.sol\":1270:1311  mstore(0x40, add(32, add(ptr, capacity))) */\n      mstore\n        /* \"@goplugin/contracts/src/v0.4/vendor/Buffer.sol\":1189:1317  {... */\n      pop\n        /* \"@goplugin/contracts/src/v0.4/vendor/Buffer.sol\":1329:1332  buf */\n      dup3\n        /* \"@goplugin/contracts/src/v0.4/vendor/Buffer.sol\":1322:1332  return buf */\n      swap1\n      pop\n        /* \"@goplugin/contracts/src/v0.4/vendor/Buffer.sol\":942:1337  function init(buffer memory buf, uint capacity) internal pure returns(buffer memory) {... */\n      swap3\n      swap2\n      pop\n      pop\n      jump\t// out\n        /* \"@goplugin/contracts/src/v0.4/vendor/CBOR.sol\":700:1421  function encodeType(BufferPlugin.buffer memory buf, uint8 major, uint value) private pure {... */\n    tag_184:\n        /* \"@goplugin/contracts/src/v0.4/vendor/CBOR.sol\":812:814  23 */\n      0x17\n        /* \"@goplugin/contracts/src/v0.4/vendor/CBOR.sol\":803:808  value */\n      dup2\n        /* \"@goplugin/contracts/src/v0.4/vendor/CBOR.sol\":803:814  value <= 23 */\n      gt\n      iszero\n        /* \"@goplugin/contracts/src/v0.4/vendor/CBOR.sol\":800:1415  if(value <= 23) {... */\n      iszero\n      tag_212\n      jumpi\n        /* \"@goplugin/contracts/src/v0.4/vendor/CBOR.sol\":830:874  buf.appendUint8(uint8((major << 5) | value)) */\n      tag_213\n        /* \"@goplugin/contracts/src/v0.4/vendor/CBOR.sol\":867:872  value */\n      dup2\n        /* \"@goplugin/contracts/src/v0.4/vendor/CBOR.sol\":862:863  5 */\n      0x5\n        /* \"@goplugin/contracts/src/v0.4/vendor/CBOR.sol\":853:858  major */\n      dup5\n        /* \"@goplugin/contracts/src/v0.4/vendor/CBOR.sol\":853:863  major << 5 */\n      0xff\n      and\n      swap1\n      0x2\n      exp\n      mul\n        /* \"@goplugin/contracts/src/v0.4/vendor/CBOR.sol\":852:872  (major << 5) | value */\n      0xff\n      and\n      or\n        /* \"@goplugin/contracts/src/v0.4/vendor/CBOR.sol\":830:833  buf */\n      dup5\n        /* \"@goplugin/contracts/src/v0.4/vendor/CBOR.sol\":830:845  buf.appendUint8 */\n      tag_214\n      swap1\n        /* \"@goplugin/contracts/src/v0.4/vendor/CBOR.sol\":830:874  buf.appendUint8(uint8((major << 5) | value)) */\n      swap2\n      swap1\n      0xffffffff\n      and\n      jump\t// in\n    tag_213:\n      pop\n        /* \"@goplugin/contracts/src/v0.4/vendor/CBOR.sol\":800:1415  if(value <= 23) {... */\n      jump(tag_215)\n    tag_212:\n        /* \"@goplugin/contracts/src/v0.4/vendor/CBOR.sol\":903:907  0xFF */\n      0xff\n        /* \"@goplugin/contracts/src/v0.4/vendor/CBOR.sol\":894:899  value */\n      dup2\n        /* \"@goplugin/contracts/src/v0.4/vendor/CBOR.sol\":894:907  value <= 0xFF */\n      gt\n      iszero\n        /* \"@goplugin/contracts/src/v0.4/vendor/CBOR.sol\":891:1415  if(value <= 0xFF) {... */\n      iszero\n      tag_216\n      jumpi\n        /* \"@goplugin/contracts/src/v0.4/vendor/CBOR.sol\":923:964  buf.appendUint8(uint8((major << 5) | 24)) */\n      tag_217\n        /* \"@goplugin/contracts/src/v0.4/vendor/CBOR.sol\":960:962  24 */\n      0x18\n        /* \"@goplugin/contracts/src/v0.4/vendor/CBOR.sol\":955:956  5 */\n      0x5\n        /* \"@goplugin/contracts/src/v0.4/vendor/CBOR.sol\":946:951  major */\n      dup5\n        /* \"@goplugin/contracts/src/v0.4/vendor/CBOR.sol\":946:956  major << 5 */\n      0xff\n      and\n      swap1\n      0x2\n      exp\n      mul\n        /* \"@goplugin/contracts/src/v0.4/vendor/CBOR.sol\":945:962  (major << 5) | 24 */\n      or\n        /* \"@goplugin/contracts/src/v0.4/vendor/CBOR.sol\":923:926  buf */\n      dup5\n        /* \"@goplugin/contracts/src/v0.4/vendor/CBOR.sol\":923:938  buf.appendUint8 */\n      tag_214\n      swap1\n        /* \"@goplugin/contracts/src/v0.4/vendor/CBOR.sol\":923:964  buf.appendUint8(uint8((major << 5) | 24)) */\n      swap2\n      swap1\n      0xffffffff\n      and\n      jump\t// in\n    tag_217:\n      pop\n        /* \"@goplugin/contracts/src/v0.4/vendor/CBOR.sol\":978:1001  buf.appendInt(value, 1) */\n      tag_218\n        /* \"@goplugin/contracts/src/v0.4/vendor/CBOR.sol\":992:997  value */\n      dup2\n        /* \"@goplugin/contracts/src/v0.4/vendor/CBOR.sol\":999:1000  1 */\n      0x1\n        /* \"@goplugin/contracts/src/v0.4/vendor/CBOR.sol\":978:981  buf */\n      dup6\n        /* \"@goplugin/contracts/src/v0.4/vendor/CBOR.sol\":978:991  buf.appendInt */\n      tag_219\n      swap1\n        /* \"@goplugin/contracts/src/v0.4/vendor/CBOR.sol\":978:1001  buf.appendInt(value, 1) */\n      swap3\n      swap2\n      swap1\n      0xffffffff\n      and\n      jump\t// in\n    tag_218:\n      pop\n        /* \"@goplugin/contracts/src/v0.4/vendor/CBOR.sol\":891:1415  if(value <= 0xFF) {... */\n      jump(tag_220)\n    tag_216:\n        /* \"@goplugin/contracts/src/v0.4/vendor/CBOR.sol\":1030:1036  0xFFFF */\n      0xffff\n        /* \"@goplugin/contracts/src/v0.4/vendor/CBOR.sol\":1021:1026  value */\n      dup2\n        /* \"@goplugin/contracts/src/v0.4/vendor/CBOR.sol\":1021:1036  value <= 0xFFFF */\n      gt\n      iszero\n        /* \"@goplugin/contracts/src/v0.4/vendor/CBOR.sol\":1018:1415  if(value <= 0xFFFF) {... */\n      iszero\n      tag_221\n      jumpi\n        /* \"@goplugin/contracts/src/v0.4/vendor/CBOR.sol\":1052:1093  buf.appendUint8(uint8((major << 5) | 25)) */\n      tag_222\n        /* \"@goplugin/contracts/src/v0.4/vendor/CBOR.sol\":1089:1091  25 */\n      0x19\n        /* \"@goplugin/contracts/src/v0.4/vendor/CBOR.sol\":1084:1085  5 */\n      0x5\n        /* \"@goplugin/contracts/src/v0.4/vendor/CBOR.sol\":1075:1080  major */\n      dup5\n        /* \"@goplugin/contracts/src/v0.4/vendor/CBOR.sol\":1075:1085  major << 5 */\n      0xff\n      and\n      swap1\n      0x2\n      exp\n      mul\n        /* \"@goplugin/contracts/src/v0.4/vendor/CBOR.sol\":1074:1091  (major << 5) | 25 */\n      or\n        /* \"@goplugin/contracts/src/v0.4/vendor/CBOR.sol\":1052:1055  buf */\n      dup5\n        /* \"@goplugin/contracts/src/v0.4/vendor/CBOR.sol\":1052:1067  buf.appendUint8 */\n      tag_214\n      swap1\n        /* \"@goplugin/contracts/src/v0.4/vendor/CBOR.sol\":1052:1093  buf.appendUint8(uint8((major << 5) | 25)) */\n      swap2\n      swap1\n      0xffffffff\n      and\n      jump\t// in\n    tag_222:\n      pop\n        /* \"@goplugin/contracts/src/v0.4/vendor/CBOR.sol\":1107:1130  buf.appendInt(value, 2) */\n      tag_223\n        /* \"@goplugin/contracts/src/v0.4/vendor/CBOR.sol\":1121:1126  value */\n      dup2\n        /* \"@goplugin/contracts/src/v0.4/vendor/CBOR.sol\":1128:1129  2 */\n      0x2\n        /* \"@goplugin/contracts/src/v0.4/vendor/CBOR.sol\":1107:1110  buf */\n      dup6\n        /* \"@goplugin/contracts/src/v0.4/vendor/CBOR.sol\":1107:1120  buf.appendInt */\n      tag_219\n      swap1\n        /* \"@goplugin/contracts/src/v0.4/vendor/CBOR.sol\":1107:1130  buf.appendInt(value, 2) */\n      swap3\n      swap2\n      swap1\n      0xffffffff\n      and\n      jump\t// in\n    tag_223:\n      pop\n        /* \"@goplugin/contracts/src/v0.4/vendor/CBOR.sol\":1018:1415  if(value <= 0xFFFF) {... */\n      jump(tag_224)\n    tag_221:\n        /* \"@goplugin/contracts/src/v0.4/vendor/CBOR.sol\":1159:1169  0xFFFFFFFF */\n      0xffffffff\n        /* \"@goplugin/contracts/src/v0.4/vendor/CBOR.sol\":1150:1155  value */\n      dup2\n        /* \"@goplugin/contracts/src/v0.4/vendor/CBOR.sol\":1150:1169  value <= 0xFFFFFFFF */\n      gt\n      iszero\n        /* \"@goplugin/contracts/src/v0.4/vendor/CBOR.sol\":1147:1415  if(value <= 0xFFFFFFFF) {... */\n      iszero\n      tag_225\n      jumpi\n        /* \"@goplugin/contracts/src/v0.4/vendor/CBOR.sol\":1185:1226  buf.appendUint8(uint8((major << 5) | 26)) */\n      tag_226\n        /* \"@goplugin/contracts/src/v0.4/vendor/CBOR.sol\":1222:1224  26 */\n      0x1a\n        /* \"@goplugin/contracts/src/v0.4/vendor/CBOR.sol\":1217:1218  5 */\n      0x5\n        /* \"@goplugin/contracts/src/v0.4/vendor/CBOR.sol\":1208:1213  major */\n      dup5\n        /* \"@goplugin/contracts/src/v0.4/vendor/CBOR.sol\":1208:1218  major << 5 */\n      0xff\n      and\n      swap1\n      0x2\n      exp\n      mul\n        /* \"@goplugin/contracts/src/v0.4/vendor/CBOR.sol\":1207:1224  (major << 5) | 26 */\n      or\n        /* \"@goplugin/contracts/src/v0.4/vendor/CBOR.sol\":1185:1188  buf */\n      dup5\n        /* \"@goplugin/contracts/src/v0.4/vendor/CBOR.sol\":1185:1200  buf.appendUint8 */\n      tag_214\n      swap1\n        /* \"@goplugin/contracts/src/v0.4/vendor/CBOR.sol\":1185:1226  buf.appendUint8(uint8((major << 5) | 26)) */\n      swap2\n      swap1\n      0xffffffff\n      and\n      jump\t// in\n    tag_226:\n      pop\n        /* \"@goplugin/contracts/src/v0.4/vendor/CBOR.sol\":1240:1263  buf.appendInt(value, 4) */\n      tag_227\n        /* \"@goplugin/contracts/src/v0.4/vendor/CBOR.sol\":1254:1259  value */\n      dup2\n        /* \"@goplugin/contracts/src/v0.4/vendor/CBOR.sol\":1261:1262  4 */\n      0x4\n        /* \"@goplugin/contracts/src/v0.4/vendor/CBOR.sol\":1240:1243  buf */\n      dup6\n        /* \"@goplugin/contracts/src/v0.4/vendor/CBOR.sol\":1240:1253  buf.appendInt */\n      tag_219\n      swap1\n        /* \"@goplugin/contracts/src/v0.4/vendor/CBOR.sol\":1240:1263  buf.appendInt(value, 4) */\n      swap3\n      swap2\n      swap1\n      0xffffffff\n      and\n      jump\t// in\n    tag_227:\n      pop\n        /* \"@goplugin/contracts/src/v0.4/vendor/CBOR.sol\":1147:1415  if(value <= 0xFFFFFFFF) {... */\n      jump(tag_228)\n    tag_225:\n        /* \"@goplugin/contracts/src/v0.4/vendor/CBOR.sol\":1292:1310  0xFFFFFFFFFFFFFFFF */\n      0xffffffffffffffff\n        /* \"@goplugin/contracts/src/v0.4/vendor/CBOR.sol\":1283:1288  value */\n      dup2\n        /* \"@goplugin/contracts/src/v0.4/vendor/CBOR.sol\":1283:1310  value <= 0xFFFFFFFFFFFFFFFF */\n      gt\n      iszero\n        /* \"@goplugin/contracts/src/v0.4/vendor/CBOR.sol\":1280:1415  if(value <= 0xFFFFFFFFFFFFFFFF) {... */\n      iszero\n      tag_229\n      jumpi\n        /* \"@goplugin/contracts/src/v0.4/vendor/CBOR.sol\":1326:1367  buf.appendUint8(uint8((major << 5) | 27)) */\n      tag_230\n        /* \"@goplugin/contracts/src/v0.4/vendor/CBOR.sol\":1363:1365  27 */\n      0x1b\n        /* \"@goplugin/contracts/src/v0.4/vendor/CBOR.sol\":1358:1359  5 */\n      0x5\n        /* \"@goplugin/contracts/src/v0.4/vendor/CBOR.sol\":1349:1354  major */\n      dup5\n        /* \"@goplugin/contracts/src/v0.4/vendor/CBOR.sol\":1349:1359  major << 5 */\n      0xff\n      and\n      swap1\n      0x2\n      exp\n      mul\n        /* \"@goplugin/contracts/src/v0.4/vendor/CBOR.sol\":1348:1365  (major << 5) | 27 */\n      or\n        /* \"@goplugin/contracts/src/v0.4/vendor/CBOR.sol\":1326:1329  buf */\n      dup5\n        /* \"@goplugin/contracts/src/v0.4/vendor/CBOR.sol\":1326:1341  buf.appendUint8 */\n      tag_214\n      swap1\n        /* \"@goplugin/contracts/src/v0.4/vendor/CBOR.sol\":1326:1367  buf.appendUint8(uint8((major << 5) | 27)) */\n      swap2\n      swap1\n      0xffffffff\n      and\n      jump\t// in\n    tag_230:\n      pop\n        /* \"@goplugin/contracts/src/v0.4/vendor/CBOR.sol\":1381:1404  buf.appendInt(value, 8) */\n      tag_231\n        /* \"@goplugin/contracts/src/v0.4/vendor/CBOR.sol\":1395:1400  value */\n      dup2\n        /* \"@goplugin/contracts/src/v0.4/vendor/CBOR.sol\":1402:1403  8 */\n      0x8\n        /* \"@goplugin/contracts/src/v0.4/vendor/CBOR.sol\":1381:1384  buf */\n      dup6\n        /* \"@goplugin/contracts/src/v0.4/vendor/CBOR.sol\":1381:1394  buf.appendInt */\n      tag_219\n      swap1\n        /* \"@goplugin/contracts/src/v0.4/vendor/CBOR.sol\":1381:1404  buf.appendInt(value, 8) */\n      swap3\n      swap2\n      swap1\n      0xffffffff\n      and\n      jump\t// in\n    tag_231:\n      pop\n        /* \"@goplugin/contracts/src/v0.4/vendor/CBOR.sol\":1280:1415  if(value <= 0xFFFFFFFFFFFFFFFF) {... */\n    tag_229:\n        /* \"@goplugin/contracts/src/v0.4/vendor/CBOR.sol\":1147:1415  if(value <= 0xFFFFFFFF) {... */\n    tag_228:\n        /* \"@goplugin/contracts/src/v0.4/vendor/CBOR.sol\":1018:1415  if(value <= 0xFFFF) {... */\n    tag_224:\n        /* \"@goplugin/contracts/src/v0.4/vendor/CBOR.sol\":891:1415  if(value <= 0xFF) {... */\n    tag_220:\n        /* \"@goplugin/contracts/src/v0.4/vendor/CBOR.sol\":800:1415  if(value <= 23) {... */\n    tag_215:\n        /* \"@goplugin/contracts/src/v0.4/vendor/CBOR.sol\":700:1421  function encodeType(BufferPlugin.buffer memory buf, uint8 major, uint value) private pure {... */\n      pop\n      pop\n      pop\n      jump\t// out\n        /* \"@goplugin/contracts/src/v0.4/vendor/Buffer.sol\":4496:4651  function append(buffer memory buf, bytes memory data) internal pure returns (buffer memory) {... */\n    tag_186:\n        /* \"@goplugin/contracts/src/v0.4/vendor/Buffer.sol\":4573:4579  buffer */\n      tag_232\n      jump\t// in(tag_206)\n    tag_232:\n        /* \"@goplugin/contracts/src/v0.4/vendor/Buffer.sol\":4601:4646  write(buf, buf.buf.length, data, data.length) */\n      tag_234\n        /* \"@goplugin/contracts/src/v0.4/vendor/Buffer.sol\":4607:4610  buf */\n      dup4\n        /* \"@goplugin/contracts/src/v0.4/vendor/Buffer.sol\":4612:4615  buf */\n      dup5\n        /* \"@goplugin/contracts/src/v0.4/vendor/Buffer.sol\":4612:4619  buf.buf */\n      0x0\n      add\n      mload\n        /* \"@goplugin/contracts/src/v0.4/vendor/Buffer.sol\":4612:4626  buf.buf.length */\n      mload\n        /* \"@goplugin/contracts/src/v0.4/vendor/Buffer.sol\":4628:4632  data */\n      dup5\n        /* \"@goplugin/contracts/src/v0.4/vendor/Buffer.sol\":4634:4638  data */\n      dup6\n        /* \"@goplugin/contracts/src/v0.4/vendor/Buffer.sol\":4634:4645  data.length */\n      mload\n        /* \"@goplugin/contracts/src/v0.4/vendor/Buffer.sol\":4601:4606  write */\n      tag_235\n        /* \"@goplugin/contracts/src/v0.4/vendor/Buffer.sol\":4601:4646  write(buf, buf.buf.length, data, data.length) */\n      jump\t// in\n    tag_234:\n        /* \"@goplugin/contracts/src/v0.4/vendor/Buffer.sol\":4594:4646  return write(buf, buf.buf.length, data, data.length) */\n      swap1\n      pop\n        /* \"@goplugin/contracts/src/v0.4/vendor/Buffer.sol\":4496:4651  function append(buffer memory buf, bytes memory data) internal pure returns (buffer memory) {... */\n      swap3\n      swap2\n      pop\n      pop\n      jump\t// out\n        /* \"@goplugin/contracts/src/v0.4/vendor/CBOR.sol\":2571:2797  function encodeSignedBigNum(BufferPlugin.buffer memory buf, int input) internal pure {... */\n    tag_190:\n        /* \"@goplugin/contracts/src/v0.4/vendor/CBOR.sol\":2664:2736  buf.appendUint8(uint8((MAJOR_TYPE_TAG << 5) | TAG_TYPE_NEGATIVE_BIGNUM)) */\n      tag_237\n        /* \"@goplugin/contracts/src/v0.4/vendor/CBOR.sol\":692:693  3 */\n      0x3\n        /* \"@goplugin/contracts/src/v0.4/vendor/CBOR.sol\":2705:2706  5 */\n      0x5\n        /* \"@goplugin/contracts/src/v0.4/vendor/CBOR.sol\":530:531  6 */\n      0x6\n        /* \"@goplugin/contracts/src/v0.4/vendor/CBOR.sol\":2687:2706  MAJOR_TYPE_TAG << 5 */\n      0xff\n      and\n      swap1\n      0x2\n      exp\n      mul\n        /* \"@goplugin/contracts/src/v0.4/vendor/CBOR.sol\":2686:2734  (MAJOR_TYPE_TAG << 5) | TAG_TYPE_NEGATIVE_BIGNUM */\n      or\n        /* \"@goplugin/contracts/src/v0.4/vendor/CBOR.sol\":2664:2667  buf */\n      dup4\n        /* \"@goplugin/contracts/src/v0.4/vendor/CBOR.sol\":2664:2679  buf.appendUint8 */\n      tag_214\n      swap1\n        /* \"@goplugin/contracts/src/v0.4/vendor/CBOR.sol\":2664:2736  buf.appendUint8(uint8((MAJOR_TYPE_TAG << 5) | TAG_TYPE_NEGATIVE_BIGNUM)) */\n      swap2\n      swap1\n      0xffffffff\n      and\n      jump\t// in\n    tag_237:\n      pop\n        /* \"@goplugin/contracts/src/v0.4/vendor/CBOR.sol\":2744:2790  encodeBytes(buf, abi.encode(uint(-1 - input))) */\n      tag_238\n        /* \"@goplugin/contracts/src/v0.4/vendor/CBOR.sol\":2756:2759  buf */\n      dup3\n        /* \"@goplugin/contracts/src/v0.4/vendor/CBOR.sol\":2782:2787  input */\n      dup3\n        /* \"@goplugin/contracts/src/v0.4/vendor/CBOR.sol\":2777:2779  -1 */\n      0xffffffffffffffffffffffffffffffffffffffffffffffffffffffffffffffff\n        /* \"@goplugin/contracts/src/v0.4/vendor/CBOR.sol\":2777:2787  -1 - input */\n      sub\n        /* \"@goplugin/contracts/src/v0.4/vendor/CBOR.sol\":2761:2789  abi.encode(uint(-1 - input)) */\n      add(0x20, mload(0x40))\n      dup1\n      dup3\n      dup2\n      mstore\n      0x20\n      add\n      swap2\n      pop\n      pop\n      mload(0x40)\n        /* \"--CODEGEN--\":49:53   */\n      0x20\n        /* \"--CODEGEN--\":39:46   */\n      dup2\n        /* \"--CODEGEN--\":30:37   */\n      dup4\n        /* \"--CODEGEN--\":26:47   */\n      sub\n        /* \"--CODEGEN--\":22:54   */\n      sub\n        /* \"--CODEGEN--\":13:20   */\n      dup2\n        /* \"--CODEGEN--\":6:55   */\n      mstore\n        /* \"@goplugin/contracts/src/v0.4/vendor/CBOR.sol\":2761:2789  abi.encode(uint(-1 - input)) */\n      swap1\n      0x40\n      mstore\n        /* \"@goplugin/contracts/src/v0.4/vendor/CBOR.sol\":2744:2755  encodeBytes */\n      tag_239\n        /* \"@goplugin/contracts/src/v0.4/vendor/CBOR.sol\":2744:2790  encodeBytes(buf, abi.encode(uint(-1 - input))) */\n      jump\t// in\n    tag_238:\n        /* \"@goplugin/contracts/src/v0.4/vendor/CBOR.sol\":2571:2797  function encodeSignedBigNum(BufferPlugin.buffer memory buf, int input) internal pure {... */\n      pop\n      pop\n      jump\t// out\n        /* \"@goplugin/contracts/src/v0.4/vendor/CBOR.sol\":2359:2565  function encodeBigNum(BufferPlugin.buffer memory buf, int value) internal pure {... */\n    tag_194:\n        /* \"@goplugin/contracts/src/v0.4/vendor/CBOR.sol\":2446:2509  buf.appendUint8(uint8((MAJOR_TYPE_TAG << 5) | TAG_TYPE_BIGNUM)) */\n      tag_241\n        /* \"@goplugin/contracts/src/v0.4/vendor/CBOR.sol\":635:636  2 */\n      0x2\n        /* \"@goplugin/contracts/src/v0.4/vendor/CBOR.sol\":2487:2488  5 */\n      0x5\n        /* \"@goplugin/contracts/src/v0.4/vendor/CBOR.sol\":530:531  6 */\n      0x6\n        /* \"@goplugin/contracts/src/v0.4/vendor/CBOR.sol\":2469:2488  MAJOR_TYPE_TAG << 5 */\n      0xff\n      and\n      swap1\n      0x2\n      exp\n      mul\n        /* \"@goplugin/contracts/src/v0.4/vendor/CBOR.sol\":2468:2507  (MAJOR_TYPE_TAG << 5) | TAG_TYPE_BIGNUM */\n      or\n        /* \"@goplugin/contracts/src/v0.4/vendor/CBOR.sol\":2446:2449  buf */\n      dup4\n        /* \"@goplugin/contracts/src/v0.4/vendor/CBOR.sol\":2446:2461  buf.appendUint8 */\n      tag_214\n      swap1\n        /* \"@goplugin/contracts/src/v0.4/vendor/CBOR.sol\":2446:2509  buf.appendUint8(uint8((MAJOR_TYPE_TAG << 5) | TAG_TYPE_BIGNUM)) */\n      swap2\n      swap1\n      0xffffffff\n      and\n      jump\t// in\n    tag_241:\n      pop\n        /* \"@goplugin/contracts/src/v0.4/vendor/CBOR.sol\":2517:2558  encodeBytes(buf, abi.encode(uint(value))) */\n      tag_242\n        /* \"@goplugin/contracts/src/v0.4/vendor/CBOR.sol\":2529:2532  buf */\n      dup3\n        /* \"@goplugin/contracts/src/v0.4/vendor/CBOR.sol\":2550:2555  value */\n      dup3\n        /* \"@goplugin/contracts/src/v0.4/vendor/CBOR.sol\":2534:2557  abi.encode(uint(value)) */\n      add(0x20, mload(0x40))\n      dup1\n      dup3\n      dup2\n      mstore\n      0x20\n      add\n      swap2\n      pop\n      pop\n      mload(0x40)\n        /* \"--CODEGEN--\":49:53   */\n      0x20\n        /* \"--CODEGEN--\":39:46   */\n      dup2\n        /* \"--CODEGEN--\":30:37   */\n      dup4\n        /* \"--CODEGEN--\":26:47   */\n      sub\n        /* \"--CODEGEN--\":22:54   */\n      sub\n        /* \"--CODEGEN--\":13:20   */\n      dup2\n        /* \"--CODEGEN--\":6:55   */\n      mstore\n        /* \"@goplugin/contracts/src/v0.4/vendor/CBOR.sol\":2534:2557  abi.encode(uint(value)) */\n      swap1\n      0x40\n      mstore\n        /* \"@goplugin/contracts/src/v0.4/vendor/CBOR.sol\":2517:2528  encodeBytes */\n      tag_239\n        /* \"@goplugin/contracts/src/v0.4/vendor/CBOR.sol\":2517:2558  encodeBytes(buf, abi.encode(uint(value))) */\n      jump\t// in\n    tag_242:\n        /* \"@goplugin/contracts/src/v0.4/vendor/CBOR.sol\":2359:2565  function encodeBigNum(BufferPlugin.buffer memory buf, int value) internal pure {... */\n      pop\n      pop\n      jump\t// out\n        /* \"@goplugin/contracts/src/v0.4/vendor/Buffer.sol\":5811:5955  function appendUint8(buffer memory buf, uint8 data) internal pure returns(buffer memory) {... */\n    tag_214:\n        /* \"@goplugin/contracts/src/v0.4/vendor/Buffer.sol\":5885:5891  buffer */\n      tag_243\n      jump\t// in(tag_206)\n    tag_243:\n        /* \"@goplugin/contracts/src/v0.4/vendor/Buffer.sol\":5913:5950  writeUint8(buf, buf.buf.length, data) */\n      tag_245\n        /* \"@goplugin/contracts/src/v0.4/vendor/Buffer.sol\":5924:5927  buf */\n      dup4\n        /* \"@goplugin/contracts/src/v0.4/vendor/Buffer.sol\":5929:5932  buf */\n      dup5\n        /* \"@goplugin/contracts/src/v0.4/vendor/Buffer.sol\":5929:5936  buf.buf */\n      0x0\n      add\n      mload\n        /* \"@goplugin/contracts/src/v0.4/vendor/Buffer.sol\":5929:5943  buf.buf.length */\n      mload\n        /* \"@goplugin/contracts/src/v0.4/vendor/Buffer.sol\":5945:5949  data */\n      dup5\n        /* \"@goplugin/contracts/src/v0.4/vendor/Buffer.sol\":5913:5923  writeUint8 */\n      tag_246\n        /* \"@goplugin/contracts/src/v0.4/vendor/Buffer.sol\":5913:5950  writeUint8(buf, buf.buf.length, data) */\n      jump\t// in\n    tag_245:\n        /* \"@goplugin/contracts/src/v0.4/vendor/Buffer.sol\":5906:5950  return writeUint8(buf, buf.buf.length, data) */\n      swap1\n      pop\n        /* \"@goplugin/contracts/src/v0.4/vendor/Buffer.sol\":5811:5955  function appendUint8(buffer memory buf, uint8 data) internal pure returns(buffer memory) {... */\n      swap3\n      swap2\n      pop\n      pop\n      jump\t// out\n        /* \"@goplugin/contracts/src/v0.4/vendor/Buffer.sol\":9497:9651  function appendInt(buffer memory buf, uint data, uint len) internal pure returns(buffer memory) {... */\n    tag_219:\n        /* \"@goplugin/contracts/src/v0.4/vendor/Buffer.sol\":9578:9584  buffer */\n      tag_247\n      jump\t// in(tag_206)\n    tag_247:\n        /* \"@goplugin/contracts/src/v0.4/vendor/Buffer.sol\":9606:9646  writeInt(buf, buf.buf.length, data, len) */\n      tag_249\n        /* \"@goplugin/contracts/src/v0.4/vendor/Buffer.sol\":9615:9618  buf */\n      dup5\n        /* \"@goplugin/contracts/src/v0.4/vendor/Buffer.sol\":9620:9623  buf */\n      dup6\n        /* \"@goplugin/contracts/src/v0.4/vendor/Buffer.sol\":9620:9627  buf.buf */\n      0x0\n      add\n      mload\n        /* \"@goplugin/contracts/src/v0.4/vendor/Buffer.sol\":9620:9634  buf.buf.length */\n      mload\n        /* \"@goplugin/contracts/src/v0.4/vendor/Buffer.sol\":9636:9640  data */\n      dup6\n        /* \"@goplugin/contracts/src/v0.4/vendor/Buffer.sol\":9642:9645  len */\n      dup6\n        /* \"@goplugin/contracts/src/v0.4/vendor/Buffer.sol\":9606:9614  writeInt */\n      tag_250\n        /* \"@goplugin/contracts/src/v0.4/vendor/Buffer.sol\":9606:9646  writeInt(buf, buf.buf.length, data, len) */\n      jump\t// in\n    tag_249:\n        /* \"@goplugin/contracts/src/v0.4/vendor/Buffer.sol\":9599:9646  return writeInt(buf, buf.buf.length, data, len) */\n      swap1\n      pop\n        /* \"@goplugin/contracts/src/v0.4/vendor/Buffer.sol\":9497:9651  function appendInt(buffer memory buf, uint data, uint len) internal pure returns(buffer memory) {... */\n      swap4\n      swap3\n      pop\n      pop\n      pop\n      jump\t// out\n        /* \"@goplugin/contracts/src/v0.4/vendor/Buffer.sol\":2651:3791  function write(buffer memory buf, uint off, bytes memory data, uint len) internal pure returns(buffer memory) {... */\n    tag_235:\n        /* \"@goplugin/contracts/src/v0.4/vendor/Buffer.sol\":2746:2752  buffer */\n      tag_251\n      jump\t// in(tag_206)\n    tag_251:\n        /* \"@goplugin/contracts/src/v0.4/vendor/Buffer.sol\":2897:2906  uint dest */\n      0x0\n        /* \"@goplugin/contracts/src/v0.4/vendor/Buffer.sol\":2912:2920  uint src */\n      dup1\n        /* \"@goplugin/contracts/src/v0.4/vendor/Buffer.sol\":3580:3589  uint mask */\n      0x0\n        /* \"@goplugin/contracts/src/v0.4/vendor/Buffer.sol\":2782:2786  data */\n      dup6\n        /* \"@goplugin/contracts/src/v0.4/vendor/Buffer.sol\":2782:2793  data.length */\n      mload\n        /* \"@goplugin/contracts/src/v0.4/vendor/Buffer.sol\":2775:2778  len */\n      dup6\n        /* \"@goplugin/contracts/src/v0.4/vendor/Buffer.sol\":2775:2793  len <= data.length */\n      gt\n      iszero\n        /* \"@goplugin/contracts/src/v0.4/vendor/Buffer.sol\":2767:2794  require(len <= data.length) */\n      iszero\n      iszero\n      tag_253\n      jumpi\n      0x0\n      dup1\n      revert\n    tag_253:\n        /* \"@goplugin/contracts/src/v0.4/vendor/Buffer.sol\":2817:2820  buf */\n      dup8\n        /* \"@goplugin/contracts/src/v0.4/vendor/Buffer.sol\":2817:2829  buf.capacity */\n      0x20\n      add\n      mload\n        /* \"@goplugin/contracts/src/v0.4/vendor/Buffer.sol\":2811:2814  len */\n      dup6\n        /* \"@goplugin/contracts/src/v0.4/vendor/Buffer.sol\":2805:2808  off */\n      dup9\n        /* \"@goplugin/contracts/src/v0.4/vendor/Buffer.sol\":2805:2814  off + len */\n      add\n        /* \"@goplugin/contracts/src/v0.4/vendor/Buffer.sol\":2805:2829  off + len > buf.capacity */\n      gt\n        /* \"@goplugin/contracts/src/v0.4/vendor/Buffer.sol\":2801:2891  if (off + len > buf.capacity) {... */\n      iszero\n      tag_254\n      jumpi\n        /* \"@goplugin/contracts/src/v0.4/vendor/Buffer.sol\":2839:2884  resize(buf, max(buf.capacity, len + off) * 2) */\n      tag_255\n        /* \"@goplugin/contracts/src/v0.4/vendor/Buffer.sol\":2846:2849  buf */\n      dup9\n        /* \"@goplugin/contracts/src/v0.4/vendor/Buffer.sol\":2882:2883  2 */\n      0x2\n        /* \"@goplugin/contracts/src/v0.4/vendor/Buffer.sol\":2851:2879  max(buf.capacity, len + off) */\n      tag_256\n        /* \"@goplugin/contracts/src/v0.4/vendor/Buffer.sol\":2855:2858  buf */\n      dup12\n        /* \"@goplugin/contracts/src/v0.4/vendor/Buffer.sol\":2855:2867  buf.capacity */\n      0x20\n      add\n      mload\n        /* \"@goplugin/contracts/src/v0.4/vendor/Buffer.sol\":2875:2878  off */\n      dup12\n        /* \"@goplugin/contracts/src/v0.4/vendor/Buffer.sol\":2869:2872  len */\n      dup11\n        /* \"@goplugin/contracts/src/v0.4/vendor/Buffer.sol\":2869:2878  len + off */\n      add\n        /* \"@goplugin/contracts/src/v0.4/vendor/Buffer.sol\":2851:2854  max */\n      tag_257\n        /* \"@goplugin/contracts/src/v0.4/vendor/Buffer.sol\":2851:2879  max(buf.capacity, len + off) */\n      jump\t// in\n    tag_256:\n        /* \"@goplugin/contracts/src/v0.4/vendor/Buffer.sol\":2851:2883  max(buf.capacity, len + off) * 2 */\n      mul\n        /* \"@goplugin/contracts/src/v0.4/vendor/Buffer.sol\":2839:2845  resize */\n      tag_258\n        /* \"@goplugin/contracts/src/v0.4/vendor/Buffer.sol\":2839:2884  resize(buf, max(buf.capacity, len + off) * 2) */\n      jump\t// in\n    tag_255:\n        /* \"@goplugin/contracts/src/v0.4/vendor/Buffer.sol\":2801:2891  if (off + len > buf.capacity) {... */\n    tag_254:\n        /* \"@goplugin/contracts/src/v0.4/vendor/Buffer.sol\":3006:3009  buf */\n      dup8\n        /* \"@goplugin/contracts/src/v0.4/vendor/Buffer.sol\":3000:3010  mload(buf) */\n      mload\n        /* \"@goplugin/contracts/src/v0.4/vendor/Buffer.sol\":3077:3083  bufptr */\n      dup1\n        /* \"@goplugin/contracts/src/v0.4/vendor/Buffer.sol\":3071:3084  mload(bufptr) */\n      mload\n        /* \"@goplugin/contracts/src/v0.4/vendor/Buffer.sol\":3193:3196  off */\n      dup9\n        /* \"@goplugin/contracts/src/v0.4/vendor/Buffer.sol\":3188:3190  32 */\n      0x20\n        /* \"@goplugin/contracts/src/v0.4/vendor/Buffer.sol\":3180:3186  bufptr */\n      dup4\n        /* \"@goplugin/contracts/src/v0.4/vendor/Buffer.sol\":3176:3191  add(bufptr, 32) */\n      add\n        /* \"@goplugin/contracts/src/v0.4/vendor/Buffer.sol\":3172:3197  add(add(bufptr, 32), off) */\n      add\n        /* \"@goplugin/contracts/src/v0.4/vendor/Buffer.sol\":3164:3197  dest := add(add(bufptr, 32), off) */\n      swap5\n      pop\n        /* \"@goplugin/contracts/src/v0.4/vendor/Buffer.sol\":3277:3283  buflen */\n      dup1\n        /* \"@goplugin/contracts/src/v0.4/vendor/Buffer.sol\":3271:3274  off */\n      dup10\n        /* \"@goplugin/contracts/src/v0.4/vendor/Buffer.sol\":3266:3269  len */\n      dup9\n        /* \"@goplugin/contracts/src/v0.4/vendor/Buffer.sol\":3262:3275  add(len, off) */\n      add\n        /* \"@goplugin/contracts/src/v0.4/vendor/Buffer.sol\":3259:3284  gt(add(len, off), buflen) */\n      gt\n        /* \"@goplugin/contracts/src/v0.4/vendor/Buffer.sol\":3256:3258  if */\n      iszero\n      tag_259\n      jumpi\n        /* \"@goplugin/contracts/src/v0.4/vendor/Buffer.sol\":3319:3322  off */\n      dup9\n        /* \"@goplugin/contracts/src/v0.4/vendor/Buffer.sol\":3314:3317  len */\n      dup8\n        /* \"@goplugin/contracts/src/v0.4/vendor/Buffer.sol\":3310:3323  add(len, off) */\n      add\n        /* \"@goplugin/contracts/src/v0.4/vendor/Buffer.sol\":3302:3308  bufptr */\n      dup3\n        /* \"@goplugin/contracts/src/v0.4/vendor/Buffer.sol\":3295:3324  mstore(bufptr, add(len, off)) */\n      mstore\n        /* \"@goplugin/contracts/src/v0.4/vendor/Buffer.sol\":3256:3258  if */\n    tag_259:\n        /* \"@goplugin/contracts/src/v0.4/vendor/Buffer.sol\":3356:3358  32 */\n      0x20\n        /* \"@goplugin/contracts/src/v0.4/vendor/Buffer.sol\":3350:3354  data */\n      dup9\n        /* \"@goplugin/contracts/src/v0.4/vendor/Buffer.sol\":3346:3359  add(data, 32) */\n      add\n        /* \"@goplugin/contracts/src/v0.4/vendor/Buffer.sol\":3339:3359  src := add(data, 32) */\n      swap4\n      pop\n        /* \"@goplugin/contracts/src/v0.4/vendor/Buffer.sol\":2935:3365  {... */\n      pop\n      pop\n        /* \"@goplugin/contracts/src/v0.4/vendor/Buffer.sol\":3417:3546  for (; len >= 32; len -= 32) {... */\n    tag_260:\n        /* \"@goplugin/contracts/src/v0.4/vendor/Buffer.sol\":3431:3433  32 */\n      0x20\n        /* \"@goplugin/contracts/src/v0.4/vendor/Buffer.sol\":3424:3427  len */\n      dup6\n        /* \"@goplugin/contracts/src/v0.4/vendor/Buffer.sol\":3424:3433  len >= 32 */\n      lt\n      iszero\n        /* \"@goplugin/contracts/src/v0.4/vendor/Buffer.sol\":3417:3546  for (; len >= 32; len -= 32) {... */\n      iszero\n      tag_261\n      jumpi\n        /* \"@goplugin/contracts/src/v0.4/vendor/Buffer.sol\":3492:3495  src */\n      dup2\n        /* \"@goplugin/contracts/src/v0.4/vendor/Buffer.sol\":3486:3496  mload(src) */\n      mload\n        /* \"@goplugin/contracts/src/v0.4/vendor/Buffer.sol\":3480:3484  dest */\n      dup4\n        /* \"@goplugin/contracts/src/v0.4/vendor/Buffer.sol\":3473:3497  mstore(dest, mload(src)) */\n      mstore\n        /* \"@goplugin/contracts/src/v0.4/vendor/Buffer.sol\":3520:3522  32 */\n      0x20\n        /* \"@goplugin/contracts/src/v0.4/vendor/Buffer.sol\":3512:3522  dest += 32 */\n      dup4\n      add\n      swap3\n      pop\n        /* \"@goplugin/contracts/src/v0.4/vendor/Buffer.sol\":3537:3539  32 */\n      0x20\n        /* \"@goplugin/contracts/src/v0.4/vendor/Buffer.sol\":3530:3539  src += 32 */\n      dup3\n      add\n      swap2\n      pop\n        /* \"@goplugin/contracts/src/v0.4/vendor/Buffer.sol\":3442:3444  32 */\n      0x20\n        /* \"@goplugin/contracts/src/v0.4/vendor/Buffer.sol\":3435:3444  len -= 32 */\n      dup6\n      sub\n      swap5\n      pop\n        /* \"@goplugin/contracts/src/v0.4/vendor/Buffer.sol\":3417:3546  for (; len >= 32; len -= 32) {... */\n      jump(tag_260)\n    tag_261:\n        /* \"@goplugin/contracts/src/v0.4/vendor/Buffer.sol\":3612:3613  1 */\n      0x1\n        /* \"@goplugin/contracts/src/v0.4/vendor/Buffer.sol\":3605:3608  len */\n      dup6\n        /* \"@goplugin/contracts/src/v0.4/vendor/Buffer.sol\":3600:3602  32 */\n      0x20\n        /* \"@goplugin/contracts/src/v0.4/vendor/Buffer.sol\":3600:3608  32 - len */\n      sub\n        /* \"@goplugin/contracts/src/v0.4/vendor/Buffer.sol\":3592:3595  256 */\n      0x100\n        /* \"@goplugin/contracts/src/v0.4/vendor/Buffer.sol\":3592:3609  256 ** (32 - len) */\n      exp\n        /* \"@goplugin/contracts/src/v0.4/vendor/Buffer.sol\":3592:3613  256 ** (32 - len) - 1 */\n      sub\n        /* \"@goplugin/contracts/src/v0.4/vendor/Buffer.sol\":3580:3613  uint mask = 256 ** (32 - len) - 1 */\n      swap1\n      pop\n        /* \"@goplugin/contracts/src/v0.4/vendor/Buffer.sol\":3671:3675  mask */\n      dup1\n        /* \"@goplugin/contracts/src/v0.4/vendor/Buffer.sol\":3667:3676  not(mask) */\n      not\n        /* \"@goplugin/contracts/src/v0.4/vendor/Buffer.sol\":3661:3664  src */\n      dup3\n        /* \"@goplugin/contracts/src/v0.4/vendor/Buffer.sol\":3655:3665  mload(src) */\n      mload\n        /* \"@goplugin/contracts/src/v0.4/vendor/Buffer.sol\":3651:3677  and(mload(src), not(mask)) */\n      and\n        /* \"@goplugin/contracts/src/v0.4/vendor/Buffer.sol\":3717:3721  mask */\n      dup2\n        /* \"@goplugin/contracts/src/v0.4/vendor/Buffer.sol\":3710:3714  dest */\n      dup5\n        /* \"@goplugin/contracts/src/v0.4/vendor/Buffer.sol\":3704:3715  mload(dest) */\n      mload\n        /* \"@goplugin/contracts/src/v0.4/vendor/Buffer.sol\":3700:3722  and(mload(dest), mask) */\n      and\n        /* \"@goplugin/contracts/src/v0.4/vendor/Buffer.sol\":3755:3762  srcpart */\n      dup2\n        /* \"@goplugin/contracts/src/v0.4/vendor/Buffer.sol\":3745:3753  destpart */\n      dup2\n        /* \"@goplugin/contracts/src/v0.4/vendor/Buffer.sol\":3742:3763  or(destpart, srcpart) */\n      or\n        /* \"@goplugin/contracts/src/v0.4/vendor/Buffer.sol\":3736:3740  dest */\n      dup6\n        /* \"@goplugin/contracts/src/v0.4/vendor/Buffer.sol\":3729:3764  mstore(dest, or(destpart, srcpart)) */\n      mstore\n        /* \"@goplugin/contracts/src/v0.4/vendor/Buffer.sol\":3628:3770  {... */\n      pop\n      pop\n        /* \"@goplugin/contracts/src/v0.4/vendor/Buffer.sol\":3783:3786  buf */\n      dup8\n        /* \"@goplugin/contracts/src/v0.4/vendor/Buffer.sol\":3776:3786  return buf */\n      swap4\n      pop\n        /* \"@goplugin/contracts/src/v0.4/vendor/Buffer.sol\":2651:3791  function write(buffer memory buf, uint off, bytes memory data, uint len) internal pure returns(buffer memory) {... */\n      pop\n      pop\n      pop\n      swap5\n      swap4\n      pop\n      pop\n      pop\n      pop\n      jump\t// out\n        /* \"@goplugin/contracts/src/v0.4/vendor/CBOR.sol\":2175:2353  function encodeBytes(BufferPlugin.buffer memory buf, bytes memory value) internal pure {... */\n    tag_239:\n        /* \"@goplugin/contracts/src/v0.4/vendor/CBOR.sol\":2272:2319  encodeType(buf, MAJOR_TYPE_BYTES, value.length) */\n      tag_264\n        /* \"@goplugin/contracts/src/v0.4/vendor/CBOR.sol\":2283:2286  buf */\n      dup3\n        /* \"@goplugin/contracts/src/v0.4/vendor/CBOR.sol\":337:338  2 */\n      0x2\n        /* \"@goplugin/contracts/src/v0.4/vendor/CBOR.sol\":2306:2311  value */\n      dup4\n        /* \"@goplugin/contracts/src/v0.4/vendor/CBOR.sol\":2306:2318  value.length */\n      mload\n        /* \"@goplugin/contracts/src/v0.4/vendor/CBOR.sol\":2272:2282  encodeType */\n      tag_184\n        /* \"@goplugin/contracts/src/v0.4/vendor/CBOR.sol\":2272:2319  encodeType(buf, MAJOR_TYPE_BYTES, value.length) */\n      jump\t// in\n    tag_264:\n        /* \"@goplugin/contracts/src/v0.4/vendor/CBOR.sol\":2329:2346  buf.append(value) */\n      tag_265\n        /* \"@goplugin/contracts/src/v0.4/vendor/CBOR.sol\":2340:2345  value */\n      dup2\n        /* \"@goplugin/contracts/src/v0.4/vendor/CBOR.sol\":2329:2332  buf */\n      dup4\n        /* \"@goplugin/contracts/src/v0.4/vendor/CBOR.sol\":2329:2339  buf.append */\n      tag_186\n      swap1\n        /* \"@goplugin/contracts/src/v0.4/vendor/CBOR.sol\":2329:2346  buf.append(value) */\n      swap2\n      swap1\n      0xffffffff\n      and\n      jump\t// in\n    tag_265:\n      pop\n        /* \"@goplugin/contracts/src/v0.4/vendor/CBOR.sol\":2175:2353  function encodeBytes(BufferPlugin.buffer memory buf, bytes memory value) internal pure {... */\n      pop\n      pop\n      jump\t// out\n        /* \"@goplugin/contracts/src/v0.4/vendor/Buffer.sol\":4945:5564  function writeUint8(buffer memory buf, uint off, uint8 data) internal pure returns(buffer memory) {... */\n    tag_246:\n        /* \"@goplugin/contracts/src/v0.4/vendor/Buffer.sol\":5028:5034  buffer */\n      tag_266\n      jump\t// in(tag_206)\n    tag_266:\n        /* \"@goplugin/contracts/src/v0.4/vendor/Buffer.sol\":5060:5063  buf */\n      dup4\n        /* \"@goplugin/contracts/src/v0.4/vendor/Buffer.sol\":5060:5072  buf.capacity */\n      0x20\n      add\n      mload\n        /* \"@goplugin/contracts/src/v0.4/vendor/Buffer.sol\":5053:5056  off */\n      dup4\n        /* \"@goplugin/contracts/src/v0.4/vendor/Buffer.sol\":5053:5072  off >= buf.capacity */\n      lt\n      iszero\n        /* \"@goplugin/contracts/src/v0.4/vendor/Buffer.sol\":5049:5118  if (off >= buf.capacity) {... */\n      iszero\n      tag_268\n      jumpi\n        /* \"@goplugin/contracts/src/v0.4/vendor/Buffer.sol\":5082:5111  resize(buf, buf.capacity * 2) */\n      tag_269\n        /* \"@goplugin/contracts/src/v0.4/vendor/Buffer.sol\":5089:5092  buf */\n      dup5\n        /* \"@goplugin/contracts/src/v0.4/vendor/Buffer.sol\":5109:5110  2 */\n      0x2\n        /* \"@goplugin/contracts/src/v0.4/vendor/Buffer.sol\":5094:5097  buf */\n      dup7\n        /* \"@goplugin/contracts/src/v0.4/vendor/Buffer.sol\":5094:5106  buf.capacity */\n      0x20\n      add\n      mload\n        /* \"@goplugin/contracts/src/v0.4/vendor/Buffer.sol\":5094:5110  buf.capacity * 2 */\n      mul\n        /* \"@goplugin/contracts/src/v0.4/vendor/Buffer.sol\":5082:5088  resize */\n      tag_258\n        /* \"@goplugin/contracts/src/v0.4/vendor/Buffer.sol\":5082:5111  resize(buf, buf.capacity * 2) */\n      jump\t// in\n    tag_269:\n        /* \"@goplugin/contracts/src/v0.4/vendor/Buffer.sol\":5049:5118  if (off >= buf.capacity) {... */\n    tag_268:\n        /* \"@goplugin/contracts/src/v0.4/vendor/Buffer.sol\":5204:5207  buf */\n      dup4\n        /* \"@goplugin/contracts/src/v0.4/vendor/Buffer.sol\":5198:5208  mload(buf) */\n      mload\n        /* \"@goplugin/contracts/src/v0.4/vendor/Buffer.sol\":5275:5281  bufptr */\n      dup1\n        /* \"@goplugin/contracts/src/v0.4/vendor/Buffer.sol\":5269:5282  mload(bufptr) */\n      mload\n        /* \"@goplugin/contracts/src/v0.4/vendor/Buffer.sol\":5387:5389  32 */\n      0x20\n        /* \"@goplugin/contracts/src/v0.4/vendor/Buffer.sol\":5381:5384  off */\n      dup6\n        /* \"@goplugin/contracts/src/v0.4/vendor/Buffer.sol\":5373:5379  bufptr */\n      dup4\n        /* \"@goplugin/contracts/src/v0.4/vendor/Buffer.sol\":5369:5385  add(bufptr, off) */\n      add\n        /* \"@goplugin/contracts/src/v0.4/vendor/Buffer.sol\":5365:5390  add(add(bufptr, off), 32) */\n      add\n        /* \"@goplugin/contracts/src/v0.4/vendor/Buffer.sol\":5411:5415  data */\n      dup5\n        /* \"@goplugin/contracts/src/v0.4/vendor/Buffer.sol\":5405:5409  dest */\n      dup2\n        /* \"@goplugin/contracts/src/v0.4/vendor/Buffer.sol\":5397:5416  mstore8(dest, data) */\n      mstore8\n        /* \"@goplugin/contracts/src/v0.4/vendor/Buffer.sol\":5482:5488  buflen */\n      dup2\n        /* \"@goplugin/contracts/src/v0.4/vendor/Buffer.sol\":5477:5480  off */\n      dup7\n        /* \"@goplugin/contracts/src/v0.4/vendor/Buffer.sol\":5474:5489  eq(off, buflen) */\n      eq\n        /* \"@goplugin/contracts/src/v0.4/vendor/Buffer.sol\":5471:5473  if */\n      iszero\n      tag_270\n      jumpi\n        /* \"@goplugin/contracts/src/v0.4/vendor/Buffer.sol\":5527:5528  1 */\n      0x1\n        /* \"@goplugin/contracts/src/v0.4/vendor/Buffer.sol\":5519:5525  buflen */\n      dup3\n        /* \"@goplugin/contracts/src/v0.4/vendor/Buffer.sol\":5515:5529  add(buflen, 1) */\n      add\n        /* \"@goplugin/contracts/src/v0.4/vendor/Buffer.sol\":5507:5513  bufptr */\n      dup4\n        /* \"@goplugin/contracts/src/v0.4/vendor/Buffer.sol\":5500:5530  mstore(bufptr, add(buflen, 1)) */\n      mstore\n        /* \"@goplugin/contracts/src/v0.4/vendor/Buffer.sol\":5471:5473  if */\n    tag_270:\n        /* \"@goplugin/contracts/src/v0.4/vendor/Buffer.sol\":5133:5544  {... */\n      pop\n      pop\n      pop\n        /* \"@goplugin/contracts/src/v0.4/vendor/Buffer.sol\":5556:5559  buf */\n      dup4\n        /* \"@goplugin/contracts/src/v0.4/vendor/Buffer.sol\":5549:5559  return buf */\n      swap1\n      pop\n        /* \"@goplugin/contracts/src/v0.4/vendor/Buffer.sol\":4945:5564  function writeUint8(buffer memory buf, uint off, uint8 data) internal pure returns(buffer memory) {... */\n      swap4\n      swap3\n      pop\n      pop\n      pop\n      jump\t// out\n        /* \"@goplugin/contracts/src/v0.4/vendor/Buffer.sol\":8610:9252  function writeInt(buffer memory buf, uint off, uint data, uint len) private pure returns(buffer memory) {... */\n    tag_250:\n        /* \"@goplugin/contracts/src/v0.4/vendor/Buffer.sol\":8699:8705  buffer */\n      tag_271\n      jump\t// in(tag_206)\n    tag_271:\n        /* \"@goplugin/contracts/src/v0.4/vendor/Buffer.sol\":8799:8808  uint mask */\n      0x0\n        /* \"@goplugin/contracts/src/v0.4/vendor/Buffer.sol\":8736:8739  buf */\n      dup6\n        /* \"@goplugin/contracts/src/v0.4/vendor/Buffer.sol\":8736:8748  buf.capacity */\n      0x20\n      add\n      mload\n        /* \"@goplugin/contracts/src/v0.4/vendor/Buffer.sol\":8730:8733  off */\n      dup6\n        /* \"@goplugin/contracts/src/v0.4/vendor/Buffer.sol\":8724:8727  len */\n      dup5\n        /* \"@goplugin/contracts/src/v0.4/vendor/Buffer.sol\":8724:8733  len + off */\n      add\n        /* \"@goplugin/contracts/src/v0.4/vendor/Buffer.sol\":8724:8748  len + off > buf.capacity */\n      gt\n        /* \"@goplugin/contracts/src/v0.4/vendor/Buffer.sol\":8720:8793  if (len + off > buf.capacity) {... */\n      iszero\n      tag_273\n      jumpi\n        /* \"@goplugin/contracts/src/v0.4/vendor/Buffer.sol\":8758:8786  resize(buf, (len + off) * 2) */\n      tag_274\n        /* \"@goplugin/contracts/src/v0.4/vendor/Buffer.sol\":8765:8768  buf */\n      dup7\n        /* \"@goplugin/contracts/src/v0.4/vendor/Buffer.sol\":8784:8785  2 */\n      0x2\n        /* \"@goplugin/contracts/src/v0.4/vendor/Buffer.sol\":8777:8780  off */\n      dup8\n        /* \"@goplugin/contracts/src/v0.4/vendor/Buffer.sol\":8771:8774  len */\n      dup7\n        /* \"@goplugin/contracts/src/v0.4/vendor/Buffer.sol\":8771:8780  len + off */\n      add\n        /* \"@goplugin/contracts/src/v0.4/vendor/Buffer.sol\":8770:8785  (len + off) * 2 */\n      mul\n        /* \"@goplugin/contracts/src/v0.4/vendor/Buffer.sol\":8758:8764  resize */\n      tag_258\n        /* \"@goplugin/contracts/src/v0.4/vendor/Buffer.sol\":8758:8786  resize(buf, (len + off) * 2) */\n      jump\t// in\n    tag_274:\n        /* \"@goplugin/contracts/src/v0.4/vendor/Buffer.sol\":8720:8793  if (len + off > buf.capacity) {... */\n    tag_273:\n        /* \"@goplugin/contracts/src/v0.4/vendor/Buffer.sol\":8824:8825  1 */\n      0x1\n        /* \"@goplugin/contracts/src/v0.4/vendor/Buffer.sol\":8818:8821  len */\n      dup4\n        /* \"@goplugin/contracts/src/v0.4/vendor/Buffer.sol\":8811:8814  256 */\n      0x100\n        /* \"@goplugin/contracts/src/v0.4/vendor/Buffer.sol\":8811:8821  256 ** len */\n      exp\n        /* \"@goplugin/contracts/src/v0.4/vendor/Buffer.sol\":8811:8825  256 ** len - 1 */\n      sub\n        /* \"@goplugin/contracts/src/v0.4/vendor/Buffer.sol\":8799:8825  uint mask = 256 ** len - 1 */\n      swap1\n      pop\n        /* \"@goplugin/contracts/src/v0.4/vendor/Buffer.sol\":8911:8914  buf */\n      dup6\n        /* \"@goplugin/contracts/src/v0.4/vendor/Buffer.sol\":8905:8915  mload(buf) */\n      mload\n        /* \"@goplugin/contracts/src/v0.4/vendor/Buffer.sol\":9026:9029  len */\n      dup4\n        /* \"@goplugin/contracts/src/v0.4/vendor/Buffer.sol\":9020:9023  off */\n      dup7\n        /* \"@goplugin/contracts/src/v0.4/vendor/Buffer.sol\":9012:9018  bufptr */\n      dup3\n        /* \"@goplugin/contracts/src/v0.4/vendor/Buffer.sol\":9008:9024  add(bufptr, off) */\n      add\n        /* \"@goplugin/contracts/src/v0.4/vendor/Buffer.sol\":9004:9030  add(add(bufptr, off), len) */\n      add\n        /* \"@goplugin/contracts/src/v0.4/vendor/Buffer.sol\":9082:9086  data */\n      dup6\n        /* \"@goplugin/contracts/src/v0.4/vendor/Buffer.sol\":9074:9078  mask */\n      dup4\n        /* \"@goplugin/contracts/src/v0.4/vendor/Buffer.sol\":9070:9079  not(mask) */\n      not\n        /* \"@goplugin/contracts/src/v0.4/vendor/Buffer.sol\":9063:9067  dest */\n      dup3\n        /* \"@goplugin/contracts/src/v0.4/vendor/Buffer.sol\":9057:9068  mload(dest) */\n      mload\n        /* \"@goplugin/contracts/src/v0.4/vendor/Buffer.sol\":9053:9080  and(mload(dest), not(mask)) */\n      and\n        /* \"@goplugin/contracts/src/v0.4/vendor/Buffer.sol\":9050:9087  or(and(mload(dest), not(mask)), data) */\n      or\n        /* \"@goplugin/contracts/src/v0.4/vendor/Buffer.sol\":9044:9048  dest */\n      dup2\n        /* \"@goplugin/contracts/src/v0.4/vendor/Buffer.sol\":9037:9088  mstore(dest, or(and(mload(dest), not(mask)), data)) */\n      mstore\n        /* \"@goplugin/contracts/src/v0.4/vendor/Buffer.sol\":9170:9176  bufptr */\n      dup2\n        /* \"@goplugin/contracts/src/v0.4/vendor/Buffer.sol\":9164:9177  mload(bufptr) */\n      mload\n        /* \"@goplugin/contracts/src/v0.4/vendor/Buffer.sol\":9158:9161  len */\n      dup6\n        /* \"@goplugin/contracts/src/v0.4/vendor/Buffer.sol\":9153:9156  off */\n      dup9\n        /* \"@goplugin/contracts/src/v0.4/vendor/Buffer.sol\":9149:9162  add(off, len) */\n      add\n        /* \"@goplugin/contracts/src/v0.4/vendor/Buffer.sol\":9146:9178  gt(add(off, len), mload(bufptr)) */\n      gt\n        /* \"@goplugin/contracts/src/v0.4/vendor/Buffer.sol\":9143:9145  if */\n      iszero\n      tag_275\n      jumpi\n        /* \"@goplugin/contracts/src/v0.4/vendor/Buffer.sol\":9213:9216  len */\n      dup5\n        /* \"@goplugin/contracts/src/v0.4/vendor/Buffer.sol\":9208:9211  off */\n      dup8\n        /* \"@goplugin/contracts/src/v0.4/vendor/Buffer.sol\":9204:9217  add(off, len) */\n      add\n        /* \"@goplugin/contracts/src/v0.4/vendor/Buffer.sol\":9196:9202  bufptr */\n      dup3\n        /* \"@goplugin/contracts/src/v0.4/vendor/Buffer.sol\":9189:9218  mstore(bufptr, add(off, len)) */\n      mstore\n        /* \"@goplugin/contracts/src/v0.4/vendor/Buffer.sol\":9143:9145  if */\n    tag_275:\n        /* \"@goplugin/contracts/src/v0.4/vendor/Buffer.sol\":8840:9232  {... */\n      pop\n      pop\n        /* \"@goplugin/contracts/src/v0.4/vendor/Buffer.sol\":9244:9247  buf */\n      dup6\n        /* \"@goplugin/contracts/src/v0.4/vendor/Buffer.sol\":9237:9247  return buf */\n      swap2\n      pop\n        /* \"@goplugin/contracts/src/v0.4/vendor/Buffer.sol\":8610:9252  function writeInt(buffer memory buf, uint off, uint data, uint len) private pure returns(buffer memory) {... */\n      pop\n      swap5\n      swap4\n      pop\n      pop\n      pop\n      pop\n      jump\t// out\n        /* \"@goplugin/contracts/src/v0.4/vendor/Buffer.sol\":1889:2003  function max(uint a, uint b) private pure returns(uint) {... */\n    tag_257:\n        /* \"@goplugin/contracts/src/v0.4/vendor/Buffer.sol\":1939:1943  uint */\n      0x0\n        /* \"@goplugin/contracts/src/v0.4/vendor/Buffer.sol\":1959:1960  b */\n      dup2\n        /* \"@goplugin/contracts/src/v0.4/vendor/Buffer.sol\":1955:1956  a */\n      dup4\n        /* \"@goplugin/contracts/src/v0.4/vendor/Buffer.sol\":1955:1960  a > b */\n      gt\n        /* \"@goplugin/contracts/src/v0.4/vendor/Buffer.sol\":1951:1985  if (a > b) {... */\n      iszero\n      tag_277\n      jumpi\n        /* \"@goplugin/contracts/src/v0.4/vendor/Buffer.sol\":1977:1978  a */\n      dup3\n        /* \"@goplugin/contracts/src/v0.4/vendor/Buffer.sol\":1970:1978  return a */\n      swap1\n      pop\n      jump(tag_276)\n        /* \"@goplugin/contracts/src/v0.4/vendor/Buffer.sol\":1951:1985  if (a > b) {... */\n    tag_277:\n        /* \"@goplugin/contracts/src/v0.4/vendor/Buffer.sol\":1997:1998  b */\n      dup2\n        /* \"@goplugin/contracts/src/v0.4/vendor/Buffer.sol\":1990:1998  return b */\n      swap1\n      pop\n        /* \"@goplugin/contracts/src/v0.4/vendor/Buffer.sol\":1889:2003  function max(uint a, uint b) private pure returns(uint) {... */\n    tag_276:\n      swap3\n      swap2\n      pop\n      pop\n      jump\t// out\n        /* \"@goplugin/contracts/src/v0.4/vendor/Buffer.sol\":1732:1885  function resize(buffer memory buf, uint capacity) private pure {... */\n    tag_258:\n        /* \"@goplugin/contracts/src/v0.4/vendor/Buffer.sol\":1801:1820  bytes memory oldbuf */\n      0x60\n        /* \"@goplugin/contracts/src/v0.4/vendor/Buffer.sol\":1823:1826  buf */\n      dup3\n        /* \"@goplugin/contracts/src/v0.4/vendor/Buffer.sol\":1823:1830  buf.buf */\n      0x0\n      add\n      mload\n        /* \"@goplugin/contracts/src/v0.4/vendor/Buffer.sol\":1801:1830  bytes memory oldbuf = buf.buf */\n      swap1\n      pop\n        /* \"@goplugin/contracts/src/v0.4/vendor/Buffer.sol\":1836:1855  init(buf, capacity) */\n      tag_279\n        /* \"@goplugin/contracts/src/v0.4/vendor/Buffer.sol\":1841:1844  buf */\n      dup4\n        /* \"@goplugin/contracts/src/v0.4/vendor/Buffer.sol\":1846:1854  capacity */\n      dup4\n        /* \"@goplugin/contracts/src/v0.4/vendor/Buffer.sol\":1836:1840  init */\n      tag_181\n        /* \"@goplugin/contracts/src/v0.4/vendor/Buffer.sol\":1836:1855  init(buf, capacity) */\n      jump\t// in\n    tag_279:\n      pop\n        /* \"@goplugin/contracts/src/v0.4/vendor/Buffer.sol\":1861:1880  append(buf, oldbuf) */\n      tag_280\n        /* \"@goplugin/contracts/src/v0.4/vendor/Buffer.sol\":1868:1871  buf */\n      dup4\n        /* \"@goplugin/contracts/src/v0.4/vendor/Buffer.sol\":1873:1879  oldbuf */\n      dup3\n        /* \"@goplugin/contracts/src/v0.4/vendor/Buffer.sol\":1861:1867  append */\n      tag_186\n        /* \"@goplugin/contracts/src/v0.4/vendor/Buffer.sol\":1861:1880  append(buf, oldbuf) */\n      jump\t// in\n    tag_280:\n      pop\n        /* \"@goplugin/contracts/src/v0.4/vendor/Buffer.sol\":1732:1885  function resize(buffer memory buf, uint capacity) private pure {... */\n      pop\n      pop\n      pop\n      jump\t// out\n        /* \"contracts/InternalContract.sol\":140:4462  contract InternalContract is PluginClient, Ownable {... */\n    tag_67:\n      0xc0\n      mload(0x40)\n      swap1\n      dup2\n      add\n      0x40\n      mstore\n      dup1\n      0x0\n      dup1\n      not\n      and\n      dup2\n      mstore\n      0x20\n      add\n      and(0xffffffffffffffffffffffffffffffffffffffff, 0x0)\n      dup2\n      mstore\n      0x20\n      add\n      and(not(0xffffffffffffffffffffffffffffffffffffffffffffffffffffffff), 0x0)\n      dup2\n      mstore\n      0x20\n      add\n      0x0\n      dup2\n      mstore\n      0x20\n      add\n      tag_281\n      jump\t// in(tag_282)\n    tag_281:\n      dup2\n      mstore\n      pop\n      swap1\n      jump\t// out\n    tag_126:\n      0x40\n      dup1\n      mload\n      swap1\n      dup2\n      add\n      0x40\n      mstore\n      dup1\n      and(0xffffffffffffffffffffffffffffffffffffffff, 0x0)\n      dup2\n      mstore\n      0x20\n      add\n      0x0\n      dup2\n      mstore\n      pop\n      swap1\n      jump\t// out\n    tag_206:\n      0x40\n      dup1\n      mload\n      swap1\n      dup2\n      add\n      0x40\n      mstore\n      dup1\n      0x60\n      dup2\n      mstore\n      0x20\n      add\n      0x0\n      dup2\n      mstore\n      pop\n      swap1\n      jump\t// out\n    tag_282:\n      0x40\n      dup1\n      mload\n      swap1\n      dup2\n      add\n      0x40\n      mstore\n      dup1\n      0x60\n      dup2\n      mstore\n      0x20\n      add\n      0x0\n      dup2\n      mstore\n      pop\n      swap1\n      jump\t// out\n\n    auxdata: 0xa165627a7a7230582026c6ea73a923c04da8aa865f9e98f40a5461935b7672e8b0cecf1a3ad8ef08ae0029\n}\n",
				"bytecode": {
					"linkReferences": {},
					"object": "608060405260016004553480156200001657600080fd5b50604051620029783803806200297883398101806040528101908080519060200190929190805190602001909291908051820192919050505033600660006101000a81548173ffffffffffffffffffffffffffffffffffffffff021916908373ffffffffffffffffffffffffffffffffffffffff160217905550620000aa836200010d640100000000026401000000009004565b81600760006101000a81548173ffffffffffffffffffffffffffffffffffffffff021916908373ffffffffffffffffffffffffffffffffffffffff16021790555080600890805190602001906200010392919062000151565b5050505062000200565b80600260006101000a81548173ffffffffffffffffffffffffffffffffffffffff021916908373ffffffffffffffffffffffffffffffffffffffff16021790555050565b828054600181600116156101000203166002900490600052602060002090601f016020900481019282601f106200019457805160ff1916838001178555620001c5565b82800160010185558215620001c5579182015b82811115620001c4578251825591602001919060010190620001a7565b5b509050620001d49190620001d8565b5090565b620001fd91905b80821115620001f9576000816000905550600101620001df565b5090565b90565b61276880620002106000396000f3006080604052600436106100db576000357c0100000000000000000000000000000000000000000000000000000000900463ffffffff1680632d8c762c146100e057806337fccd30146101135780634357855e1461012a578063698996f814610165578063715018a6146101905780637dc0d1d0146101a75780638da5cb5b146101fe5780638e0e0abb146102555780639dd4cc5d14610280578063a2e36c5f146102df578063a4b6f67e14610369578063c2939d97146103c0578063d378d5eb14610450578063ec65d0f814610495578063f2fde38b14610503575b600080fd5b3480156100ec57600080fd5b506100f5610546565b60405180826000191660001916815260200191505060405180910390f35b34801561011f57600080fd5b50610128610801565b005b34801561013657600080fd5b50610163600480360381019080803560001916906020019092919080359060200190929190505050610a93565b005b34801561017157600080fd5b5061017a610c45565b6040518082815260200191505060405180910390f35b34801561019c57600080fd5b506101a5610c4b565b005b3480156101b357600080fd5b506101bc610d50565b604051808273ffffffffffffffffffffffffffffffffffffffff1673ffffffffffffffffffffffffffffffffffffffff16815260200191505060405180910390f35b34801561020a57600080fd5b50610213610d76565b604051808273ffffffffffffffffffffffffffffffffffffffff1673ffffffffffffffffffffffffffffffffffffffff16815260200191505060405180910390f35b34801561026157600080fd5b5061026a610d9c565b6040518082815260200191505060405180910390f35b34801561028c57600080fd5b506102c1600480360381019080803573ffffffffffffffffffffffffffffffffffffffff169060200190929190505050610da6565b60405180826000191660001916815260200191505060405180910390f35b3480156102eb57600080fd5b50610320600480360381019080803573ffffffffffffffffffffffffffffffffffffffff16906020019092919050505061120b565b604051808373ffffffffffffffffffffffffffffffffffffffff1673ffffffffffffffffffffffffffffffffffffffff1681526020018281526020019250505060405180910390f35b34801561037557600080fd5b5061037e61124f565b604051808273ffffffffffffffffffffffffffffffffffffffff1673ffffffffffffffffffffffffffffffffffffffff16815260200191505060405180910390f35b3480156103cc57600080fd5b506103d561125e565b6040518080602001828103825283818151815260200191508051906020019080838360005b838110156104155780820151818401526020810190506103fa565b50505050905090810190601f1680156104425780820380516001836020036101000a031916815260200191505b509250505060405180910390f35b34801561045c57600080fd5b5061047b600480360381019080803590602001909291905050506112fc565b604051808215151515815260200191505060405180910390f35b3480156104a157600080fd5b5061050160048036038101908080356000191690602001909291908035906020019092919080357bffffffffffffffffffffffffffffffffffffffffffffffffffffffff1916906020019092919080359060200190929190505050611626565b005b34801561050f57600080fd5b50610544600480360381019080803573ffffffffffffffffffffffffffffffffffffffff169060200190929190505050611694565b005b600061055061266a565b600660009054906101000a900473ffffffffffffffffffffffffffffffffffffffff1673ffffffffffffffffffffffffffffffffffffffff163373ffffffffffffffffffffffffffffffffffffffff161415156105ac57600080fd5b61067c61065260088054600181600116156101000203166002900480601f0160208091040260200160405190810160405280929190818152602001828054600181600116156101000203166002900480156106485780601f1061061d57610100808354040283529160200191610648565b820191906000526020600020905b81548152906001019060200180831161062b57829003601f168201915b50505050506116fc565b30634357855e7c010000000000000000000000000000000000000000000000000000000002611727565b90506106fd6040805190810160405280600581526020017f5f6673796d0000000000000000000000000000000000000000000000000000008152506040805190810160405280600381526020017f5844430000000000000000000000000000000000000000000000000000000000815250836117589092919063ffffffff16565b61077c6040805190810160405280600681526020017f5f747379736d00000000000000000000000000000000000000000000000000008152506040805190810160405280600481526020017f5553445400000000000000000000000000000000000000000000000000000000815250836117589092919063ffffffff16565b6107c76040805190810160405280600581526020017f74696d657300000000000000000000000000000000000000000000000000000081525060648361178b9092919063ffffffff16565b6107fb600760009054906101000a900473ffffffffffffffffffffffffffffffffffffffff1682662386f26fc100006117be565b91505090565b6000600660009054906101000a900473ffffffffffffffffffffffffffffffffffffffff1673ffffffffffffffffffffffffffffffffffffffff163373ffffffffffffffffffffffffffffffffffffffff1614151561085f57600080fd5b610867611b4a565b90508073ffffffffffffffffffffffffffffffffffffffff1663a9059cbb338373ffffffffffffffffffffffffffffffffffffffff166370a08231306040518263ffffffff167c0100000000000000000000000000000000000000000000000000000000028152600401808273ffffffffffffffffffffffffffffffffffffffff1673ffffffffffffffffffffffffffffffffffffffff168152602001915050602060405180830381600087803b15801561092157600080fd5b505af1158015610935573d6000803e3d6000fd5b505050506040513d602081101561094b57600080fd5b81019080805190602001909291905050506040518363ffffffff167c0100000000000000000000000000000000000000000000000000000000028152600401808373ffffffffffffffffffffffffffffffffffffffff1673ffffffffffffffffffffffffffffffffffffffff16815260200182815260200192505050602060405180830381600087803b1580156109e157600080fd5b505af11580156109f5573d6000803e3d6000fd5b505050506040513d6020811015610a0b57600080fd5b81019080805190602001909291905050501515610a90576040517f08c379a00000000000000000000000000000000000000000000000000000000081526004018080602001828103825260128152602001807f556e61626c6520746f207472616e73666572000000000000000000000000000081525060200191505060405180910390fd5b50565b8160056000826000191660001916815260200190815260200160002060009054906101000a900473ffffffffffffffffffffffffffffffffffffffff1673ffffffffffffffffffffffffffffffffffffffff163373ffffffffffffffffffffffffffffffffffffffff16141515610b98576040517f08c379a00000000000000000000000000000000000000000000000000000000081526004018080602001828103825260288152602001807f536f75726365206d75737420626520746865206f7261636c65206f662074686581526020017f207265717565737400000000000000000000000000000000000000000000000081525060400191505060405180910390fd5b60056000826000191660001916815260200190815260200160002060006101000a81549073ffffffffffffffffffffffffffffffffffffffff021916905580600019167fa40ad10b942505047c532a7399bf5eac2768b11b7155b40ec80309aea567f99860405160405180910390a28183600019167f1ca8663227a7fe9919713a01d344afbb434e234f35a3e540a6ad924f88771f3860405160405180910390a381600981905550505050565b60095481565b600660009054906101000a900473ffffffffffffffffffffffffffffffffffffffff1673ffffffffffffffffffffffffffffffffffffffff163373ffffffffffffffffffffffffffffffffffffffff16141515610ca757600080fd5b600660009054906101000a900473ffffffffffffffffffffffffffffffffffffffff1673ffffffffffffffffffffffffffffffffffffffff167ff8df31144d9c2f0f6b59d69b8b98abd5459d07f2742c4df920b25aae33c6482060405160405180910390a26000600660006101000a81548173ffffffffffffffffffffffffffffffffffffffff021916908373ffffffffffffffffffffffffffffffffffffffff160217905550565b600760009054906101000a900473ffffffffffffffffffffffffffffffffffffffff1681565b600660009054906101000a900473ffffffffffffffffffffffffffffffffffffffff1681565b6000600954905090565b600080610db161266a565b600a60008573ffffffffffffffffffffffffffffffffffffffff1673ffffffffffffffffffffffffffffffffffffffff168152602001908152602001600020600101549150662386f26fc1000082111515610e74576040517f08c379a00000000000000000000000000000000000000000000000000000000081526004018080602001828103825260158152602001807f4e4f5f53554646494349454e545f43524544495453000000000000000000000081525060200191505060405180910390fd5b662386f26fc100008203600a60008673ffffffffffffffffffffffffffffffffffffffff1673ffffffffffffffffffffffffffffffffffffffff16815260200190815260200160002060010181905550610f94610f6a60088054600181600116156101000203166002900480601f016020809104026020016040519081016040528092919081815260200182805460018160011615610100020316600290048015610f605780601f10610f3557610100808354040283529160200191610f60565b820191906000526020600020905b815481529060010190602001808311610f4357829003601f168201915b50505050506116fc565b30634357855e7c010000000000000000000000000000000000000000000000000000000002611727565b90506110156040805190810160405280600681526020017f5f667379736d00000000000000000000000000000000000000000000000000008152506040805190810160405280600381526020017f5844430000000000000000000000000000000000000000000000000000000000815250836117589092919063ffffffff16565b6110946040805190810160405280600681526020017f5f747379736d00000000000000000000000000000000000000000000000000008152506040805190810160405280600481526020017f5553445400000000000000000000000000000000000000000000000000000000815250836117589092919063ffffffff16565b6110df6040805190810160405280600581526020017f74696d657300000000000000000000000000000000000000000000000000000081525060648361178b9092919063ffffffff16565b611113600760009054906101000a900473ffffffffffffffffffffffffffffffffffffffff1682662386f26fc100006117be565b925082600019166111bd60088054600181600116156101000203166002900480601f0160208091040260200160405190810160405280929190818152602001828054600181600116156101000203166002900480156111b35780601f10611188576101008083540402835291602001916111b3565b820191906000526020600020905b81548152906001019060200180831161119657829003601f168201915b50505050506116fc565b600019168573ffffffffffffffffffffffffffffffffffffffff167f7f3df4038a13e7b83557e5a0ebf67fec07391a522319ab42e81255e88de18ffb60405160405180910390a45050919050565b600a6020528060005260406000206000915090508060000160009054906101000a900473ffffffffffffffffffffffffffffffffffffffff16908060010154905082565b6000611259611b4a565b905090565b60088054600181600116156101000203166002900480601f0160208091040260200160405190810160405280929190818152602001828054600181600116156101000203166002900480156112f45780601f106112c9576101008083540402835291602001916112f4565b820191906000526020600020905b8154815290600101906020018083116112d757829003601f168201915b505050505081565b6000806113076126d8565b600068056bc75e2d63100000851115151561138a576040517f08c379a00000000000000000000000000000000000000000000000000000000081526004018080602001828103825260198152602001807f4e4f545f4d4f52455f5448414e5f3130305f414c4c4f5745440000000000000081525060200191505060405180910390fd5b611392611b4a565b92508273ffffffffffffffffffffffffffffffffffffffff166323b872dd3330886040518463ffffffff167c0100000000000000000000000000000000000000000000000000000000028152600401808473ffffffffffffffffffffffffffffffffffffffff1673ffffffffffffffffffffffffffffffffffffffff1681526020018373ffffffffffffffffffffffffffffffffffffffff1673ffffffffffffffffffffffffffffffffffffffff1681526020018281526020019350505050602060405180830381600087803b15801561146b57600080fd5b505af115801561147f573d6000803e3d6000fd5b505050506040513d602081101561149557600080fd5b810190808051906020019092919050505050600a60003373ffffffffffffffffffffffffffffffffffffffff1673ffffffffffffffffffffffffffffffffffffffff1681526020019081526020016000206040805190810160405290816000820160009054906101000a900473ffffffffffffffffffffffffffffffffffffffff1673ffffffffffffffffffffffffffffffffffffffff1673ffffffffffffffffffffffffffffffffffffffff168152602001600182015481525050915084826020015101905060408051908101604052803373ffffffffffffffffffffffffffffffffffffffff16815260200182815250600a60003373ffffffffffffffffffffffffffffffffffffffff1673ffffffffffffffffffffffffffffffffffffffff16815260200190815260200160002060008201518160000160006101000a81548173ffffffffffffffffffffffffffffffffffffffff021916908373ffffffffffffffffffffffffffffffffffffffff1602179055506020820151816001015590505060019350505050919050565b600660009054906101000a900473ffffffffffffffffffffffffffffffffffffffff1673ffffffffffffffffffffffffffffffffffffffff163373ffffffffffffffffffffffffffffffffffffffff1614151561168257600080fd5b61168e84848484611b74565b50505050565b600660009054906101000a900473ffffffffffffffffffffffffffffffffffffffff1673ffffffffffffffffffffffffffffffffffffffff163373ffffffffffffffffffffffffffffffffffffffff161415156116f057600080fd5b6116f981611d0f565b50565b600060608290506000815114156117195760006001029150611721565b602083015191505b50919050565b61172f61266a565b61173761266a565b61174e85858584611e0b909392919063ffffffff16565b9150509392505050565b61176f828460800151611ec590919063ffffffff16565b611786818460800151611ec590919063ffffffff16565b505050565b6117a2828460800151611ec590919063ffffffff16565b6117b9818460800151611eea90919063ffffffff16565b505050565b600030600454604051602001808373ffffffffffffffffffffffffffffffffffffffff1673ffffffffffffffffffffffffffffffffffffffff166c01000000000000000000000000028152601401828152602001925050506040516020818303038152906040526040518082805190602001908083835b60208310151561185a5780518252602082019150602081019050602083039250611835565b6001836020036101000a038019825116818451168082178552505050505050905001915050604051809103902090506004548360600181815250508360056000836000191660001916815260200190815260200160002060006101000a81548173ffffffffffffffffffffffffffffffffffffffff021916908373ffffffffffffffffffffffffffffffffffffffff16021790555080600019167fa6745906207afb96a5801b8e5711fd7b74c5780ce893a973806e179d675bbe2460405160405180910390a2600260009054906101000a900473ffffffffffffffffffffffffffffffffffffffff1673ffffffffffffffffffffffffffffffffffffffff16634000aea0858461196987611f90565b6040518463ffffffff167c0100000000000000000000000000000000000000000000000000000000028152600401808473ffffffffffffffffffffffffffffffffffffffff1673ffffffffffffffffffffffffffffffffffffffff16815260200183815260200180602001828103825283818151815260200191508051906020019080838360005b83811015611a0c5780820151818401526020810190506119f1565b50505050905090810190601f168015611a395780820380516001836020036101000a031916815260200191505b50945050505050602060405180830381600087803b158015611a5a57600080fd5b505af1158015611a6e573d6000803e3d6000fd5b505050506040513d6020811015611a8457600080fd5b81019080805190602001909291905050501515611b2f576040517f08c379a00000000000000000000000000000000000000000000000000000000081526004018080602001828103825260238152602001807f756e61626c6520746f207472616e73666572416e6443616c6c20746f206f726181526020017f636c65000000000000000000000000000000000000000000000000000000000081525060400191505060405180910390fd5b60016004600082825401925050819055508090509392505050565b6000600260009054906101000a900473ffffffffffffffffffffffffffffffffffffffff16905090565b600060056000866000191660001916815260200190815260200160002060009054906101000a900473ffffffffffffffffffffffffffffffffffffffff16905060056000866000191660001916815260200190815260200160002060006101000a81549073ffffffffffffffffffffffffffffffffffffffff021916905584600019167f715822738dad692e521ebc0193d189bf23153eb1d4420173d6b30cd8add9f9a660405160405180910390a28073ffffffffffffffffffffffffffffffffffffffff16636ee4d553868686866040518563ffffffff167c0100000000000000000000000000000000000000000000000000000000028152600401808560001916600019168152602001848152602001837bffffffffffffffffffffffffffffffffffffffffffffffffffffffff19167bffffffffffffffffffffffffffffffffffffffffffffffffffffffff19168152602001828152602001945050505050600060405180830381600087803b158015611cf057600080fd5b505af1158015611d04573d6000803e3d6000fd5b505050505050505050565b600073ffffffffffffffffffffffffffffffffffffffff168173ffffffffffffffffffffffffffffffffffffffff1614151515611d4b57600080fd5b8073ffffffffffffffffffffffffffffffffffffffff16600660009054906101000a900473ffffffffffffffffffffffffffffffffffffffff1673ffffffffffffffffffffffffffffffffffffffff167f8be0079c531659141344cd1fd0a4f28419497f9722a3daafe3b4186f6b6457e060405160405180910390a380600660006101000a81548173ffffffffffffffffffffffffffffffffffffffff021916908373ffffffffffffffffffffffffffffffffffffffff16021790555050565b611e1361266a565b611e2385608001516101006121bb565b50838560000190600019169081600019168152505082856020019073ffffffffffffffffffffffffffffffffffffffff16908173ffffffffffffffffffffffffffffffffffffffff16815250508185604001907bffffffffffffffffffffffffffffffffffffffffffffffffffffffff191690817bffffffffffffffffffffffffffffffffffffffffffffffffffffffff191681525050849050949350505050565b611ed28260038351612215565b611ee5818361237390919063ffffffff16565b505050565b7fffffffffffffffffffffffffffffffffffffffffffffffff0000000000000000811215611f2157611f1c8282612395565b611f8c565b67ffffffffffffffff811315611f4057611f3b8282612406565b611f8b565b600081121515611f5b57611f5682600083612215565b611f8a565b611f89826001837fffffffffffffffffffffffffffffffffffffffffffffffffffffffffffffffff03612215565b5b5b5b5050565b6060600360009054906101000a900473ffffffffffffffffffffffffffffffffffffffff1673ffffffffffffffffffffffffffffffffffffffff16634042994690507c01000000000000000000000000000000000000000000000000000000000260008084600001518560200151866040015187606001516001896080015160000151604051602401808973ffffffffffffffffffffffffffffffffffffffff1673ffffffffffffffffffffffffffffffffffffffff16815260200188815260200187600019166000191681526020018673ffffffffffffffffffffffffffffffffffffffff1673ffffffffffffffffffffffffffffffffffffffff168152602001857bffffffffffffffffffffffffffffffffffffffffffffffffffffffff19167bffffffffffffffffffffffffffffffffffffffffffffffffffffffff1916815260200184815260200183815260200180602001828103825283818151815260200191508051906020019080838360005b8381101561211e578082015181840152602081019050612103565b50505050905090810190601f16801561214b5780820380516001836020036101000a031916815260200191505b509950505050505050505050604051602081830303815290604052907bffffffffffffffffffffffffffffffffffffffffffffffffffffffff19166020820180517bffffffffffffffffffffffffffffffffffffffffffffffffffffffff83818316178352505050509050919050565b6121c3612708565b60006020838115156121d157fe5b061415156121ee576020828115156121e557fe5b06602003820191505b81836020018181525050604051808452600081528281016020016040525082905092915050565b601781111515612247576122418160058460ff169060020a0260ff16178461245590919063ffffffff16565b5061236e565b60ff8111151561228e57612271601860058460ff169060020a02178461245590919063ffffffff16565b50612288816001856124759092919063ffffffff16565b5061236d565b61ffff811115156122d6576122b9601960058460ff169060020a02178461245590919063ffffffff16565b506122d0816002856124759092919063ffffffff16565b5061236c565b63ffffffff8111151561232057612303601a60058460ff169060020a02178461245590919063ffffffff16565b5061231a816004856124759092919063ffffffff16565b5061236b565b67ffffffffffffffff8111151561236a57612351601b60058460ff169060020a02178461245590919063ffffffff16565b50612368816008856124759092919063ffffffff16565b505b5b5b5b5b505050565b61237b612708565b61238d83846000015151848551612497565b905092915050565b6123b660036005600660ff169060020a02178361245590919063ffffffff16565b5061240282827fffffffffffffffffffffffffffffffffffffffffffffffffffffffffffffffff0360405160200180828152602001915050604051602081830303815290604052612554565b5050565b61242760026005600660ff169060020a02178361245590919063ffffffff16565b50612451828260405160200180828152602001915050604051602081830303815290604052612554565b5050565b61245d612708565b61246d8384600001515184612579565b905092915050565b61247d612708565b61248e8485600001515185856125c9565b90509392505050565b61249f612708565b6000806000855185111515156124b457600080fd5b876020015185880111156124df576124de8860026124d88b602001518b8a0161262a565b02612646565b5b8751805188602083010194508089880111156124fb5788870182525b60208801935050505b6020851015156125295781518352602083019250602082019150602085039450612504565b6001856020036101000a03905080198251168184511681811785525050879350505050949350505050565b6125618260028351612215565b612574818361237390919063ffffffff16565b505050565b612581612708565b8360200151831015156125a05761259f846002866020015102612646565b5b83518051602085830101848153818614156125bc576001820183525b5050508390509392505050565b6125d1612708565b6000856020015185840111156125f1576125f086600287860102612646565b5b6001836101000a039050855183868201018583198251161781528151858801111561261c5784870182525b505085915050949350505050565b60008183111561263c57829050612640565b8190505b92915050565b60608260000151905061265983836121bb565b506126648382612373565b50505050565b60c06040519081016040528060008019168152602001600073ffffffffffffffffffffffffffffffffffffffff16815260200160007bffffffffffffffffffffffffffffffffffffffffffffffffffffffff19168152602001600081526020016126d2612722565b81525090565b6040805190810160405280600073ffffffffffffffffffffffffffffffffffffffff168152602001600081525090565b604080519081016040528060608152602001600081525090565b6040805190810160405280606081526020016000815250905600a165627a7a7230582026c6ea73a923c04da8aa865f9e98f40a5461935b7672e8b0cecf1a3ad8ef08ae0029",
					"opcodes": "PUSH1 0x80 PUSH1 0x40 MSTORE PUSH1 0x1 PUSH1 0x4 SSTORE CALLVALUE DUP1 ISZERO PUSH3 0x16 JUMPI PUSH1 0x0 DUP1 REVERT JUMPDEST POP PUSH1 0x40 MLOAD PUSH3 0x2978 CODESIZE SUB DUP1 PUSH3 0x2978 DUP4 CODECOPY DUP2 ADD DUP1 PUSH1 0x40 MSTORE DUP2 ADD SWAP1 DUP1 DUP1 MLOAD SWAP1 PUSH1 0x20 ADD SWAP1 SWAP3 SWAP2 SWAP1 DUP1 MLOAD SWAP1 PUSH1 0x20 ADD SWAP1 SWAP3 SWAP2 SWAP1 DUP1 MLOAD DUP3 ADD SWAP3 SWAP2 SWAP1 POP POP POP CALLER PUSH1 0x6 PUSH1 0x0 PUSH2 0x100 EXP DUP2 SLOAD DUP2 PUSH20 0xFFFFFFFFFFFFFFFFFFFFFFFFFFFFFFFFFFFFFFFF MUL NOT AND SWAP1 DUP4 PUSH20 0xFFFFFFFFFFFFFFFFFFFFFFFFFFFFFFFFFFFFFFFF AND MUL OR SWAP1 SSTORE POP PUSH3 0xAA DUP4 PUSH3 0x10D PUSH5 0x100000000 MUL PUSH5 0x100000000 SWAP1 DIV JUMP JUMPDEST DUP2 PUSH1 0x7 PUSH1 0x0 PUSH2 0x100 EXP DUP2 SLOAD DUP2 PUSH20 0xFFFFFFFFFFFFFFFFFFFFFFFFFFFFFFFFFFFFFFFF MUL NOT AND SWAP1 DUP4 PUSH20 0xFFFFFFFFFFFFFFFFFFFFFFFFFFFFFFFFFFFFFFFF AND MUL OR SWAP1 SSTORE POP DUP1 PUSH1 0x8 SWAP1 DUP1 MLOAD SWAP1 PUSH1 0x20 ADD SWAP1 PUSH3 0x103 SWAP3 SWAP2 SWAP1 PUSH3 0x151 JUMP JUMPDEST POP POP POP POP PUSH3 0x200 JUMP JUMPDEST DUP1 PUSH1 0x2 PUSH1 0x0 PUSH2 0x100 EXP DUP2 SLOAD DUP2 PUSH20 0xFFFFFFFFFFFFFFFFFFFFFFFFFFFFFFFFFFFFFFFF MUL NOT AND SWAP1 DUP4 PUSH20 0xFFFFFFFFFFFFFFFFFFFFFFFFFFFFFFFFFFFFFFFF AND MUL OR SWAP1 SSTORE POP POP JUMP JUMPDEST DUP3 DUP1 SLOAD PUSH1 0x1 DUP2 PUSH1 0x1 AND ISZERO PUSH2 0x100 MUL SUB AND PUSH1 0x2 SWAP1 DIV SWAP1 PUSH1 0x0 MSTORE PUSH1 0x20 PUSH1 0x0 KECCAK256 SWAP1 PUSH1 0x1F ADD PUSH1 0x20 SWAP1 DIV DUP2 ADD SWAP3 DUP3 PUSH1 0x1F LT PUSH3 0x194 JUMPI DUP1 MLOAD PUSH1 0xFF NOT AND DUP4 DUP1 ADD OR DUP6 SSTORE PUSH3 0x1C5 JUMP JUMPDEST DUP3 DUP1 ADD PUSH1 0x1 ADD DUP6 SSTORE DUP3 ISZERO PUSH3 0x1C5 JUMPI SWAP2 DUP3 ADD JUMPDEST DUP3 DUP2 GT ISZERO PUSH3 0x1C4 JUMPI DUP3 MLOAD DUP3 SSTORE SWAP2 PUSH1 0x20 ADD SWAP2 SWAP1 PUSH1 0x1 ADD SWAP1 PUSH3 0x1A7 JUMP JUMPDEST JUMPDEST POP SWAP1 POP PUSH3 0x1D4 SWAP2 SWAP1 PUSH3 0x1D8 JUMP JUMPDEST POP SWAP1 JUMP JUMPDEST PUSH3 0x1FD SWAP2 SWAP1 JUMPDEST DUP1 DUP3 GT ISZERO PUSH3 0x1F9 JUMPI PUSH1 0x0 DUP2 PUSH1 0x0 SWAP1 SSTORE POP PUSH1 0x1 ADD PUSH3 0x1DF JUMP JUMPDEST POP SWAP1 JUMP JUMPDEST SWAP1 JUMP JUMPDEST PUSH2 0x2768 DUP1 PUSH3 0x210 PUSH1 0x0 CODECOPY PUSH1 0x0 RETURN STOP PUSH1 0x80 PUSH1 0x40 MSTORE PUSH1 0x4 CALLDATASIZE LT PUSH2 0xDB JUMPI PUSH1 0x0 CALLDATALOAD PUSH29 0x100000000000000000000000000000000000000000000000000000000 SWAP1 DIV PUSH4 0xFFFFFFFF AND DUP1 PUSH4 0x2D8C762C EQ PUSH2 0xE0 JUMPI DUP1 PUSH4 0x37FCCD30 EQ PUSH2 0x113 JUMPI DUP1 PUSH4 0x4357855E EQ PUSH2 0x12A JUMPI DUP1 PUSH4 0x698996F8 EQ PUSH2 0x165 JUMPI DUP1 PUSH4 0x715018A6 EQ PUSH2 0x190 JUMPI DUP1 PUSH4 0x7DC0D1D0 EQ PUSH2 0x1A7 JUMPI DUP1 PUSH4 0x8DA5CB5B EQ PUSH2 0x1FE JUMPI DUP1 PUSH4 0x8E0E0ABB EQ PUSH2 0x255 JUMPI DUP1 PUSH4 0x9DD4CC5D EQ PUSH2 0x280 JUMPI DUP1 PUSH4 0xA2E36C5F EQ PUSH2 0x2DF JUMPI DUP1 PUSH4 0xA4B6F67E EQ PUSH2 0x369 JUMPI DUP1 PUSH4 0xC2939D97 EQ PUSH2 0x3C0 JUMPI DUP1 PUSH4 0xD378D5EB EQ PUSH2 0x450 JUMPI DUP1 PUSH4 0xEC65D0F8 EQ PUSH2 0x495 JUMPI DUP1 PUSH4 0xF2FDE38B EQ PUSH2 0x503 JUMPI JUMPDEST PUSH1 0x0 DUP1 REVERT JUMPDEST CALLVALUE DUP1 ISZERO PUSH2 0xEC JUMPI PUSH1 0x0 DUP1 REVERT JUMPDEST POP PUSH2 0xF5 PUSH2 0x546 JUMP JUMPDEST PUSH1 0x40 MLOAD DUP1 DUP3 PUSH1 0x0 NOT AND PUSH1 0x0 NOT AND DUP2 MSTORE PUSH1 0x20 ADD SWAP2 POP POP PUSH1 0x40 MLOAD DUP1 SWAP2 SUB SWAP1 RETURN JUMPDEST CALLVALUE DUP1 ISZERO PUSH2 0x11F JUMPI PUSH1 0x0 DUP1 REVERT JUMPDEST POP PUSH2 0x128 PUSH2 0x801 JUMP JUMPDEST STOP JUMPDEST CALLVALUE DUP1 ISZERO PUSH2 0x136 JUMPI PUSH1 0x0 DUP1 REVERT JUMPDEST POP PUSH2 0x163 PUSH1 0x4 DUP1 CALLDATASIZE SUB DUP2 ADD SWAP1 DUP1 DUP1 CALLDATALOAD PUSH1 0x0 NOT AND SWAP1 PUSH1 0x20 ADD SWAP1 SWAP3 SWAP2 SWAP1 DUP1 CALLDATALOAD SWAP1 PUSH1 0x20 ADD SWAP1 SWAP3 SWAP2 SWAP1 POP POP POP PUSH2 0xA93 JUMP JUMPDEST STOP JUMPDEST CALLVALUE DUP1 ISZERO PUSH2 0x171 JUMPI PUSH1 0x0 DUP1 REVERT JUMPDEST POP PUSH2 0x17A PUSH2 0xC45 JUMP JUMPDEST PUSH1 0x40 MLOAD DUP1 DUP3 DUP2 MSTORE PUSH1 0x20 ADD SWAP2 POP POP PUSH1 0x40 MLOAD DUP1 SWAP2 SUB SWAP1 RETURN JUMPDEST CALLVALUE DUP1 ISZERO PUSH2 0x19C JUMPI PUSH1 0x0 DUP1 REVERT JUMPDEST POP PUSH2 0x1A5 PUSH2 0xC4B JUMP JUMPDEST STOP JUMPDEST CALLVALUE DUP1 ISZERO PUSH2 0x1B3 JUMPI PUSH1 0x0 DUP1 REVERT JUMPDEST POP PUSH2 0x1BC PUSH2 0xD50 JUMP JUMPDEST PUSH1 0x40 MLOAD DUP1 DUP3 PUSH20 0xFFFFFFFFFFFFFFFFFFFFFFFFFFFFFFFFFFFFFFFF AND PUSH20 0xFFFFFFFFFFFFFFFFFFFFFFFFFFFFFFFFFFFFFFFF AND DUP2 MSTORE PUSH1 0x20 ADD SWAP2 POP POP PUSH1 0x40 MLOAD DUP1 SWAP2 SUB SWAP1 RETURN JUMPDEST CALLVALUE DUP1 ISZERO PUSH2 0x20A JUMPI PUSH1 0x0 DUP1 REVERT JUMPDEST POP PUSH2 0x213 PUSH2 0xD76 JUMP JUMPDEST PUSH1 0x40 MLOAD DUP1 DUP3 PUSH20 0xFFFFFFFFFFFFFFFFFFFFFFFFFFFFFFFFFFFFFFFF AND PUSH20 0xFFFFFFFFFFFFFFFFFFFFFFFFFFFFFFFFFFFFFFFF AND DUP2 MSTORE PUSH1 0x20 ADD SWAP2 POP POP PUSH1 0x40 MLOAD DUP1 SWAP2 SUB SWAP1 RETURN JUMPDEST CALLVALUE DUP1 ISZERO PUSH2 0x261 JUMPI PUSH1 0x0 DUP1 REVERT JUMPDEST POP PUSH2 0x26A PUSH2 0xD9C JUMP JUMPDEST PUSH1 0x40 MLOAD DUP1 DUP3 DUP2 MSTORE PUSH1 0x20 ADD SWAP2 POP POP PUSH1 0x40 MLOAD DUP1 SWAP2 SUB SWAP1 RETURN JUMPDEST CALLVALUE DUP1 ISZERO PUSH2 0x28C JUMPI PUSH1 0x0 DUP1 REVERT JUMPDEST POP PUSH2 0x2C1 PUSH1 0x4 DUP1 CALLDATASIZE SUB DUP2 ADD SWAP1 DUP1 DUP1 CALLDATALOAD PUSH20 0xFFFFFFFFFFFFFFFFFFFFFFFFFFFFFFFFFFFFFFFF AND SWAP1 PUSH1 0x20 ADD SWAP1 SWAP3 SWAP2 SWAP1 POP POP POP PUSH2 0xDA6 JUMP JUMPDEST PUSH1 0x40 MLOAD DUP1 DUP3 PUSH1 0x0 NOT AND PUSH1 0x0 NOT AND DUP2 MSTORE PUSH1 0x20 ADD SWAP2 POP POP PUSH1 0x40 MLOAD DUP1 SWAP2 SUB SWAP1 RETURN JUMPDEST CALLVALUE DUP1 ISZERO PUSH2 0x2EB JUMPI PUSH1 0x0 DUP1 REVERT JUMPDEST POP PUSH2 0x320 PUSH1 0x4 DUP1 CALLDATASIZE SUB DUP2 ADD SWAP1 DUP1 DUP1 CALLDATALOAD PUSH20 0xFFFFFFFFFFFFFFFFFFFFFFFFFFFFFFFFFFFFFFFF AND SWAP1 PUSH1 0x20 ADD SWAP1 SWAP3 SWAP2 SWAP1 POP POP POP PUSH2 0x120B JUMP JUMPDEST PUSH1 0x40 MLOAD DUP1 DUP4 PUSH20 0xFFFFFFFFFFFFFFFFFFFFFFFFFFFFFFFFFFFFFFFF AND PUSH20 0xFFFFFFFFFFFFFFFFFFFFFFFFFFFFFFFFFFFFFFFF AND DUP2 MSTORE PUSH1 0x20 ADD DUP3 DUP2 MSTORE PUSH1 0x20 ADD SWAP3 POP POP POP PUSH1 0x40 MLOAD DUP1 SWAP2 SUB SWAP1 RETURN JUMPDEST CALLVALUE DUP1 ISZERO PUSH2 0x375 JUMPI PUSH1 0x0 DUP1 REVERT JUMPDEST POP PUSH2 0x37E PUSH2 0x124F JUMP JUMPDEST PUSH1 0x40 MLOAD DUP1 DUP3 PUSH20 0xFFFFFFFFFFFFFFFFFFFFFFFFFFFFFFFFFFFFFFFF AND PUSH20 0xFFFFFFFFFFFFFFFFFFFFFFFFFFFFFFFFFFFFFFFF AND DUP2 MSTORE PUSH1 0x20 ADD SWAP2 POP POP PUSH1 0x40 MLOAD DUP1 SWAP2 SUB SWAP1 RETURN JUMPDEST CALLVALUE DUP1 ISZERO PUSH2 0x3CC JUMPI PUSH1 0x0 DUP1 REVERT JUMPDEST POP PUSH2 0x3D5 PUSH2 0x125E JUMP JUMPDEST PUSH1 0x40 MLOAD DUP1 DUP1 PUSH1 0x20 ADD DUP3 DUP2 SUB DUP3 MSTORE DUP4 DUP2 DUP2 MLOAD DUP2 MSTORE PUSH1 0x20 ADD SWAP2 POP DUP1 MLOAD SWAP1 PUSH1 0x20 ADD SWAP1 DUP1 DUP4 DUP4 PUSH1 0x0 JUMPDEST DUP4 DUP2 LT ISZERO PUSH2 0x415 JUMPI DUP1 DUP3 ADD MLOAD DUP2 DUP5 ADD MSTORE PUSH1 0x20 DUP2 ADD SWAP1 POP PUSH2 0x3FA JUMP JUMPDEST POP POP POP POP SWAP1 POP SWAP1 DUP2 ADD SWAP1 PUSH1 0x1F AND DUP1 ISZERO PUSH2 0x442 JUMPI DUP1 DUP3 SUB DUP1 MLOAD PUSH1 0x1 DUP4 PUSH1 0x20 SUB PUSH2 0x100 EXP SUB NOT AND DUP2 MSTORE PUSH1 0x20 ADD SWAP2 POP JUMPDEST POP SWAP3 POP POP POP PUSH1 0x40 MLOAD DUP1 SWAP2 SUB SWAP1 RETURN JUMPDEST CALLVALUE DUP1 ISZERO PUSH2 0x45C JUMPI PUSH1 0x0 DUP1 REVERT JUMPDEST POP PUSH2 0x47B PUSH1 0x4 DUP1 CALLDATASIZE SUB DUP2 ADD SWAP1 DUP1 DUP1 CALLDATALOAD SWAP1 PUSH1 0x20 ADD SWAP1 SWAP3 SWAP2 SWAP1 POP POP POP PUSH2 0x12FC JUMP JUMPDEST PUSH1 0x40 MLOAD DUP1 DUP3 ISZERO ISZERO ISZERO ISZERO DUP2 MSTORE PUSH1 0x20 ADD SWAP2 POP POP PUSH1 0x40 MLOAD DUP1 SWAP2 SUB SWAP1 RETURN JUMPDEST CALLVALUE DUP1 ISZERO PUSH2 0x4A1 JUMPI PUSH1 0x0 DUP1 REVERT JUMPDEST POP PUSH2 0x501 PUSH1 0x4 DUP1 CALLDATASIZE SUB DUP2 ADD SWAP1 DUP1 DUP1 CALLDATALOAD PUSH1 0x0 NOT AND SWAP1 PUSH1 0x20 ADD SWAP1 SWAP3 SWAP2 SWAP1 DUP1 CALLDATALOAD SWAP1 PUSH1 0x20 ADD SWAP1 SWAP3 SWAP2 SWAP1 DUP1 CALLDATALOAD PUSH28 0xFFFFFFFFFFFFFFFFFFFFFFFFFFFFFFFFFFFFFFFFFFFFFFFFFFFFFFFF NOT AND SWAP1 PUSH1 0x20 ADD SWAP1 SWAP3 SWAP2 SWAP1 DUP1 CALLDATALOAD SWAP1 PUSH1 0x20 ADD SWAP1 SWAP3 SWAP2 SWAP1 POP POP POP PUSH2 0x1626 JUMP JUMPDEST STOP JUMPDEST CALLVALUE DUP1 ISZERO PUSH2 0x50F JUMPI PUSH1 0x0 DUP1 REVERT JUMPDEST POP PUSH2 0x544 PUSH1 0x4 DUP1 CALLDATASIZE SUB DUP2 ADD SWAP1 DUP1 DUP1 CALLDATALOAD PUSH20 0xFFFFFFFFFFFFFFFFFFFFFFFFFFFFFFFFFFFFFFFF AND SWAP1 PUSH1 0x20 ADD SWAP1 SWAP3 SWAP2 SWAP1 POP POP POP PUSH2 0x1694 JUMP JUMPDEST STOP JUMPDEST PUSH1 0x0 PUSH2 0x550 PUSH2 0x266A JUMP JUMPDEST PUSH1 0x6 PUSH1 0x0 SWAP1 SLOAD SWAP1 PUSH2 0x100 EXP SWAP1 DIV PUSH20 0xFFFFFFFFFFFFFFFFFFFFFFFFFFFFFFFFFFFFFFFF AND PUSH20 0xFFFFFFFFFFFFFFFFFFFFFFFFFFFFFFFFFFFFFFFF AND CALLER PUSH20 0xFFFFFFFFFFFFFFFFFFFFFFFFFFFFFFFFFFFFFFFF AND EQ ISZERO ISZERO PUSH2 0x5AC JUMPI PUSH1 0x0 DUP1 REVERT JUMPDEST PUSH2 0x67C PUSH2 0x652 PUSH1 0x8 DUP1 SLOAD PUSH1 0x1 DUP2 PUSH1 0x1 AND ISZERO PUSH2 0x100 MUL SUB AND PUSH1 0x2 SWAP1 DIV DUP1 PUSH1 0x1F ADD PUSH1 0x20 DUP1 SWAP2 DIV MUL PUSH1 0x20 ADD PUSH1 0x40 MLOAD SWAP1 DUP2 ADD PUSH1 0x40 MSTORE DUP1 SWAP3 SWAP2 SWAP1 DUP2 DUP2 MSTORE PUSH1 0x20 ADD DUP3 DUP1 SLOAD PUSH1 0x1 DUP2 PUSH1 0x1 AND ISZERO PUSH2 0x100 MUL SUB AND PUSH1 0x2 SWAP1 DIV DUP1 ISZERO PUSH2 0x648 JUMPI DUP1 PUSH1 0x1F LT PUSH2 0x61D JUMPI PUSH2 0x100 DUP1 DUP4 SLOAD DIV MUL DUP4 MSTORE SWAP2 PUSH1 0x20 ADD SWAP2 PUSH2 0x648 JUMP JUMPDEST DUP3 ADD SWAP2 SWAP1 PUSH1 0x0 MSTORE PUSH1 0x20 PUSH1 0x0 KECCAK256 SWAP1 JUMPDEST DUP2 SLOAD DUP2 MSTORE SWAP1 PUSH1 0x1 ADD SWAP1 PUSH1 0x20 ADD DUP1 DUP4 GT PUSH2 0x62B JUMPI DUP3 SWAP1 SUB PUSH1 0x1F AND DUP3 ADD SWAP2 JUMPDEST POP POP POP POP POP PUSH2 0x16FC JUMP JUMPDEST ADDRESS PUSH4 0x4357855E PUSH29 0x100000000000000000000000000000000000000000000000000000000 MUL PUSH2 0x1727 JUMP JUMPDEST SWAP1 POP PUSH2 0x6FD PUSH1 0x40 DUP1 MLOAD SWAP1 DUP2 ADD PUSH1 0x40 MSTORE DUP1 PUSH1 0x5 DUP2 MSTORE PUSH1 0x20 ADD PUSH32 0x5F6673796D000000000000000000000000000000000000000000000000000000 DUP2 MSTORE POP PUSH1 0x40 DUP1 MLOAD SWAP1 DUP2 ADD PUSH1 0x40 MSTORE DUP1 PUSH1 0x3 DUP2 MSTORE PUSH1 0x20 ADD PUSH32 0x5844430000000000000000000000000000000000000000000000000000000000 DUP2 MSTORE POP DUP4 PUSH2 0x1758 SWAP1 SWAP3 SWAP2 SWAP1 PUSH4 0xFFFFFFFF AND JUMP JUMPDEST PUSH2 0x77C PUSH1 0x40 DUP1 MLOAD SWAP1 DUP2 ADD PUSH1 0x40 MSTORE DUP1 PUSH1 0x6 DUP2 MSTORE PUSH1 0x20 ADD PUSH32 0x5F747379736D0000000000000000000000000000000000000000000000000000 DUP2 MSTORE POP PUSH1 0x40 DUP1 MLOAD SWAP1 DUP2 ADD PUSH1 0x40 MSTORE DUP1 PUSH1 0x4 DUP2 MSTORE PUSH1 0x20 ADD PUSH32 0x5553445400000000000000000000000000000000000000000000000000000000 DUP2 MSTORE POP DUP4 PUSH2 0x1758 SWAP1 SWAP3 SWAP2 SWAP1 PUSH4 0xFFFFFFFF AND JUMP JUMPDEST PUSH2 0x7C7 PUSH1 0x40 DUP1 MLOAD SWAP1 DUP2 ADD PUSH1 0x40 MSTORE DUP1 PUSH1 0x5 DUP2 MSTORE PUSH1 0x20 ADD PUSH32 0x74696D6573000000000000000000000000000000000000000000000000000000 DUP2 MSTORE POP PUSH1 0x64 DUP4 PUSH2 0x178B SWAP1 SWAP3 SWAP2 SWAP1 PUSH4 0xFFFFFFFF AND JUMP JUMPDEST PUSH2 0x7FB PUSH1 0x7 PUSH1 0x0 SWAP1 SLOAD SWAP1 PUSH2 0x100 EXP SWAP1 DIV PUSH20 0xFFFFFFFFFFFFFFFFFFFFFFFFFFFFFFFFFFFFFFFF AND DUP3 PUSH7 0x2386F26FC10000 PUSH2 0x17BE JUMP JUMPDEST SWAP2 POP POP SWAP1 JUMP JUMPDEST PUSH1 0x0 PUSH1 0x6 PUSH1 0x0 SWAP1 SLOAD SWAP1 PUSH2 0x100 EXP SWAP1 DIV PUSH20 0xFFFFFFFFFFFFFFFFFFFFFFFFFFFFFFFFFFFFFFFF AND PUSH20 0xFFFFFFFFFFFFFFFFFFFFFFFFFFFFFFFFFFFFFFFF AND CALLER PUSH20 0xFFFFFFFFFFFFFFFFFFFFFFFFFFFFFFFFFFFFFFFF AND EQ ISZERO ISZERO PUSH2 0x85F JUMPI PUSH1 0x0 DUP1 REVERT JUMPDEST PUSH2 0x867 PUSH2 0x1B4A JUMP JUMPDEST SWAP1 POP DUP1 PUSH20 0xFFFFFFFFFFFFFFFFFFFFFFFFFFFFFFFFFFFFFFFF AND PUSH4 0xA9059CBB CALLER DUP4 PUSH20 0xFFFFFFFFFFFFFFFFFFFFFFFFFFFFFFFFFFFFFFFF AND PUSH4 0x70A08231 ADDRESS PUSH1 0x40 MLOAD DUP3 PUSH4 0xFFFFFFFF AND PUSH29 0x100000000000000000000000000000000000000000000000000000000 MUL DUP2 MSTORE PUSH1 0x4 ADD DUP1 DUP3 PUSH20 0xFFFFFFFFFFFFFFFFFFFFFFFFFFFFFFFFFFFFFFFF AND PUSH20 0xFFFFFFFFFFFFFFFFFFFFFFFFFFFFFFFFFFFFFFFF AND DUP2 MSTORE PUSH1 0x20 ADD SWAP2 POP POP PUSH1 0x20 PUSH1 0x40 MLOAD DUP1 DUP4 SUB DUP2 PUSH1 0x0 DUP8 DUP1 EXTCODESIZE ISZERO DUP1 ISZERO PUSH2 0x921 JUMPI PUSH1 0x0 DUP1 REVERT JUMPDEST POP GAS CALL ISZERO DUP1 ISZERO PUSH2 0x935 JUMPI RETURNDATASIZE PUSH1 0x0 DUP1 RETURNDATACOPY RETURNDATASIZE PUSH1 0x0 REVERT JUMPDEST POP POP POP POP PUSH1 0x40 MLOAD RETURNDATASIZE PUSH1 0x20 DUP2 LT ISZERO PUSH2 0x94B JUMPI PUSH1 0x0 DUP1 REVERT JUMPDEST DUP2 ADD SWAP1 DUP1 DUP1 MLOAD SWAP1 PUSH1 0x20 ADD SWAP1 SWAP3 SWAP2 SWAP1 POP POP POP PUSH1 0x40 MLOAD DUP4 PUSH4 0xFFFFFFFF AND PUSH29 0x100000000000000000000000000000000000000000000000000000000 MUL DUP2 MSTORE PUSH1 0x4 ADD DUP1 DUP4 PUSH20 0xFFFFFFFFFFFFFFFFFFFFFFFFFFFFFFFFFFFFFFFF AND PUSH20 0xFFFFFFFFFFFFFFFFFFFFFFFFFFFFFFFFFFFFFFFF AND DUP2 MSTORE PUSH1 0x20 ADD DUP3 DUP2 MSTORE PUSH1 0x20 ADD SWAP3 POP POP POP PUSH1 0x20 PUSH1 0x40 MLOAD DUP1 DUP4 SUB DUP2 PUSH1 0x0 DUP8 DUP1 EXTCODESIZE ISZERO DUP1 ISZERO PUSH2 0x9E1 JUMPI PUSH1 0x0 DUP1 REVERT JUMPDEST POP GAS CALL ISZERO DUP1 ISZERO PUSH2 0x9F5 JUMPI RETURNDATASIZE PUSH1 0x0 DUP1 RETURNDATACOPY RETURNDATASIZE PUSH1 0x0 REVERT JUMPDEST POP POP POP POP PUSH1 0x40 MLOAD RETURNDATASIZE PUSH1 0x20 DUP2 LT ISZERO PUSH2 0xA0B JUMPI PUSH1 0x0 DUP1 REVERT JUMPDEST DUP2 ADD SWAP1 DUP1 DUP1 MLOAD SWAP1 PUSH1 0x20 ADD SWAP1 SWAP3 SWAP2 SWAP1 POP POP POP ISZERO ISZERO PUSH2 0xA90 JUMPI PUSH1 0x40 MLOAD PUSH32 0x8C379A000000000000000000000000000000000000000000000000000000000 DUP2 MSTORE PUSH1 0x4 ADD DUP1 DUP1 PUSH1 0x20 ADD DUP3 DUP2 SUB DUP3 MSTORE PUSH1 0x12 DUP2 MSTORE PUSH1 0x20 ADD DUP1 PUSH32 0x556E61626C6520746F207472616E736665720000000000000000000000000000 DUP2 MSTORE POP PUSH1 0x20 ADD SWAP2 POP POP PUSH1 0x40 MLOAD DUP1 SWAP2 SUB SWAP1 REVERT JUMPDEST POP JUMP JUMPDEST DUP2 PUSH1 0x5 PUSH1 0x0 DUP3 PUSH1 0x0 NOT AND PUSH1 0x0 NOT AND DUP2 MSTORE PUSH1 0x20 ADD SWAP1 DUP2 MSTORE PUSH1 0x20 ADD PUSH1 0x0 KECCAK256 PUSH1 0x0 SWAP1 SLOAD SWAP1 PUSH2 0x100 EXP SWAP1 DIV PUSH20 0xFFFFFFFFFFFFFFFFFFFFFFFFFFFFFFFFFFFFFFFF AND PUSH20 0xFFFFFFFFFFFFFFFFFFFFFFFFFFFFFFFFFFFFFFFF AND CALLER PUSH20 0xFFFFFFFFFFFFFFFFFFFFFFFFFFFFFFFFFFFFFFFF AND EQ ISZERO ISZERO PUSH2 0xB98 JUMPI PUSH1 0x40 MLOAD PUSH32 0x8C379A000000000000000000000000000000000000000000000000000000000 DUP2 MSTORE PUSH1 0x4 ADD DUP1 DUP1 PUSH1 0x20 ADD DUP3 DUP2 SUB DUP3 MSTORE PUSH1 0x28 DUP2 MSTORE PUSH1 0x20 ADD DUP1 PUSH32 0x536F75726365206D75737420626520746865206F7261636C65206F6620746865 DUP2 MSTORE PUSH1 0x20 ADD PUSH32 0x2072657175657374000000000000000000000000000000000000000000000000 DUP2 MSTORE POP PUSH1 0x40 ADD SWAP2 POP POP PUSH1 0x40 MLOAD DUP1 SWAP2 SUB SWAP1 REVERT JUMPDEST PUSH1 0x5 PUSH1 0x0 DUP3 PUSH1 0x0 NOT AND PUSH1 0x0 NOT AND DUP2 MSTORE PUSH1 0x20 ADD SWAP1 DUP2 MSTORE PUSH1 0x20 ADD PUSH1 0x0 KECCAK256 PUSH1 0x0 PUSH2 0x100 EXP DUP2 SLOAD SWAP1 PUSH20 0xFFFFFFFFFFFFFFFFFFFFFFFFFFFFFFFFFFFFFFFF MUL NOT AND SWAP1 SSTORE DUP1 PUSH1 0x0 NOT AND PUSH32 0xA40AD10B942505047C532A7399BF5EAC2768B11B7155B40EC80309AEA567F998 PUSH1 0x40 MLOAD PUSH1 0x40 MLOAD DUP1 SWAP2 SUB SWAP1 LOG2 DUP2 DUP4 PUSH1 0x0 NOT AND PUSH32 0x1CA8663227A7FE9919713A01D344AFBB434E234F35A3E540A6AD924F88771F38 PUSH1 0x40 MLOAD PUSH1 0x40 MLOAD DUP1 SWAP2 SUB SWAP1 LOG3 DUP2 PUSH1 0x9 DUP2 SWAP1 SSTORE POP POP POP POP JUMP JUMPDEST PUSH1 0x9 SLOAD DUP2 JUMP JUMPDEST PUSH1 0x6 PUSH1 0x0 SWAP1 SLOAD SWAP1 PUSH2 0x100 EXP SWAP1 DIV PUSH20 0xFFFFFFFFFFFFFFFFFFFFFFFFFFFFFFFFFFFFFFFF AND PUSH20 0xFFFFFFFFFFFFFFFFFFFFFFFFFFFFFFFFFFFFFFFF AND CALLER PUSH20 0xFFFFFFFFFFFFFFFFFFFFFFFFFFFFFFFFFFFFFFFF AND EQ ISZERO ISZERO PUSH2 0xCA7 JUMPI PUSH1 0x0 DUP1 REVERT JUMPDEST PUSH1 0x6 PUSH1 0x0 SWAP1 SLOAD SWAP1 PUSH2 0x100 EXP SWAP1 DIV PUSH20 0xFFFFFFFFFFFFFFFFFFFFFFFFFFFFFFFFFFFFFFFF AND PUSH20 0xFFFFFFFFFFFFFFFFFFFFFFFFFFFFFFFFFFFFFFFF AND PUSH32 0xF8DF31144D9C2F0F6B59D69B8B98ABD5459D07F2742C4DF920B25AAE33C64820 PUSH1 0x40 MLOAD PUSH1 0x40 MLOAD DUP1 SWAP2 SUB SWAP1 LOG2 PUSH1 0x0 PUSH1 0x6 PUSH1 0x0 PUSH2 0x100 EXP DUP2 SLOAD DUP2 PUSH20 0xFFFFFFFFFFFFFFFFFFFFFFFFFFFFFFFFFFFFFFFF MUL NOT AND SWAP1 DUP4 PUSH20 0xFFFFFFFFFFFFFFFFFFFFFFFFFFFFFFFFFFFFFFFF AND MUL OR SWAP1 SSTORE POP JUMP JUMPDEST PUSH1 0x7 PUSH1 0x0 SWAP1 SLOAD SWAP1 PUSH2 0x100 EXP SWAP1 DIV PUSH20 0xFFFFFFFFFFFFFFFFFFFFFFFFFFFFFFFFFFFFFFFF AND DUP2 JUMP JUMPDEST PUSH1 0x6 PUSH1 0x0 SWAP1 SLOAD SWAP1 PUSH2 0x100 EXP SWAP1 DIV PUSH20 0xFFFFFFFFFFFFFFFFFFFFFFFFFFFFFFFFFFFFFFFF AND DUP2 JUMP JUMPDEST PUSH1 0x0 PUSH1 0x9 SLOAD SWAP1 POP SWAP1 JUMP JUMPDEST PUSH1 0x0 DUP1 PUSH2 0xDB1 PUSH2 0x266A JUMP JUMPDEST PUSH1 0xA PUSH1 0x0 DUP6 PUSH20 0xFFFFFFFFFFFFFFFFFFFFFFFFFFFFFFFFFFFFFFFF AND PUSH20 0xFFFFFFFFFFFFFFFFFFFFFFFFFFFFFFFFFFFFFFFF AND DUP2 MSTORE PUSH1 0x20 ADD SWAP1 DUP2 MSTORE PUSH1 0x20 ADD PUSH1 0x0 KECCAK256 PUSH1 0x1 ADD SLOAD SWAP2 POP PUSH7 0x2386F26FC10000 DUP3 GT ISZERO ISZERO PUSH2 0xE74 JUMPI PUSH1 0x40 MLOAD PUSH32 0x8C379A000000000000000000000000000000000000000000000000000000000 DUP2 MSTORE PUSH1 0x4 ADD DUP1 DUP1 PUSH1 0x20 ADD DUP3 DUP2 SUB DUP3 MSTORE PUSH1 0x15 DUP2 MSTORE PUSH1 0x20 ADD DUP1 PUSH32 0x4E4F5F53554646494349454E545F435245444954530000000000000000000000 DUP2 MSTORE POP PUSH1 0x20 ADD SWAP2 POP POP PUSH1 0x40 MLOAD DUP1 SWAP2 SUB SWAP1 REVERT JUMPDEST PUSH7 0x2386F26FC10000 DUP3 SUB PUSH1 0xA PUSH1 0x0 DUP7 PUSH20 0xFFFFFFFFFFFFFFFFFFFFFFFFFFFFFFFFFFFFFFFF AND PUSH20 0xFFFFFFFFFFFFFFFFFFFFFFFFFFFFFFFFFFFFFFFF AND DUP2 MSTORE PUSH1 0x20 ADD SWAP1 DUP2 MSTORE PUSH1 0x20 ADD PUSH1 0x0 KECCAK256 PUSH1 0x1 ADD DUP2 SWAP1 SSTORE POP PUSH2 0xF94 PUSH2 0xF6A PUSH1 0x8 DUP1 SLOAD PUSH1 0x1 DUP2 PUSH1 0x1 AND ISZERO PUSH2 0x100 MUL SUB AND PUSH1 0x2 SWAP1 DIV DUP1 PUSH1 0x1F ADD PUSH1 0x20 DUP1 SWAP2 DIV MUL PUSH1 0x20 ADD PUSH1 0x40 MLOAD SWAP1 DUP2 ADD PUSH1 0x40 MSTORE DUP1 SWAP3 SWAP2 SWAP1 DUP2 DUP2 MSTORE PUSH1 0x20 ADD DUP3 DUP1 SLOAD PUSH1 0x1 DUP2 PUSH1 0x1 AND ISZERO PUSH2 0x100 MUL SUB AND PUSH1 0x2 SWAP1 DIV DUP1 ISZERO PUSH2 0xF60 JUMPI DUP1 PUSH1 0x1F LT PUSH2 0xF35 JUMPI PUSH2 0x100 DUP1 DUP4 SLOAD DIV MUL DUP4 MSTORE SWAP2 PUSH1 0x20 ADD SWAP2 PUSH2 0xF60 JUMP JUMPDEST DUP3 ADD SWAP2 SWAP1 PUSH1 0x0 MSTORE PUSH1 0x20 PUSH1 0x0 KECCAK256 SWAP1 JUMPDEST DUP2 SLOAD DUP2 MSTORE SWAP1 PUSH1 0x1 ADD SWAP1 PUSH1 0x20 ADD DUP1 DUP4 GT PUSH2 0xF43 JUMPI DUP3 SWAP1 SUB PUSH1 0x1F AND DUP3 ADD SWAP2 JUMPDEST POP POP POP POP POP PUSH2 0x16FC JUMP JUMPDEST ADDRESS PUSH4 0x4357855E PUSH29 0x100000000000000000000000000000000000000000000000000000000 MUL PUSH2 0x1727 JUMP JUMPDEST SWAP1 POP PUSH2 0x1015 PUSH1 0x40 DUP1 MLOAD SWAP1 DUP2 ADD PUSH1 0x40 MSTORE DUP1 PUSH1 0x6 DUP2 MSTORE PUSH1 0x20 ADD PUSH32 0x5F667379736D0000000000000000000000000000000000000000000000000000 DUP2 MSTORE POP PUSH1 0x40 DUP1 MLOAD SWAP1 DUP2 ADD PUSH1 0x40 MSTORE DUP1 PUSH1 0x3 DUP2 MSTORE PUSH1 0x20 ADD PUSH32 0x5844430000000000000000000000000000000000000000000000000000000000 DUP2 MSTORE POP DUP4 PUSH2 0x1758 SWAP1 SWAP3 SWAP2 SWAP1 PUSH4 0xFFFFFFFF AND JUMP JUMPDEST PUSH2 0x1094 PUSH1 0x40 DUP1 MLOAD SWAP1 DUP2 ADD PUSH1 0x40 MSTORE DUP1 PUSH1 0x6 DUP2 MSTORE PUSH1 0x20 ADD PUSH32 0x5F747379736D0000000000000000000000000000000000000000000000000000 DUP2 MSTORE POP PUSH1 0x40 DUP1 MLOAD SWAP1 DUP2 ADD PUSH1 0x40 MSTORE DUP1 PUSH1 0x4 DUP2 MSTORE PUSH1 0x20 ADD PUSH32 0x5553445400000000000000000000000000000000000000000000000000000000 DUP2 MSTORE POP DUP4 PUSH2 0x1758 SWAP1 SWAP3 SWAP2 SWAP1 PUSH4 0xFFFFFFFF AND JUMP JUMPDEST PUSH2 0x10DF PUSH1 0x40 DUP1 MLOAD SWAP1 DUP2 ADD PUSH1 0x40 MSTORE DUP1 PUSH1 0x5 DUP2 MSTORE PUSH1 0x20 ADD PUSH32 0x74696D6573000000000000000000000000000000000000000000000000000000 DUP2 MSTORE POP PUSH1 0x64 DUP4 PUSH2 0x178B SWAP1 SWAP3 SWAP2 SWAP1 PUSH4 0xFFFFFFFF AND JUMP JUMPDEST PUSH2 0x1113 PUSH1 0x7 PUSH1 0x0 SWAP1 SLOAD SWAP1 PUSH2 0x100 EXP SWAP1 DIV PUSH20 0xFFFFFFFFFFFFFFFFFFFFFFFFFFFFFFFFFFFFFFFF AND DUP3 PUSH7 0x2386F26FC10000 PUSH2 0x17BE JUMP JUMPDEST SWAP3 POP DUP3 PUSH1 0x0 NOT AND PUSH2 0x11BD PUSH1 0x8 DUP1 SLOAD PUSH1 0x1 DUP2 PUSH1 0x1 AND ISZERO PUSH2 0x100 MUL SUB AND PUSH1 0x2 SWAP1 DIV DUP1 PUSH1 0x1F ADD PUSH1 0x20 DUP1 SWAP2 DIV MUL PUSH1 0x20 ADD PUSH1 0x40 MLOAD SWAP1 DUP2 ADD PUSH1 0x40 MSTORE DUP1 SWAP3 SWAP2 SWAP1 DUP2 DUP2 MSTORE PUSH1 0x20 ADD DUP3 DUP1 SLOAD PUSH1 0x1 DUP2 PUSH1 0x1 AND ISZERO PUSH2 0x100 MUL SUB AND PUSH1 0x2 SWAP1 DIV DUP1 ISZERO PUSH2 0x11B3 JUMPI DUP1 PUSH1 0x1F LT PUSH2 0x1188 JUMPI PUSH2 0x100 DUP1 DUP4 SLOAD DIV MUL DUP4 MSTORE SWAP2 PUSH1 0x20 ADD SWAP2 PUSH2 0x11B3 JUMP JUMPDEST DUP3 ADD SWAP2 SWAP1 PUSH1 0x0 MSTORE PUSH1 0x20 PUSH1 0x0 KECCAK256 SWAP1 JUMPDEST DUP2 SLOAD DUP2 MSTORE SWAP1 PUSH1 0x1 ADD SWAP1 PUSH1 0x20 ADD DUP1 DUP4 GT PUSH2 0x1196 JUMPI DUP3 SWAP1 SUB PUSH1 0x1F AND DUP3 ADD SWAP2 JUMPDEST POP POP POP POP POP PUSH2 0x16FC JUMP JUMPDEST PUSH1 0x0 NOT AND DUP6 PUSH20 0xFFFFFFFFFFFFFFFFFFFFFFFFFFFFFFFFFFFFFFFF AND PUSH32 0x7F3DF4038A13E7B83557E5A0EBF67FEC07391A522319AB42E81255E88DE18FFB PUSH1 0x40 MLOAD PUSH1 0x40 MLOAD DUP1 SWAP2 SUB SWAP1 LOG4 POP POP SWAP2 SWAP1 POP JUMP JUMPDEST PUSH1 0xA PUSH1 0x20 MSTORE DUP1 PUSH1 0x0 MSTORE PUSH1 0x40 PUSH1 0x0 KECCAK256 PUSH1 0x0 SWAP2 POP SWAP1 POP DUP1 PUSH1 0x0 ADD PUSH1 0x0 SWAP1 SLOAD SWAP1 PUSH2 0x100 EXP SWAP1 DIV PUSH20 0xFFFFFFFFFFFFFFFFFFFFFFFFFFFFFFFFFFFFFFFF AND SWAP1 DUP1 PUSH1 0x1 ADD SLOAD SWAP1 POP DUP3 JUMP JUMPDEST PUSH1 0x0 PUSH2 0x1259 PUSH2 0x1B4A JUMP JUMPDEST SWAP1 POP SWAP1 JUMP JUMPDEST PUSH1 0x8 DUP1 SLOAD PUSH1 0x1 DUP2 PUSH1 0x1 AND ISZERO PUSH2 0x100 MUL SUB AND PUSH1 0x2 SWAP1 DIV DUP1 PUSH1 0x1F ADD PUSH1 0x20 DUP1 SWAP2 DIV MUL PUSH1 0x20 ADD PUSH1 0x40 MLOAD SWAP1 DUP2 ADD PUSH1 0x40 MSTORE DUP1 SWAP3 SWAP2 SWAP1 DUP2 DUP2 MSTORE PUSH1 0x20 ADD DUP3 DUP1 SLOAD PUSH1 0x1 DUP2 PUSH1 0x1 AND ISZERO PUSH2 0x100 MUL SUB AND PUSH1 0x2 SWAP1 DIV DUP1 ISZERO PUSH2 0x12F4 JUMPI DUP1 PUSH1 0x1F LT PUSH2 0x12C9 JUMPI PUSH2 0x100 DUP1 DUP4 SLOAD DIV MUL DUP4 MSTORE SWAP2 PUSH1 0x20 ADD SWAP2 PUSH2 0x12F4 JUMP JUMPDEST DUP3 ADD SWAP2 SWAP1 PUSH1 0x0 MSTORE PUSH1 0x20 PUSH1 0x0 KECCAK256 SWAP1 JUMPDEST DUP2 SLOAD DUP2 MSTORE SWAP1 PUSH1 0x1 ADD SWAP1 PUSH1 0x20 ADD DUP1 DUP4 GT PUSH2 0x12D7 JUMPI DUP3 SWAP1 SUB PUSH1 0x1F AND DUP3 ADD SWAP2 JUMPDEST POP POP POP POP POP DUP2 JUMP JUMPDEST PUSH1 0x0 DUP1 PUSH2 0x1307 PUSH2 0x26D8 JUMP JUMPDEST PUSH1 0x0 PUSH9 0x56BC75E2D63100000 DUP6 GT ISZERO ISZERO ISZERO PUSH2 0x138A JUMPI PUSH1 0x40 MLOAD PUSH32 0x8C379A000000000000000000000000000000000000000000000000000000000 DUP2 MSTORE PUSH1 0x4 ADD DUP1 DUP1 PUSH1 0x20 ADD DUP3 DUP2 SUB DUP3 MSTORE PUSH1 0x19 DUP2 MSTORE PUSH1 0x20 ADD DUP1 PUSH32 0x4E4F545F4D4F52455F5448414E5F3130305F414C4C4F57454400000000000000 DUP2 MSTORE POP PUSH1 0x20 ADD SWAP2 POP POP PUSH1 0x40 MLOAD DUP1 SWAP2 SUB SWAP1 REVERT JUMPDEST PUSH2 0x1392 PUSH2 0x1B4A JUMP JUMPDEST SWAP3 POP DUP3 PUSH20 0xFFFFFFFFFFFFFFFFFFFFFFFFFFFFFFFFFFFFFFFF AND PUSH4 0x23B872DD CALLER ADDRESS DUP9 PUSH1 0x40 MLOAD DUP5 PUSH4 0xFFFFFFFF AND PUSH29 0x100000000000000000000000000000000000000000000000000000000 MUL DUP2 MSTORE PUSH1 0x4 ADD DUP1 DUP5 PUSH20 0xFFFFFFFFFFFFFFFFFFFFFFFFFFFFFFFFFFFFFFFF AND PUSH20 0xFFFFFFFFFFFFFFFFFFFFFFFFFFFFFFFFFFFFFFFF AND DUP2 MSTORE PUSH1 0x20 ADD DUP4 PUSH20 0xFFFFFFFFFFFFFFFFFFFFFFFFFFFFFFFFFFFFFFFF AND PUSH20 0xFFFFFFFFFFFFFFFFFFFFFFFFFFFFFFFFFFFFFFFF AND DUP2 MSTORE PUSH1 0x20 ADD DUP3 DUP2 MSTORE PUSH1 0x20 ADD SWAP4 POP POP POP POP PUSH1 0x20 PUSH1 0x40 MLOAD DUP1 DUP4 SUB DUP2 PUSH1 0x0 DUP8 DUP1 EXTCODESIZE ISZERO DUP1 ISZERO PUSH2 0x146B JUMPI PUSH1 0x0 DUP1 REVERT JUMPDEST POP GAS CALL ISZERO DUP1 ISZERO PUSH2 0x147F JUMPI RETURNDATASIZE PUSH1 0x0 DUP1 RETURNDATACOPY RETURNDATASIZE PUSH1 0x0 REVERT JUMPDEST POP POP POP POP PUSH1 0x40 MLOAD RETURNDATASIZE PUSH1 0x20 DUP2 LT ISZERO PUSH2 0x1495 JUMPI PUSH1 0x0 DUP1 REVERT JUMPDEST DUP2 ADD SWAP1 DUP1 DUP1 MLOAD SWAP1 PUSH1 0x20 ADD SWAP1 SWAP3 SWAP2 SWAP1 POP POP POP POP PUSH1 0xA PUSH1 0x0 CALLER PUSH20 0xFFFFFFFFFFFFFFFFFFFFFFFFFFFFFFFFFFFFFFFF AND PUSH20 0xFFFFFFFFFFFFFFFFFFFFFFFFFFFFFFFFFFFFFFFF AND DUP2 MSTORE PUSH1 0x20 ADD SWAP1 DUP2 MSTORE PUSH1 0x20 ADD PUSH1 0x0 KECCAK256 PUSH1 0x40 DUP1 MLOAD SWAP1 DUP2 ADD PUSH1 0x40 MSTORE SWAP1 DUP2 PUSH1 0x0 DUP3 ADD PUSH1 0x0 SWAP1 SLOAD SWAP1 PUSH2 0x100 EXP SWAP1 DIV PUSH20 0xFFFFFFFFFFFFFFFFFFFFFFFFFFFFFFFFFFFFFFFF AND PUSH20 0xFFFFFFFFFFFFFFFFFFFFFFFFFFFFFFFFFFFFFFFF AND PUSH20 0xFFFFFFFFFFFFFFFFFFFFFFFFFFFFFFFFFFFFFFFF AND DUP2 MSTORE PUSH1 0x20 ADD PUSH1 0x1 DUP3 ADD SLOAD DUP2 MSTORE POP POP SWAP2 POP DUP5 DUP3 PUSH1 0x20 ADD MLOAD ADD SWAP1 POP PUSH1 0x40 DUP1 MLOAD SWAP1 DUP2 ADD PUSH1 0x40 MSTORE DUP1 CALLER PUSH20 0xFFFFFFFFFFFFFFFFFFFFFFFFFFFFFFFFFFFFFFFF AND DUP2 MSTORE PUSH1 0x20 ADD DUP3 DUP2 MSTORE POP PUSH1 0xA PUSH1 0x0 CALLER PUSH20 0xFFFFFFFFFFFFFFFFFFFFFFFFFFFFFFFFFFFFFFFF AND PUSH20 0xFFFFFFFFFFFFFFFFFFFFFFFFFFFFFFFFFFFFFFFF AND DUP2 MSTORE PUSH1 0x20 ADD SWAP1 DUP2 MSTORE PUSH1 0x20 ADD PUSH1 0x0 KECCAK256 PUSH1 0x0 DUP3 ADD MLOAD DUP2 PUSH1 0x0 ADD PUSH1 0x0 PUSH2 0x100 EXP DUP2 SLOAD DUP2 PUSH20 0xFFFFFFFFFFFFFFFFFFFFFFFFFFFFFFFFFFFFFFFF MUL NOT AND SWAP1 DUP4 PUSH20 0xFFFFFFFFFFFFFFFFFFFFFFFFFFFFFFFFFFFFFFFF AND MUL OR SWAP1 SSTORE POP PUSH1 0x20 DUP3 ADD MLOAD DUP2 PUSH1 0x1 ADD SSTORE SWAP1 POP POP PUSH1 0x1 SWAP4 POP POP POP POP SWAP2 SWAP1 POP JUMP JUMPDEST PUSH1 0x6 PUSH1 0x0 SWAP1 SLOAD SWAP1 PUSH2 0x100 EXP SWAP1 DIV PUSH20 0xFFFFFFFFFFFFFFFFFFFFFFFFFFFFFFFFFFFFFFFF AND PUSH20 0xFFFFFFFFFFFFFFFFFFFFFFFFFFFFFFFFFFFFFFFF AND CALLER PUSH20 0xFFFFFFFFFFFFFFFFFFFFFFFFFFFFFFFFFFFFFFFF AND EQ ISZERO ISZERO PUSH2 0x1682 JUMPI PUSH1 0x0 DUP1 REVERT JUMPDEST PUSH2 0x168E DUP5 DUP5 DUP5 DUP5 PUSH2 0x1B74 JUMP JUMPDEST POP POP POP POP JUMP JUMPDEST PUSH1 0x6 PUSH1 0x0 SWAP1 SLOAD SWAP1 PUSH2 0x100 EXP SWAP1 DIV PUSH20 0xFFFFFFFFFFFFFFFFFFFFFFFFFFFFFFFFFFFFFFFF AND PUSH20 0xFFFFFFFFFFFFFFFFFFFFFFFFFFFFFFFFFFFFFFFF AND CALLER PUSH20 0xFFFFFFFFFFFFFFFFFFFFFFFFFFFFFFFFFFFFFFFF AND EQ ISZERO ISZERO PUSH2 0x16F0 JUMPI PUSH1 0x0 DUP1 REVERT JUMPDEST PUSH2 0x16F9 DUP2 PUSH2 0x1D0F JUMP JUMPDEST POP JUMP JUMPDEST PUSH1 0x0 PUSH1 0x60 DUP3 SWAP1 POP PUSH1 0x0 DUP2 MLOAD EQ ISZERO PUSH2 0x1719 JUMPI PUSH1 0x0 PUSH1 0x1 MUL SWAP2 POP PUSH2 0x1721 JUMP JUMPDEST PUSH1 0x20 DUP4 ADD MLOAD SWAP2 POP JUMPDEST POP SWAP2 SWAP1 POP JUMP JUMPDEST PUSH2 0x172F PUSH2 0x266A JUMP JUMPDEST PUSH2 0x1737 PUSH2 0x266A JUMP JUMPDEST PUSH2 0x174E DUP6 DUP6 DUP6 DUP5 PUSH2 0x1E0B SWAP1 SWAP4 SWAP3 SWAP2 SWAP1 PUSH4 0xFFFFFFFF AND JUMP JUMPDEST SWAP2 POP POP SWAP4 SWAP3 POP POP POP JUMP JUMPDEST PUSH2 0x176F DUP3 DUP5 PUSH1 0x80 ADD MLOAD PUSH2 0x1EC5 SWAP1 SWAP2 SWAP1 PUSH4 0xFFFFFFFF AND JUMP JUMPDEST PUSH2 0x1786 DUP2 DUP5 PUSH1 0x80 ADD MLOAD PUSH2 0x1EC5 SWAP1 SWAP2 SWAP1 PUSH4 0xFFFFFFFF AND JUMP JUMPDEST POP POP POP JUMP JUMPDEST PUSH2 0x17A2 DUP3 DUP5 PUSH1 0x80 ADD MLOAD PUSH2 0x1EC5 SWAP1 SWAP2 SWAP1 PUSH4 0xFFFFFFFF AND JUMP JUMPDEST PUSH2 0x17B9 DUP2 DUP5 PUSH1 0x80 ADD MLOAD PUSH2 0x1EEA SWAP1 SWAP2 SWAP1 PUSH4 0xFFFFFFFF AND JUMP JUMPDEST POP POP POP JUMP JUMPDEST PUSH1 0x0 ADDRESS PUSH1 0x4 SLOAD PUSH1 0x40 MLOAD PUSH1 0x20 ADD DUP1 DUP4 PUSH20 0xFFFFFFFFFFFFFFFFFFFFFFFFFFFFFFFFFFFFFFFF AND PUSH20 0xFFFFFFFFFFFFFFFFFFFFFFFFFFFFFFFFFFFFFFFF AND PUSH13 0x1000000000000000000000000 MUL DUP2 MSTORE PUSH1 0x14 ADD DUP3 DUP2 MSTORE PUSH1 0x20 ADD SWAP3 POP POP POP PUSH1 0x40 MLOAD PUSH1 0x20 DUP2 DUP4 SUB SUB DUP2 MSTORE SWAP1 PUSH1 0x40 MSTORE PUSH1 0x40 MLOAD DUP1 DUP3 DUP1 MLOAD SWAP1 PUSH1 0x20 ADD SWAP1 DUP1 DUP4 DUP4 JUMPDEST PUSH1 0x20 DUP4 LT ISZERO ISZERO PUSH2 0x185A JUMPI DUP1 MLOAD DUP3 MSTORE PUSH1 0x20 DUP3 ADD SWAP2 POP PUSH1 0x20 DUP2 ADD SWAP1 POP PUSH1 0x20 DUP4 SUB SWAP3 POP PUSH2 0x1835 JUMP JUMPDEST PUSH1 0x1 DUP4 PUSH1 0x20 SUB PUSH2 0x100 EXP SUB DUP1 NOT DUP3 MLOAD AND DUP2 DUP5 MLOAD AND DUP1 DUP3 OR DUP6 MSTORE POP POP POP POP POP POP SWAP1 POP ADD SWAP2 POP POP PUSH1 0x40 MLOAD DUP1 SWAP2 SUB SWAP1 KECCAK256 SWAP1 POP PUSH1 0x4 SLOAD DUP4 PUSH1 0x60 ADD DUP2 DUP2 MSTORE POP POP DUP4 PUSH1 0x5 PUSH1 0x0 DUP4 PUSH1 0x0 NOT AND PUSH1 0x0 NOT AND DUP2 MSTORE PUSH1 0x20 ADD SWAP1 DUP2 MSTORE PUSH1 0x20 ADD PUSH1 0x0 KECCAK256 PUSH1 0x0 PUSH2 0x100 EXP DUP2 SLOAD DUP2 PUSH20 0xFFFFFFFFFFFFFFFFFFFFFFFFFFFFFFFFFFFFFFFF MUL NOT AND SWAP1 DUP4 PUSH20 0xFFFFFFFFFFFFFFFFFFFFFFFFFFFFFFFFFFFFFFFF AND MUL OR SWAP1 SSTORE POP DUP1 PUSH1 0x0 NOT AND PUSH32 0xA6745906207AFB96A5801B8E5711FD7B74C5780CE893A973806E179D675BBE24 PUSH1 0x40 MLOAD PUSH1 0x40 MLOAD DUP1 SWAP2 SUB SWAP1 LOG2 PUSH1 0x2 PUSH1 0x0 SWAP1 SLOAD SWAP1 PUSH2 0x100 EXP SWAP1 DIV PUSH20 0xFFFFFFFFFFFFFFFFFFFFFFFFFFFFFFFFFFFFFFFF AND PUSH20 0xFFFFFFFFFFFFFFFFFFFFFFFFFFFFFFFFFFFFFFFF AND PUSH4 0x4000AEA0 DUP6 DUP5 PUSH2 0x1969 DUP8 PUSH2 0x1F90 JUMP JUMPDEST PUSH1 0x40 MLOAD DUP5 PUSH4 0xFFFFFFFF AND PUSH29 0x100000000000000000000000000000000000000000000000000000000 MUL DUP2 MSTORE PUSH1 0x4 ADD DUP1 DUP5 PUSH20 0xFFFFFFFFFFFFFFFFFFFFFFFFFFFFFFFFFFFFFFFF AND PUSH20 0xFFFFFFFFFFFFFFFFFFFFFFFFFFFFFFFFFFFFFFFF AND DUP2 MSTORE PUSH1 0x20 ADD DUP4 DUP2 MSTORE PUSH1 0x20 ADD DUP1 PUSH1 0x20 ADD DUP3 DUP2 SUB DUP3 MSTORE DUP4 DUP2 DUP2 MLOAD DUP2 MSTORE PUSH1 0x20 ADD SWAP2 POP DUP1 MLOAD SWAP1 PUSH1 0x20 ADD SWAP1 DUP1 DUP4 DUP4 PUSH1 0x0 JUMPDEST DUP4 DUP2 LT ISZERO PUSH2 0x1A0C JUMPI DUP1 DUP3 ADD MLOAD DUP2 DUP5 ADD MSTORE PUSH1 0x20 DUP2 ADD SWAP1 POP PUSH2 0x19F1 JUMP JUMPDEST POP POP POP POP SWAP1 POP SWAP1 DUP2 ADD SWAP1 PUSH1 0x1F AND DUP1 ISZERO PUSH2 0x1A39 JUMPI DUP1 DUP3 SUB DUP1 MLOAD PUSH1 0x1 DUP4 PUSH1 0x20 SUB PUSH2 0x100 EXP SUB NOT AND DUP2 MSTORE PUSH1 0x20 ADD SWAP2 POP JUMPDEST POP SWAP5 POP POP POP POP POP PUSH1 0x20 PUSH1 0x40 MLOAD DUP1 DUP4 SUB DUP2 PUSH1 0x0 DUP8 DUP1 EXTCODESIZE ISZERO DUP1 ISZERO PUSH2 0x1A5A JUMPI PUSH1 0x0 DUP1 REVERT JUMPDEST POP GAS CALL ISZERO DUP1 ISZERO PUSH2 0x1A6E JUMPI RETURNDATASIZE PUSH1 0x0 DUP1 RETURNDATACOPY RETURNDATASIZE PUSH1 0x0 REVERT JUMPDEST POP POP POP POP PUSH1 0x40 MLOAD RETURNDATASIZE PUSH1 0x20 DUP2 LT ISZERO PUSH2 0x1A84 JUMPI PUSH1 0x0 DUP1 REVERT JUMPDEST DUP2 ADD SWAP1 DUP1 DUP1 MLOAD SWAP1 PUSH1 0x20 ADD SWAP1 SWAP3 SWAP2 SWAP1 POP POP POP ISZERO ISZERO PUSH2 0x1B2F JUMPI PUSH1 0x40 MLOAD PUSH32 0x8C379A000000000000000000000000000000000000000000000000000000000 DUP2 MSTORE PUSH1 0x4 ADD DUP1 DUP1 PUSH1 0x20 ADD DUP3 DUP2 SUB DUP3 MSTORE PUSH1 0x23 DUP2 MSTORE PUSH1 0x20 ADD DUP1 PUSH32 0x756E61626C6520746F207472616E73666572416E6443616C6C20746F206F7261 DUP2 MSTORE PUSH1 0x20 ADD PUSH32 0x636C650000000000000000000000000000000000000000000000000000000000 DUP2 MSTORE POP PUSH1 0x40 ADD SWAP2 POP POP PUSH1 0x40 MLOAD DUP1 SWAP2 SUB SWAP1 REVERT JUMPDEST PUSH1 0x1 PUSH1 0x4 PUSH1 0x0 DUP3 DUP3 SLOAD ADD SWAP3 POP POP DUP2 SWAP1 SSTORE POP DUP1 SWAP1 POP SWAP4 SWAP3 POP POP POP JUMP JUMPDEST PUSH1 0x0 PUSH1 0x2 PUSH1 0x0 SWAP1 SLOAD SWAP1 PUSH2 0x100 EXP SWAP1 DIV PUSH20 0xFFFFFFFFFFFFFFFFFFFFFFFFFFFFFFFFFFFFFFFF AND SWAP1 POP SWAP1 JUMP JUMPDEST PUSH1 0x0 PUSH1 0x5 PUSH1 0x0 DUP7 PUSH1 0x0 NOT AND PUSH1 0x0 NOT AND DUP2 MSTORE PUSH1 0x20 ADD SWAP1 DUP2 MSTORE PUSH1 0x20 ADD PUSH1 0x0 KECCAK256 PUSH1 0x0 SWAP1 SLOAD SWAP1 PUSH2 0x100 EXP SWAP1 DIV PUSH20 0xFFFFFFFFFFFFFFFFFFFFFFFFFFFFFFFFFFFFFFFF AND SWAP1 POP PUSH1 0x5 PUSH1 0x0 DUP7 PUSH1 0x0 NOT AND PUSH1 0x0 NOT AND DUP2 MSTORE PUSH1 0x20 ADD SWAP1 DUP2 MSTORE PUSH1 0x20 ADD PUSH1 0x0 KECCAK256 PUSH1 0x0 PUSH2 0x100 EXP DUP2 SLOAD SWAP1 PUSH20 0xFFFFFFFFFFFFFFFFFFFFFFFFFFFFFFFFFFFFFFFF MUL NOT AND SWAP1 SSTORE DUP5 PUSH1 0x0 NOT AND PUSH32 0x715822738DAD692E521EBC0193D189BF23153EB1D4420173D6B30CD8ADD9F9A6 PUSH1 0x40 MLOAD PUSH1 0x40 MLOAD DUP1 SWAP2 SUB SWAP1 LOG2 DUP1 PUSH20 0xFFFFFFFFFFFFFFFFFFFFFFFFFFFFFFFFFFFFFFFF AND PUSH4 0x6EE4D553 DUP7 DUP7 DUP7 DUP7 PUSH1 0x40 MLOAD DUP6 PUSH4 0xFFFFFFFF AND PUSH29 0x100000000000000000000000000000000000000000000000000000000 MUL DUP2 MSTORE PUSH1 0x4 ADD DUP1 DUP6 PUSH1 0x0 NOT AND PUSH1 0x0 NOT AND DUP2 MSTORE PUSH1 0x20 ADD DUP5 DUP2 MSTORE PUSH1 0x20 ADD DUP4 PUSH28 0xFFFFFFFFFFFFFFFFFFFFFFFFFFFFFFFFFFFFFFFFFFFFFFFFFFFFFFFF NOT AND PUSH28 0xFFFFFFFFFFFFFFFFFFFFFFFFFFFFFFFFFFFFFFFFFFFFFFFFFFFFFFFF NOT AND DUP2 MSTORE PUSH1 0x20 ADD DUP3 DUP2 MSTORE PUSH1 0x20 ADD SWAP5 POP POP POP POP POP PUSH1 0x0 PUSH1 0x40 MLOAD DUP1 DUP4 SUB DUP2 PUSH1 0x0 DUP8 DUP1 EXTCODESIZE ISZERO DUP1 ISZERO PUSH2 0x1CF0 JUMPI PUSH1 0x0 DUP1 REVERT JUMPDEST POP GAS CALL ISZERO DUP1 ISZERO PUSH2 0x1D04 JUMPI RETURNDATASIZE PUSH1 0x0 DUP1 RETURNDATACOPY RETURNDATASIZE PUSH1 0x0 REVERT JUMPDEST POP POP POP POP POP POP POP POP POP JUMP JUMPDEST PUSH1 0x0 PUSH20 0xFFFFFFFFFFFFFFFFFFFFFFFFFFFFFFFFFFFFFFFF AND DUP2 PUSH20 0xFFFFFFFFFFFFFFFFFFFFFFFFFFFFFFFFFFFFFFFF AND EQ ISZERO ISZERO ISZERO PUSH2 0x1D4B JUMPI PUSH1 0x0 DUP1 REVERT JUMPDEST DUP1 PUSH20 0xFFFFFFFFFFFFFFFFFFFFFFFFFFFFFFFFFFFFFFFF AND PUSH1 0x6 PUSH1 0x0 SWAP1 SLOAD SWAP1 PUSH2 0x100 EXP SWAP1 DIV PUSH20 0xFFFFFFFFFFFFFFFFFFFFFFFFFFFFFFFFFFFFFFFF AND PUSH20 0xFFFFFFFFFFFFFFFFFFFFFFFFFFFFFFFFFFFFFFFF AND PUSH32 0x8BE0079C531659141344CD1FD0A4F28419497F9722A3DAAFE3B4186F6B6457E0 PUSH1 0x40 MLOAD PUSH1 0x40 MLOAD DUP1 SWAP2 SUB SWAP1 LOG3 DUP1 PUSH1 0x6 PUSH1 0x0 PUSH2 0x100 EXP DUP2 SLOAD DUP2 PUSH20 0xFFFFFFFFFFFFFFFFFFFFFFFFFFFFFFFFFFFFFFFF MUL NOT AND SWAP1 DUP4 PUSH20 0xFFFFFFFFFFFFFFFFFFFFFFFFFFFFFFFFFFFFFFFF AND MUL OR SWAP1 SSTORE POP POP JUMP JUMPDEST PUSH2 0x1E13 PUSH2 0x266A JUMP JUMPDEST PUSH2 0x1E23 DUP6 PUSH1 0x80 ADD MLOAD PUSH2 0x100 PUSH2 0x21BB JUMP JUMPDEST POP DUP4 DUP6 PUSH1 0x0 ADD SWAP1 PUSH1 0x0 NOT AND SWAP1 DUP2 PUSH1 0x0 NOT AND DUP2 MSTORE POP POP DUP3 DUP6 PUSH1 0x20 ADD SWAP1 PUSH20 0xFFFFFFFFFFFFFFFFFFFFFFFFFFFFFFFFFFFFFFFF AND SWAP1 DUP2 PUSH20 0xFFFFFFFFFFFFFFFFFFFFFFFFFFFFFFFFFFFFFFFF AND DUP2 MSTORE POP POP DUP2 DUP6 PUSH1 0x40 ADD SWAP1 PUSH28 0xFFFFFFFFFFFFFFFFFFFFFFFFFFFFFFFFFFFFFFFFFFFFFFFFFFFFFFFF NOT AND SWAP1 DUP2 PUSH28 0xFFFFFFFFFFFFFFFFFFFFFFFFFFFFFFFFFFFFFFFFFFFFFFFFFFFFFFFF NOT AND DUP2 MSTORE POP POP DUP5 SWAP1 POP SWAP5 SWAP4 POP POP POP POP JUMP JUMPDEST PUSH2 0x1ED2 DUP3 PUSH1 0x3 DUP4 MLOAD PUSH2 0x2215 JUMP JUMPDEST PUSH2 0x1EE5 DUP2 DUP4 PUSH2 0x2373 SWAP1 SWAP2 SWAP1 PUSH4 0xFFFFFFFF AND JUMP JUMPDEST POP POP POP JUMP JUMPDEST PUSH32 0xFFFFFFFFFFFFFFFFFFFFFFFFFFFFFFFFFFFFFFFFFFFFFFFF0000000000000000 DUP2 SLT ISZERO PUSH2 0x1F21 JUMPI PUSH2 0x1F1C DUP3 DUP3 PUSH2 0x2395 JUMP JUMPDEST PUSH2 0x1F8C JUMP JUMPDEST PUSH8 0xFFFFFFFFFFFFFFFF DUP2 SGT ISZERO PUSH2 0x1F40 JUMPI PUSH2 0x1F3B DUP3 DUP3 PUSH2 0x2406 JUMP JUMPDEST PUSH2 0x1F8B JUMP JUMPDEST PUSH1 0x0 DUP2 SLT ISZERO ISZERO PUSH2 0x1F5B JUMPI PUSH2 0x1F56 DUP3 PUSH1 0x0 DUP4 PUSH2 0x2215 JUMP JUMPDEST PUSH2 0x1F8A JUMP JUMPDEST PUSH2 0x1F89 DUP3 PUSH1 0x1 DUP4 PUSH32 0xFFFFFFFFFFFFFFFFFFFFFFFFFFFFFFFFFFFFFFFFFFFFFFFFFFFFFFFFFFFFFFFF SUB PUSH2 0x2215 JUMP JUMPDEST JUMPDEST JUMPDEST JUMPDEST POP POP JUMP JUMPDEST PUSH1 0x60 PUSH1 0x3 PUSH1 0x0 SWAP1 SLOAD SWAP1 PUSH2 0x100 EXP SWAP1 DIV PUSH20 0xFFFFFFFFFFFFFFFFFFFFFFFFFFFFFFFFFFFFFFFF AND PUSH20 0xFFFFFFFFFFFFFFFFFFFFFFFFFFFFFFFFFFFFFFFF AND PUSH4 0x40429946 SWAP1 POP PUSH29 0x100000000000000000000000000000000000000000000000000000000 MUL PUSH1 0x0 DUP1 DUP5 PUSH1 0x0 ADD MLOAD DUP6 PUSH1 0x20 ADD MLOAD DUP7 PUSH1 0x40 ADD MLOAD DUP8 PUSH1 0x60 ADD MLOAD PUSH1 0x1 DUP10 PUSH1 0x80 ADD MLOAD PUSH1 0x0 ADD MLOAD PUSH1 0x40 MLOAD PUSH1 0x24 ADD DUP1 DUP10 PUSH20 0xFFFFFFFFFFFFFFFFFFFFFFFFFFFFFFFFFFFFFFFF AND PUSH20 0xFFFFFFFFFFFFFFFFFFFFFFFFFFFFFFFFFFFFFFFF AND DUP2 MSTORE PUSH1 0x20 ADD DUP9 DUP2 MSTORE PUSH1 0x20 ADD DUP8 PUSH1 0x0 NOT AND PUSH1 0x0 NOT AND DUP2 MSTORE PUSH1 0x20 ADD DUP7 PUSH20 0xFFFFFFFFFFFFFFFFFFFFFFFFFFFFFFFFFFFFFFFF AND PUSH20 0xFFFFFFFFFFFFFFFFFFFFFFFFFFFFFFFFFFFFFFFF AND DUP2 MSTORE PUSH1 0x20 ADD DUP6 PUSH28 0xFFFFFFFFFFFFFFFFFFFFFFFFFFFFFFFFFFFFFFFFFFFFFFFFFFFFFFFF NOT AND PUSH28 0xFFFFFFFFFFFFFFFFFFFFFFFFFFFFFFFFFFFFFFFFFFFFFFFFFFFFFFFF NOT AND DUP2 MSTORE PUSH1 0x20 ADD DUP5 DUP2 MSTORE PUSH1 0x20 ADD DUP4 DUP2 MSTORE PUSH1 0x20 ADD DUP1 PUSH1 0x20 ADD DUP3 DUP2 SUB DUP3 MSTORE DUP4 DUP2 DUP2 MLOAD DUP2 MSTORE PUSH1 0x20 ADD SWAP2 POP DUP1 MLOAD SWAP1 PUSH1 0x20 ADD SWAP1 DUP1 DUP4 DUP4 PUSH1 0x0 JUMPDEST DUP4 DUP2 LT ISZERO PUSH2 0x211E JUMPI DUP1 DUP3 ADD MLOAD DUP2 DUP5 ADD MSTORE PUSH1 0x20 DUP2 ADD SWAP1 POP PUSH2 0x2103 JUMP JUMPDEST POP POP POP POP SWAP1 POP SWAP1 DUP2 ADD SWAP1 PUSH1 0x1F AND DUP1 ISZERO PUSH2 0x214B JUMPI DUP1 DUP3 SUB DUP1 MLOAD PUSH1 0x1 DUP4 PUSH1 0x20 SUB PUSH2 0x100 EXP SUB NOT AND DUP2 MSTORE PUSH1 0x20 ADD SWAP2 POP JUMPDEST POP SWAP10 POP POP POP POP POP POP POP POP POP POP PUSH1 0x40 MLOAD PUSH1 0x20 DUP2 DUP4 SUB SUB DUP2 MSTORE SWAP1 PUSH1 0x40 MSTORE SWAP1 PUSH28 0xFFFFFFFFFFFFFFFFFFFFFFFFFFFFFFFFFFFFFFFFFFFFFFFFFFFFFFFF NOT AND PUSH1 0x20 DUP3 ADD DUP1 MLOAD PUSH28 0xFFFFFFFFFFFFFFFFFFFFFFFFFFFFFFFFFFFFFFFFFFFFFFFFFFFFFFFF DUP4 DUP2 DUP4 AND OR DUP4 MSTORE POP POP POP POP SWAP1 POP SWAP2 SWAP1 POP JUMP JUMPDEST PUSH2 0x21C3 PUSH2 0x2708 JUMP JUMPDEST PUSH1 0x0 PUSH1 0x20 DUP4 DUP2 ISZERO ISZERO PUSH2 0x21D1 JUMPI INVALID JUMPDEST MOD EQ ISZERO ISZERO PUSH2 0x21EE JUMPI PUSH1 0x20 DUP3 DUP2 ISZERO ISZERO PUSH2 0x21E5 JUMPI INVALID JUMPDEST MOD PUSH1 0x20 SUB DUP3 ADD SWAP2 POP JUMPDEST DUP2 DUP4 PUSH1 0x20 ADD DUP2 DUP2 MSTORE POP POP PUSH1 0x40 MLOAD DUP1 DUP5 MSTORE PUSH1 0x0 DUP2 MSTORE DUP3 DUP2 ADD PUSH1 0x20 ADD PUSH1 0x40 MSTORE POP DUP3 SWAP1 POP SWAP3 SWAP2 POP POP JUMP JUMPDEST PUSH1 0x17 DUP2 GT ISZERO ISZERO PUSH2 0x2247 JUMPI PUSH2 0x2241 DUP2 PUSH1 0x5 DUP5 PUSH1 0xFF AND SWAP1 PUSH1 0x2 EXP MUL PUSH1 0xFF AND OR DUP5 PUSH2 0x2455 SWAP1 SWAP2 SWAP1 PUSH4 0xFFFFFFFF AND JUMP JUMPDEST POP PUSH2 0x236E JUMP JUMPDEST PUSH1 0xFF DUP2 GT ISZERO ISZERO PUSH2 0x228E JUMPI PUSH2 0x2271 PUSH1 0x18 PUSH1 0x5 DUP5 PUSH1 0xFF AND SWAP1 PUSH1 0x2 EXP MUL OR DUP5 PUSH2 0x2455 SWAP1 SWAP2 SWAP1 PUSH4 0xFFFFFFFF AND JUMP JUMPDEST POP PUSH2 0x2288 DUP2 PUSH1 0x1 DUP6 PUSH2 0x2475 SWAP1 SWAP3 SWAP2 SWAP1 PUSH4 0xFFFFFFFF AND JUMP JUMPDEST POP PUSH2 0x236D JUMP JUMPDEST PUSH2 0xFFFF DUP2 GT ISZERO ISZERO PUSH2 0x22D6 JUMPI PUSH2 0x22B9 PUSH1 0x19 PUSH1 0x5 DUP5 PUSH1 0xFF AND SWAP1 PUSH1 0x2 EXP MUL OR DUP5 PUSH2 0x2455 SWAP1 SWAP2 SWAP1 PUSH4 0xFFFFFFFF AND JUMP JUMPDEST POP PUSH2 0x22D0 DUP2 PUSH1 0x2 DUP6 PUSH2 0x2475 SWAP1 SWAP3 SWAP2 SWAP1 PUSH4 0xFFFFFFFF AND JUMP JUMPDEST POP PUSH2 0x236C JUMP JUMPDEST PUSH4 0xFFFFFFFF DUP2 GT ISZERO ISZERO PUSH2 0x2320 JUMPI PUSH2 0x2303 PUSH1 0x1A PUSH1 0x5 DUP5 PUSH1 0xFF AND SWAP1 PUSH1 0x2 EXP MUL OR DUP5 PUSH2 0x2455 SWAP1 SWAP2 SWAP1 PUSH4 0xFFFFFFFF AND JUMP JUMPDEST POP PUSH2 0x231A DUP2 PUSH1 0x4 DUP6 PUSH2 0x2475 SWAP1 SWAP3 SWAP2 SWAP1 PUSH4 0xFFFFFFFF AND JUMP JUMPDEST POP PUSH2 0x236B JUMP JUMPDEST PUSH8 0xFFFFFFFFFFFFFFFF DUP2 GT ISZERO ISZERO PUSH2 0x236A JUMPI PUSH2 0x2351 PUSH1 0x1B PUSH1 0x5 DUP5 PUSH1 0xFF AND SWAP1 PUSH1 0x2 EXP MUL OR DUP5 PUSH2 0x2455 SWAP1 SWAP2 SWAP1 PUSH4 0xFFFFFFFF AND JUMP JUMPDEST POP PUSH2 0x2368 DUP2 PUSH1 0x8 DUP6 PUSH2 0x2475 SWAP1 SWAP3 SWAP2 SWAP1 PUSH4 0xFFFFFFFF AND JUMP JUMPDEST POP JUMPDEST JUMPDEST JUMPDEST JUMPDEST JUMPDEST POP POP POP JUMP JUMPDEST PUSH2 0x237B PUSH2 0x2708 JUMP JUMPDEST PUSH2 0x238D DUP4 DUP5 PUSH1 0x0 ADD MLOAD MLOAD DUP5 DUP6 MLOAD PUSH2 0x2497 JUMP JUMPDEST SWAP1 POP SWAP3 SWAP2 POP POP JUMP JUMPDEST PUSH2 0x23B6 PUSH1 0x3 PUSH1 0x5 PUSH1 0x6 PUSH1 0xFF AND SWAP1 PUSH1 0x2 EXP MUL OR DUP4 PUSH2 0x2455 SWAP1 SWAP2 SWAP1 PUSH4 0xFFFFFFFF AND JUMP JUMPDEST POP PUSH2 0x2402 DUP3 DUP3 PUSH32 0xFFFFFFFFFFFFFFFFFFFFFFFFFFFFFFFFFFFFFFFFFFFFFFFFFFFFFFFFFFFFFFFF SUB PUSH1 0x40 MLOAD PUSH1 0x20 ADD DUP1 DUP3 DUP2 MSTORE PUSH1 0x20 ADD SWAP2 POP POP PUSH1 0x40 MLOAD PUSH1 0x20 DUP2 DUP4 SUB SUB DUP2 MSTORE SWAP1 PUSH1 0x40 MSTORE PUSH2 0x2554 JUMP JUMPDEST POP POP JUMP JUMPDEST PUSH2 0x2427 PUSH1 0x2 PUSH1 0x5 PUSH1 0x6 PUSH1 0xFF AND SWAP1 PUSH1 0x2 EXP MUL OR DUP4 PUSH2 0x2455 SWAP1 SWAP2 SWAP1 PUSH4 0xFFFFFFFF AND JUMP JUMPDEST POP PUSH2 0x2451 DUP3 DUP3 PUSH1 0x40 MLOAD PUSH1 0x20 ADD DUP1 DUP3 DUP2 MSTORE PUSH1 0x20 ADD SWAP2 POP POP PUSH1 0x40 MLOAD PUSH1 0x20 DUP2 DUP4 SUB SUB DUP2 MSTORE SWAP1 PUSH1 0x40 MSTORE PUSH2 0x2554 JUMP JUMPDEST POP POP JUMP JUMPDEST PUSH2 0x245D PUSH2 0x2708 JUMP JUMPDEST PUSH2 0x246D DUP4 DUP5 PUSH1 0x0 ADD MLOAD MLOAD DUP5 PUSH2 0x2579 JUMP JUMPDEST SWAP1 POP SWAP3 SWAP2 POP POP JUMP JUMPDEST PUSH2 0x247D PUSH2 0x2708 JUMP JUMPDEST PUSH2 0x248E DUP5 DUP6 PUSH1 0x0 ADD MLOAD MLOAD DUP6 DUP6 PUSH2 0x25C9 JUMP JUMPDEST SWAP1 POP SWAP4 SWAP3 POP POP POP JUMP JUMPDEST PUSH2 0x249F PUSH2 0x2708 JUMP JUMPDEST PUSH1 0x0 DUP1 PUSH1 0x0 DUP6 MLOAD DUP6 GT ISZERO ISZERO ISZERO PUSH2 0x24B4 JUMPI PUSH1 0x0 DUP1 REVERT JUMPDEST DUP8 PUSH1 0x20 ADD MLOAD DUP6 DUP9 ADD GT ISZERO PUSH2 0x24DF JUMPI PUSH2 0x24DE DUP9 PUSH1 0x2 PUSH2 0x24D8 DUP12 PUSH1 0x20 ADD MLOAD DUP12 DUP11 ADD PUSH2 0x262A JUMP JUMPDEST MUL PUSH2 0x2646 JUMP JUMPDEST JUMPDEST DUP8 MLOAD DUP1 MLOAD DUP9 PUSH1 0x20 DUP4 ADD ADD SWAP5 POP DUP1 DUP10 DUP9 ADD GT ISZERO PUSH2 0x24FB JUMPI DUP9 DUP8 ADD DUP3 MSTORE JUMPDEST PUSH1 0x20 DUP9 ADD SWAP4 POP POP POP JUMPDEST PUSH1 0x20 DUP6 LT ISZERO ISZERO PUSH2 0x2529 JUMPI DUP2 MLOAD DUP4 MSTORE PUSH1 0x20 DUP4 ADD SWAP3 POP PUSH1 0x20 DUP3 ADD SWAP2 POP PUSH1 0x20 DUP6 SUB SWAP5 POP PUSH2 0x2504 JUMP JUMPDEST PUSH1 0x1 DUP6 PUSH1 0x20 SUB PUSH2 0x100 EXP SUB SWAP1 POP DUP1 NOT DUP3 MLOAD AND DUP2 DUP5 MLOAD AND DUP2 DUP2 OR DUP6 MSTORE POP POP DUP8 SWAP4 POP POP POP POP SWAP5 SWAP4 POP POP POP POP JUMP JUMPDEST PUSH2 0x2561 DUP3 PUSH1 0x2 DUP4 MLOAD PUSH2 0x2215 JUMP JUMPDEST PUSH2 0x2574 DUP2 DUP4 PUSH2 0x2373 SWAP1 SWAP2 SWAP1 PUSH4 0xFFFFFFFF AND JUMP JUMPDEST POP POP POP JUMP JUMPDEST PUSH2 0x2581 PUSH2 0x2708 JUMP JUMPDEST DUP4 PUSH1 0x20 ADD MLOAD DUP4 LT ISZERO ISZERO PUSH2 0x25A0 JUMPI PUSH2 0x259F DUP5 PUSH1 0x2 DUP7 PUSH1 0x20 ADD MLOAD MUL PUSH2 0x2646 JUMP JUMPDEST JUMPDEST DUP4 MLOAD DUP1 MLOAD PUSH1 0x20 DUP6 DUP4 ADD ADD DUP5 DUP2 MSTORE8 DUP2 DUP7 EQ ISZERO PUSH2 0x25BC JUMPI PUSH1 0x1 DUP3 ADD DUP4 MSTORE JUMPDEST POP POP POP DUP4 SWAP1 POP SWAP4 SWAP3 POP POP POP JUMP JUMPDEST PUSH2 0x25D1 PUSH2 0x2708 JUMP JUMPDEST PUSH1 0x0 DUP6 PUSH1 0x20 ADD MLOAD DUP6 DUP5 ADD GT ISZERO PUSH2 0x25F1 JUMPI PUSH2 0x25F0 DUP7 PUSH1 0x2 DUP8 DUP7 ADD MUL PUSH2 0x2646 JUMP JUMPDEST JUMPDEST PUSH1 0x1 DUP4 PUSH2 0x100 EXP SUB SWAP1 POP DUP6 MLOAD DUP4 DUP7 DUP3 ADD ADD DUP6 DUP4 NOT DUP3 MLOAD AND OR DUP2 MSTORE DUP2 MLOAD DUP6 DUP9 ADD GT ISZERO PUSH2 0x261C JUMPI DUP5 DUP8 ADD DUP3 MSTORE JUMPDEST POP POP DUP6 SWAP2 POP POP SWAP5 SWAP4 POP POP POP POP JUMP JUMPDEST PUSH1 0x0 DUP2 DUP4 GT ISZERO PUSH2 0x263C JUMPI DUP3 SWAP1 POP PUSH2 0x2640 JUMP JUMPDEST DUP2 SWAP1 POP JUMPDEST SWAP3 SWAP2 POP POP JUMP JUMPDEST PUSH1 0x60 DUP3 PUSH1 0x0 ADD MLOAD SWAP1 POP PUSH2 0x2659 DUP4 DUP4 PUSH2 0x21BB JUMP JUMPDEST POP PUSH2 0x2664 DUP4 DUP3 PUSH2 0x2373 JUMP JUMPDEST POP POP POP POP JUMP JUMPDEST PUSH1 0xC0 PUSH1 0x40 MLOAD SWAP1 DUP2 ADD PUSH1 0x40 MSTORE DUP1 PUSH1 0x0 DUP1 NOT AND DUP2 MSTORE PUSH1 0x20 ADD PUSH1 0x0 PUSH20 0xFFFFFFFFFFFFFFFFFFFFFFFFFFFFFFFFFFFFFFFF AND DUP2 MSTORE PUSH1 0x20 ADD PUSH1 0x0 PUSH28 0xFFFFFFFFFFFFFFFFFFFFFFFFFFFFFFFFFFFFFFFFFFFFFFFFFFFFFFFF NOT AND DUP2 MSTORE PUSH1 0x20 ADD PUSH1 0x0 DUP2 MSTORE PUSH1 0x20 ADD PUSH2 0x26D2 PUSH2 0x2722 JUMP JUMPDEST DUP2 MSTORE POP SWAP1 JUMP JUMPDEST PUSH1 0x40 DUP1 MLOAD SWAP1 DUP2 ADD PUSH1 0x40 MSTORE DUP1 PUSH1 0x0 PUSH20 0xFFFFFFFFFFFFFFFFFFFFFFFFFFFFFFFFFFFFFFFF AND DUP2 MSTORE PUSH1 0x20 ADD PUSH1 0x0 DUP2 MSTORE POP SWAP1 JUMP JUMPDEST PUSH1 0x40 DUP1 MLOAD SWAP1 DUP2 ADD PUSH1 0x40 MSTORE DUP1 PUSH1 0x60 DUP2 MSTORE PUSH1 0x20 ADD PUSH1 0x0 DUP2 MSTORE POP SWAP1 JUMP JUMPDEST PUSH1 0x40 DUP1 MLOAD SWAP1 DUP2 ADD PUSH1 0x40 MSTORE DUP1 PUSH1 0x60 DUP2 MSTORE PUSH1 0x20 ADD PUSH1 0x0 DUP2 MSTORE POP SWAP1 JUMP STOP LOG1 PUSH6 0x627A7A723058 KECCAK256 0x26 0xc6 0xea PUSH20 0xA923C04DA8AA865F9E98F40A5461935B7672E8B0 0xce 0xcf BYTE GASPRICE 0xd8 0xef ADDMOD 0xae STOP 0x29 "
				},
				"gasEstimates": {
					"creation": {
						"codeDepositCost": "2017600",
						"executionCost": "infinite",
						"totalCost": "infinite"
					},
					"external": {
						"cancelRequest(bytes32,uint256,bytes4,uint256)": "infinite",
						"currentValue()": "460",
						"depositPLI(uint256)": "infinite",
						"fulfill(bytes32,uint256)": "43708",
						"getPluginToken()": "705",
						"jobId()": "infinite",
						"oracle()": "552",
						"owner()": "574",
						"plidbs(address)": "1024",
						"renounceOwnership()": "22161",
						"requestData(address)": "infinite",
						"showPrice()": "556",
						"testMyFunc()": "infinite",
						"transferOwnership(address)": "22902",
						"withdrawPli()": "infinite"
					},
					"internal": {
						"stringToBytes32(string memory)": "infinite"
					}
				},
				"methodIdentifiers": {
					"cancelRequest(bytes32,uint256,bytes4,uint256)": "ec65d0f8",
					"currentValue()": "698996f8",
					"depositPLI(uint256)": "d378d5eb",
					"fulfill(bytes32,uint256)": "4357855e",
					"getPluginToken()": "a4b6f67e",
					"jobId()": "c2939d97",
					"oracle()": "7dc0d1d0",
					"owner()": "8da5cb5b",
					"plidbs(address)": "a2e36c5f",
					"renounceOwnership()": "715018a6",
					"requestData(address)": "9dd4cc5d",
					"showPrice()": "8e0e0abb",
					"testMyFunc()": "2d8c762c",
					"transferOwnership(address)": "f2fde38b",
					"withdrawPli()": "37fccd30"
				}
			},
			"userdoc": {
				"methods": {
					"renounceOwnership()": {
						"notice": "Renouncing to ownership will leave the contract without an owner. It will not be possible to call the functions with the `onlyOwner` modifier anymore."
					}
				}
			}
		}
	}
}